{
  "address": "0x5F18122f480204516C1dcD75ba0d8f3711f32fb3",
  "abi": [
    {
      "anonymous": false,
      "inputs": [
        {
          "indexed": true,
          "internalType": "address",
          "name": "by",
          "type": "address"
        },
        {
          "indexed": true,
          "internalType": "uint256",
          "name": "gid",
          "type": "uint256"
        },
        {
          "indexed": true,
          "internalType": "uint256",
          "name": "oldBaseGameCreatorFee",
          "type": "uint256"
        },
        {
          "indexed": false,
          "internalType": "uint256",
          "name": "newBaseGameCreatorFee",
          "type": "uint256"
        }
      ],
      "name": "BaseGameCreatorFeeUpdated",
      "type": "event"
    },
    {
      "anonymous": false,
      "inputs": [
        {
          "indexed": true,
          "internalType": "address",
          "name": "by",
          "type": "address"
        },
        {
          "indexed": true,
          "internalType": "uint256",
          "name": "gid",
          "type": "uint256"
        },
        {
          "indexed": true,
          "internalType": "uint256",
          "name": "tid",
          "type": "uint256"
        },
        {
          "indexed": false,
          "internalType": "string",
          "name": "tournamentName",
          "type": "string"
        },
        {
          "indexed": false,
          "internalType": "address",
          "name": "token",
          "type": "address"
        },
        {
          "indexed": false,
          "internalType": "uint256",
          "name": "oldAmount",
          "type": "uint256"
        },
        {
          "indexed": false,
          "internalType": "uint256",
          "name": "newAmount",
          "type": "uint256"
        }
      ],
      "name": "DepositAmountUpdated",
      "type": "event"
    },
    {
      "anonymous": false,
      "inputs": [
        {
          "indexed": true,
          "internalType": "address",
          "name": "by",
          "type": "address"
        },
        {
          "indexed": true,
          "internalType": "uint256",
          "name": "gid",
          "type": "uint256"
        },
        {
          "indexed": true,
          "internalType": "address",
          "name": "token",
          "type": "address"
        },
        {
          "indexed": false,
          "internalType": "bool",
          "name": "oldStatus",
          "type": "bool"
        },
        {
          "indexed": false,
          "internalType": "bool",
          "name": "newStatus",
          "type": "bool"
        }
      ],
      "name": "DistributableTokenAddressUpdated",
      "type": "event"
    },
    {
      "anonymous": false,
      "inputs": [
        {
          "indexed": true,
          "internalType": "address",
          "name": "by",
          "type": "address"
        },
        {
          "indexed": true,
          "internalType": "uint256",
          "name": "gid",
          "type": "uint256"
        },
        {
          "indexed": false,
          "internalType": "string",
          "name": "gameName",
          "type": "string"
        },
        {
          "indexed": true,
          "internalType": "address",
          "name": "gameCreator",
          "type": "address"
        },
        {
          "indexed": false,
          "internalType": "uint256",
          "name": "baseGameCreatorFee",
          "type": "uint256"
        }
      ],
      "name": "GameAdded",
      "type": "event"
    },
    {
      "anonymous": false,
      "inputs": [
        {
          "indexed": true,
          "internalType": "address",
          "name": "by",
          "type": "address"
        },
        {
          "indexed": true,
          "internalType": "uint256",
          "name": "gid",
          "type": "uint256"
        },
        {
          "indexed": true,
          "internalType": "address",
          "name": "oldGameCreator",
          "type": "address"
        },
        {
          "indexed": false,
          "internalType": "address",
          "name": "newGameCreator",
          "type": "address"
        }
      ],
      "name": "GameCreatorUpdated",
      "type": "event"
    },
    {
      "anonymous": false,
      "inputs": [
        {
          "indexed": true,
          "internalType": "address",
          "name": "by",
          "type": "address"
        },
        {
          "indexed": true,
          "internalType": "uint256",
          "name": "gid",
          "type": "uint256"
        },
        {
          "indexed": false,
          "internalType": "string",
          "name": "gameName",
          "type": "string"
        },
        {
          "indexed": true,
          "internalType": "address",
          "name": "gameCreator",
          "type": "address"
        },
        {
          "indexed": false,
          "internalType": "uint256",
          "name": "baseGameCreatorFee",
          "type": "uint256"
        }
      ],
      "name": "GameRemoved",
      "type": "event"
    },
    {
      "anonymous": false,
      "inputs": [
        {
          "indexed": true,
          "internalType": "address",
          "name": "previousOwner",
          "type": "address"
        },
        {
          "indexed": true,
          "internalType": "address",
          "name": "newOwner",
          "type": "address"
        }
      ],
      "name": "OwnershipTransferred",
      "type": "event"
    },
    {
      "anonymous": false,
      "inputs": [
        {
          "indexed": true,
          "internalType": "address",
          "name": "by",
          "type": "address"
        },
        {
          "indexed": true,
          "internalType": "address",
          "name": "oldFeeRecipient",
          "type": "address"
        },
        {
          "indexed": false,
          "internalType": "uint256",
          "name": "oldPlatformFee",
          "type": "uint256"
        },
        {
          "indexed": true,
          "internalType": "address",
          "name": "newFeeRecipient",
          "type": "address"
        },
        {
          "indexed": false,
          "internalType": "uint256",
          "name": "newPlatformFee",
          "type": "uint256"
        }
      ],
      "name": "PlatformFeeUpdated",
      "type": "event"
    },
    {
      "anonymous": false,
      "inputs": [
        {
          "indexed": true,
          "internalType": "address",
          "name": "by",
          "type": "address"
        },
        {
          "indexed": true,
          "internalType": "uint256",
          "name": "gid",
          "type": "uint256"
        },
        {
          "indexed": true,
          "internalType": "uint256",
          "name": "tid",
          "type": "uint256"
        },
        {
          "indexed": false,
          "internalType": "string",
          "name": "tournamentName",
          "type": "string"
        },
        {
          "indexed": false,
          "internalType": "uint256",
          "name": "appliedGameCreatorFee",
          "type": "uint256"
        },
        {
          "indexed": false,
          "internalType": "uint256",
          "name": "tournamentCreatorFee",
          "type": "uint256"
        }
      ],
      "name": "TournamentCreated",
      "type": "event"
    },
    {
      "anonymous": false,
      "inputs": [
        {
          "indexed": true,
          "internalType": "address",
          "name": "by",
          "type": "address"
        },
        {
          "indexed": true,
          "internalType": "address",
          "name": "oldTournamentCreationFeeToken",
          "type": "address"
        },
        {
          "indexed": false,
          "internalType": "uint256",
          "name": "oldTournamentCreationFeeAmount",
          "type": "uint256"
        },
        {
          "indexed": true,
          "internalType": "address",
          "name": "newTournamentCreationFeeToken",
          "type": "address"
        },
        {
          "indexed": false,
          "internalType": "uint256",
          "name": "newTournamentCreationFeeAmount",
          "type": "uint256"
        }
      ],
      "name": "TournamentCreationFeeUpdated",
      "type": "event"
    },
    {
      "inputs": [
        {
          "internalType": "string",
          "name": "_gameName",
          "type": "string"
        },
        {
          "internalType": "address",
          "name": "_gameCreator",
          "type": "address"
        },
        {
          "internalType": "uint256",
          "name": "_baseGameCreatorFee",
          "type": "uint256"
        }
      ],
      "name": "addGame",
      "outputs": [
        {
          "internalType": "uint256",
          "name": "gid",
          "type": "uint256"
        }
      ],
      "stateMutability": "nonpayable",
      "type": "function"
    },
    {
      "inputs": [],
      "name": "addressRegistry",
      "outputs": [
        {
          "internalType": "contract IAddressRegistry",
          "name": "",
          "type": "address"
        }
      ],
      "stateMutability": "view",
      "type": "function"
    },
    {
      "inputs": [
        {
          "internalType": "uint256",
          "name": "_gid",
          "type": "uint256"
        },
        {
          "internalType": "string",
          "name": "_tournamentName",
          "type": "string"
        },
        {
          "internalType": "uint256",
          "name": "_proposedGameCreatorFee",
          "type": "uint256"
        },
        {
          "internalType": "uint256",
          "name": "_tournamentCreatorFee",
          "type": "uint256"
        }
      ],
      "name": "createTournamentByDAO",
      "outputs": [
        {
          "internalType": "uint256",
          "name": "tid",
          "type": "uint256"
        }
      ],
      "stateMutability": "nonpayable",
      "type": "function"
    },
    {
      "inputs": [
        {
          "internalType": "uint256",
          "name": "_gid",
          "type": "uint256"
        },
        {
          "internalType": "string",
          "name": "_tournamentName",
          "type": "string"
        },
        {
          "internalType": "uint256",
          "name": "_proposedGameCreatorFee",
          "type": "uint256"
        },
        {
          "internalType": "uint256",
          "name": "_tournamentCreatorFee",
          "type": "uint256"
        },
        {
          "components": [
            {
              "internalType": "address",
              "name": "tokenAddress",
              "type": "address"
            },
            {
              "internalType": "uint256",
              "name": "tokenAmount",
              "type": "uint256"
            }
          ],
          "internalType": "struct GameRegistry.Token",
          "name": "_depositToken",
          "type": "tuple"
        },
        {
          "internalType": "address",
          "name": "_distributionTokenAddress",
          "type": "address"
        }
      ],
      "name": "createTournamentByDAOWithTokens",
      "outputs": [
        {
          "internalType": "uint256",
          "name": "tid",
          "type": "uint256"
        }
      ],
      "stateMutability": "nonpayable",
      "type": "function"
    },
    {
      "inputs": [
        {
          "internalType": "uint256",
          "name": "_gid",
          "type": "uint256"
        },
        {
          "internalType": "string",
          "name": "_tournamentName",
          "type": "string"
        },
        {
          "internalType": "uint256",
          "name": "_proposedGameCreatorFee",
          "type": "uint256"
        },
        {
          "internalType": "uint256",
          "name": "_tournamentCreatorFee",
          "type": "uint256"
        },
        {
          "components": [
            {
              "internalType": "address",
              "name": "tokenAddress",
              "type": "address"
            },
            {
              "internalType": "uint256",
              "name": "tokenAmount",
              "type": "uint256"
            }
          ],
          "internalType": "struct GameRegistry.Token",
          "name": "_depositToken",
          "type": "tuple"
        },
        {
          "components": [
            {
              "internalType": "address",
              "name": "tokenAddress",
              "type": "address"
            },
            {
              "internalType": "uint256",
              "name": "tokenAmount",
              "type": "uint256"
            }
          ],
          "internalType": "struct GameRegistry.Token",
          "name": "_tokenToAddPrizePool",
          "type": "tuple"
        },
        {
          "internalType": "address",
          "name": "_nftAddressToAddPrizePool",
          "type": "address"
        },
        {
          "internalType": "uint256",
          "name": "_nftTypeToAddPrizePool",
          "type": "uint256"
        },
        {
          "internalType": "uint256[]",
          "name": "_tokenIdsToAddPrizePool",
          "type": "uint256[]"
        },
        {
          "internalType": "uint256[]",
          "name": "_amountsToAddPrizePool",
          "type": "uint256[]"
        }
      ],
      "name": "createTournamentByUser",
      "outputs": [
        {
          "internalType": "uint256",
          "name": "tid",
          "type": "uint256"
        }
      ],
      "stateMutability": "nonpayable",
      "type": "function"
    },
    {
      "inputs": [],
      "name": "feeRecipient",
      "outputs": [
        {
          "internalType": "address",
          "name": "",
          "type": "address"
        }
      ],
      "stateMutability": "view",
      "type": "function"
    },
    {
      "inputs": [],
      "name": "gameCount",
      "outputs": [
        {
          "internalType": "uint256",
          "name": "",
          "type": "uint256"
        }
      ],
      "stateMutability": "view",
      "type": "function"
    },
    {
      "inputs": [
        {
          "internalType": "uint256",
          "name": "",
          "type": "uint256"
        }
      ],
      "name": "games",
      "outputs": [
        {
          "internalType": "string",
          "name": "name",
          "type": "string"
        },
        {
          "internalType": "address",
          "name": "creatorAddress",
          "type": "address"
        },
        {
          "internalType": "uint256",
          "name": "baseCreatorFee",
          "type": "uint256"
        },
        {
          "internalType": "bool",
          "name": "isDeprecated",
          "type": "bool"
        },
        {
          "internalType": "uint256",
          "name": "tournamentsCount",
          "type": "uint256"
        }
      ],
      "stateMutability": "view",
      "type": "function"
    },
    {
      "inputs": [
        {
          "internalType": "uint256",
          "name": "_gid",
          "type": "uint256"
        },
        {
          "internalType": "uint256",
          "name": "_tid",
          "type": "uint256"
        }
      ],
      "name": "getAppliedGameCreatorFee",
      "outputs": [
        {
          "internalType": "uint256",
          "name": "",
          "type": "uint256"
        }
      ],
      "stateMutability": "view",
      "type": "function"
    },
    {
      "inputs": [
        {
          "internalType": "uint256",
          "name": "_gid",
          "type": "uint256"
        },
        {
          "internalType": "uint256",
          "name": "_tid",
          "type": "uint256"
        },
        {
          "internalType": "address",
          "name": "_tokenAddress",
          "type": "address"
        }
      ],
      "name": "getDepositTokenAmount",
      "outputs": [
        {
          "internalType": "uint256",
          "name": "",
          "type": "uint256"
        }
      ],
      "stateMutability": "view",
      "type": "function"
    },
    {
      "inputs": [
        {
          "internalType": "uint256",
          "name": "_gid",
          "type": "uint256"
        }
      ],
      "name": "getDepositTokenList",
      "outputs": [
        {
          "internalType": "address[]",
          "name": "",
          "type": "address[]"
        }
      ],
      "stateMutability": "view",
      "type": "function"
    },
    {
      "inputs": [
        {
          "internalType": "uint256",
          "name": "_gid",
          "type": "uint256"
        }
      ],
      "name": "getDistributableTokenList",
      "outputs": [
        {
          "internalType": "address[]",
          "name": "",
          "type": "address[]"
        }
      ],
      "stateMutability": "view",
      "type": "function"
    },
    {
      "inputs": [
        {
          "internalType": "uint256",
          "name": "_gid",
          "type": "uint256"
        }
      ],
      "name": "getGameBaseCreatorFee",
      "outputs": [
        {
          "internalType": "uint256",
          "name": "",
          "type": "uint256"
        }
      ],
      "stateMutability": "view",
      "type": "function"
    },
    {
      "inputs": [
        {
          "internalType": "uint256",
          "name": "_gid",
          "type": "uint256"
        }
      ],
      "name": "getGameCreatorAddress",
      "outputs": [
        {
          "internalType": "address",
          "name": "",
          "type": "address"
        }
      ],
      "stateMutability": "view",
      "type": "function"
    },
    {
      "inputs": [
        {
          "internalType": "uint256",
          "name": "_gid",
          "type": "uint256"
        }
      ],
      "name": "getGameName",
      "outputs": [
        {
          "internalType": "string",
          "name": "",
          "type": "string"
        }
      ],
      "stateMutability": "view",
      "type": "function"
    },
    {
      "inputs": [
        {
          "internalType": "uint256",
          "name": "_gid",
          "type": "uint256"
        }
      ],
      "name": "getTournamentCount",
      "outputs": [
        {
          "internalType": "uint256",
          "name": "",
          "type": "uint256"
        }
      ],
      "stateMutability": "view",
      "type": "function"
    },
    {
      "inputs": [
        {
          "internalType": "uint256",
          "name": "_gid",
          "type": "uint256"
        },
        {
          "internalType": "uint256",
          "name": "_tid",
          "type": "uint256"
        }
      ],
      "name": "getTournamentCreator",
      "outputs": [
        {
          "internalType": "address",
          "name": "",
          "type": "address"
        }
      ],
      "stateMutability": "view",
      "type": "function"
    },
    {
      "inputs": [
        {
          "internalType": "uint256",
          "name": "_gid",
          "type": "uint256"
        },
        {
          "internalType": "uint256",
          "name": "_tid",
          "type": "uint256"
        }
      ],
      "name": "getTournamentCreatorFee",
      "outputs": [
        {
          "internalType": "uint256",
          "name": "",
          "type": "uint256"
        }
      ],
      "stateMutability": "view",
      "type": "function"
    },
    {
      "inputs": [
        {
          "internalType": "uint256",
          "name": "_gid",
          "type": "uint256"
        },
        {
          "internalType": "uint256",
          "name": "_tid",
          "type": "uint256"
        }
      ],
      "name": "getTournamentName",
      "outputs": [
        {
          "internalType": "string",
          "name": "",
          "type": "string"
        }
      ],
      "stateMutability": "view",
      "type": "function"
    },
    {
      "inputs": [
        {
          "internalType": "address",
          "name": "_addressRegistry",
          "type": "address"
        },
        {
          "internalType": "address",
          "name": "_feeRecipient",
          "type": "address"
        },
        {
          "internalType": "uint256",
          "name": "_platformFee",
          "type": "uint256"
        },
        {
          "internalType": "address",
          "name": "_tournamentCreationFeeToken",
          "type": "address"
        },
        {
          "internalType": "uint256",
          "name": "_tournamentCreationFeeAmount",
          "type": "uint256"
        }
      ],
      "name": "initialize",
      "outputs": [],
      "stateMutability": "nonpayable",
      "type": "function"
    },
    {
      "inputs": [
        {
          "internalType": "uint256",
          "name": "_gid",
          "type": "uint256"
        },
        {
          "internalType": "address",
          "name": "_tokenAddress",
          "type": "address"
        }
      ],
      "name": "isDistributable",
      "outputs": [
        {
          "internalType": "bool",
          "name": "",
          "type": "bool"
        }
      ],
      "stateMutability": "view",
      "type": "function"
    },
    {
      "inputs": [
        {
          "internalType": "uint256",
          "name": "_gid",
          "type": "uint256"
        }
      ],
      "name": "isGameDeprecated",
      "outputs": [
        {
          "internalType": "bool",
          "name": "",
          "type": "bool"
        }
      ],
      "stateMutability": "view",
      "type": "function"
    },
    {
      "inputs": [],
      "name": "owner",
      "outputs": [
        {
          "internalType": "address",
          "name": "",
          "type": "address"
        }
      ],
      "stateMutability": "view",
      "type": "function"
    },
    {
      "inputs": [],
      "name": "platformFee",
      "outputs": [
        {
          "internalType": "uint256",
          "name": "",
          "type": "uint256"
        }
      ],
      "stateMutability": "view",
      "type": "function"
    },
    {
      "inputs": [
        {
          "internalType": "uint256",
          "name": "_gid",
          "type": "uint256"
        }
      ],
      "name": "removeGame",
      "outputs": [],
      "stateMutability": "nonpayable",
      "type": "function"
    },
    {
      "inputs": [],
      "name": "renounceOwnership",
      "outputs": [],
      "stateMutability": "nonpayable",
      "type": "function"
    },
    {
      "inputs": [],
      "name": "tournamentCreationFeeAmount",
      "outputs": [
        {
          "internalType": "uint256",
          "name": "",
          "type": "uint256"
        }
      ],
      "stateMutability": "view",
      "type": "function"
    },
    {
      "inputs": [],
      "name": "tournamentCreationFeeToken",
      "outputs": [
        {
          "internalType": "address",
          "name": "",
          "type": "address"
        }
      ],
      "stateMutability": "view",
      "type": "function"
    },
    {
      "inputs": [
        {
          "internalType": "address",
          "name": "newOwner",
          "type": "address"
        }
      ],
      "name": "transferOwnership",
      "outputs": [],
      "stateMutability": "nonpayable",
      "type": "function"
    },
    {
      "inputs": [
        {
          "internalType": "uint256",
          "name": "_gid",
          "type": "uint256"
        },
        {
          "internalType": "uint256",
          "name": "_baseGameCreatorFee",
          "type": "uint256"
        }
      ],
      "name": "updateBaseGameCreatorFee",
      "outputs": [],
      "stateMutability": "nonpayable",
      "type": "function"
    },
    {
      "inputs": [
        {
          "internalType": "uint256",
          "name": "_gid",
          "type": "uint256"
        },
        {
          "internalType": "uint256",
          "name": "_tid",
          "type": "uint256"
        },
        {
          "internalType": "address",
          "name": "_token",
          "type": "address"
        },
        {
          "internalType": "uint256",
          "name": "_amount",
          "type": "uint256"
        }
      ],
      "name": "updateDepositTokenAmount",
      "outputs": [],
      "stateMutability": "nonpayable",
      "type": "function"
    },
    {
      "inputs": [
        {
          "internalType": "uint256",
          "name": "_gid",
          "type": "uint256"
        },
        {
          "internalType": "address",
          "name": "_token",
          "type": "address"
        },
        {
          "internalType": "bool",
          "name": "_isDistributable",
          "type": "bool"
        }
      ],
      "name": "updateDistributableTokenAddress",
      "outputs": [],
      "stateMutability": "nonpayable",
      "type": "function"
    },
    {
      "inputs": [
        {
          "internalType": "uint256",
          "name": "_gid",
          "type": "uint256"
        },
        {
          "internalType": "address",
          "name": "_gameCreator",
          "type": "address"
        }
      ],
      "name": "updateGameCreator",
      "outputs": [],
      "stateMutability": "nonpayable",
      "type": "function"
    },
    {
      "inputs": [
        {
          "internalType": "address",
          "name": "_feeRecipient",
          "type": "address"
        },
        {
          "internalType": "uint256",
          "name": "_platformFee",
          "type": "uint256"
        }
      ],
      "name": "updatePlatformFee",
      "outputs": [],
      "stateMutability": "nonpayable",
      "type": "function"
    },
    {
      "inputs": [
        {
          "internalType": "address",
          "name": "_tournamentCreationFeeToken",
          "type": "address"
        },
        {
          "internalType": "uint256",
          "name": "_tournamentCreationFeeAmount",
          "type": "uint256"
        }
      ],
      "name": "updateTournamentCreationFee",
      "outputs": [],
      "stateMutability": "nonpayable",
      "type": "function"
    }
  ],
  "transactionHash": "0xaf41392bce95b29d1280665c18094ed7310b67f921f2b7537dbd74eb13849c13",
  "args": [],
  "numDeployments": 1,
  "solcInputHash": "31b6f9dfa0f1d52218af034e75467bb9",
  "bytecode": "0x608060405234801561001057600080fd5b50614189806100206000396000f3fe608060405234801561001057600080fd5b50600436106102415760003560e01c80638da5cb5b11610145578063ddeeec88116100bd578063f3ad65f41161008c578063f483a0ca11610071578063f483a0ca146104d9578063f7c00e63146104f9578063fbf60be41461050c57600080fd5b8063f3ad65f4146104b3578063f406c2d1146104c657600080fd5b8063ddeeec8814610467578063edcd43ac1461047a578063f2fde38b1461048d578063f30818c1146104a057600080fd5b8063a7fbe6ba11610114578063b6d3bc64116100f9578063b6d3bc641461042e578063c94113b514610441578063cde8d10a1461045457600080fd5b8063a7fbe6ba14610408578063aba869c51461041b57600080fd5b80638da5cb5b146103ae57806391dd73f0146103bf578063920a236b146103d2578063a7ab0549146103f557600080fd5b806346904840116101d857806364fe328e116101a757806371a2304b1161018c57806371a2304b1461037f57806373d31240146103925780638d2acf0e146103a557600080fd5b806364fe328e14610364578063715018a61461037757600080fd5b80634690484014610316578063478eedc8146103295780634d1975b4146103495780636039197d1461035157600080fd5b80632a42b461116102145780632a42b461146102b257806335865971146102dd5780634116b1ad146102f057806341c92c0a1461030357600080fd5b80630fcf566e14610246578063117a5b901461025b57806322871dcd1461028857806326232a2e146102a9575b600080fd5b6102596102543660046137cf565b61051f565b005b61026e6102693660046137fb565b610694565b60405161027f95949392919061386c565b60405180910390f35b61029b6102963660046138ac565b610773565b60405190815260200161027f565b61029b60685481565b6069546102c5906001600160a01b031681565b6040516001600160a01b03909116815260200161027f565b61029b6102eb3660046138ce565b610872565b6102596102fe366004613907565b610981565b61029b6103113660046137fb565b610b86565b6067546102c5906001600160a01b031681565b61033c6103373660046138ac565b610bff565b60405161027f9190613937565b60655461029b565b61029b61035f3660046139a3565b610d80565b6102596103723660046138ac565b610ec7565b61025961107d565b61025961038d366004613a76565b6110d1565b6102596103a03660046137fb565b611216565b61029b606a5481565b6033546001600160a01b03166102c5565b6102596103cd366004613ac3565b6113e3565b6103e56103e03660046137fb565b6114b4565b604051901515815260200161027f565b61029b6104033660046138ac565b611530565b61029b610416366004613b43565b61162f565b6103e5610429366004613907565b611889565b61029b61043c366004613ba0565b61191c565b61025961044f3660046137cf565b611a2e565b6102c56104623660046137fb565b611b9c565b61029b610475366004613c73565b611c1e565b61029b6104883660046137fb565b6120b8565b61025961049b366004613d66565b612130565b61033c6104ae3660046137fb565b612200565b6066546102c5906001600160a01b031681565b6102c56104d43660046138ac565b612300565b6104ec6104e73660046137fb565b612405565b60405161027f9190613d83565b610259610507366004613dd0565b61248b565b6104ec61051a3660046137fb565b6126f1565b6033546001600160a01b0316331461056c5760405162461bcd60e51b8152602060048201819052602482015260008051602061413483398151915260448201526064015b60405180910390fd5b6001600160a01b038216151580610581575080155b6105cd5760405162461bcd60e51b815260206004820152601560248201527f46656520726563697069656e74206e6f742073657400000000000000000000006044820152606401610563565b6103e881111561061f5760405162461bcd60e51b815260206004820152601560248201527f506c6174666f726d2066656520657863656564656400000000000000000000006044820152606401610563565b60675460685460408051918252602082018490526001600160a01b0385811693169133917f41340b8520c039756fdade211d2fd26138ba0673031cebf9ae4ae32d38357062910160405180910390a4606780546001600160a01b0319166001600160a01b039390931692909217909155606855565b606581815481106106a457600080fd5b90600052602060002090600902016000915090508060000180546106c790613e2b565b80601f01602080910402602001604051908101604052809291908181526020018280546106f390613e2b565b80156107405780601f1061071557610100808354040283529160200191610740565b820191906000526020600020905b81548152906001019060200180831161072357829003601f168201915b50505060018401546002850154600386015460079096015494956001600160a01b039092169490935060ff909116915085565b606554600090839081106107be5760405162461bcd60e51b8152602060048201526012602482015271092dcecc2d8d2c840cec2daca40d2dcc8caf60731b6044820152606401610563565b8383606582815481106107d3576107d3613e60565b906000526020600020906009020160070154811061082e5760405162461bcd60e51b8152602060048201526018602482015277092dcecc2d8d2c840e8deeae4dcc2dacadce840d2dcc8caf60431b6044820152606401610563565b6065868154811061084157610841613e60565b9060005260206000209060090201600601600086815260200190815260200160002060020154935050505092915050565b606554600090849081106108bd5760405162461bcd60e51b8152602060048201526012602482015271092dcecc2d8d2c840cec2daca40d2dcc8caf60731b6044820152606401610563565b8484606582815481106108d2576108d2613e60565b906000526020600020906009020160070154811061092d5760405162461bcd60e51b8152602060048201526018602482015277092dcecc2d8d2c840e8deeae4dcc2dacadce840d2dcc8caf60431b6044820152606401610563565b6065878154811061094057610940613e60565b60009182526020808320898452600660099093020191909101815260408083206001600160a01b038916845260040190915290205493505050509392505050565b6065548290811080156109bb5750606581815481106109a2576109a2613e60565b600091825260209091206003600990920201015460ff16155b6109f95760405162461bcd60e51b815260206004820152600f60248201526e47616d65206e6f742061637469766560881b6044820152606401610563565b60658381548110610a0c57610a0c613e60565b60009182526020909120600990910201600101546001600160a01b03163314610a775760405162461bcd60e51b815260206004820152601160248201527f4f6e6c792067616d652063726561746f720000000000000000000000000000006044820152606401610563565b6001600160a01b038216610acd5760405162461bcd60e51b815260206004820152601960248201527f5a65726f2067616d652063726561746f722061646472657373000000000000006044820152606401610563565b60658381548110610ae057610ae0613e60565b6000918252602091829020600990910201600101546040516001600160a01b03858116825290911691859133917fc3ead6876b368fd5723f08611f2323ab6862a20398921fb4c5d8102183752686910160405180910390a48160658481548110610b4c57610b4c613e60565b906000526020600020906009020160010160006101000a8154816001600160a01b0302191690836001600160a01b03160217905550505050565b60655460009082908110610bd15760405162461bcd60e51b8152602060048201526012602482015271092dcecc2d8d2c840cec2daca40d2dcc8caf60731b6044820152606401610563565b60658381548110610be457610be4613e60565b90600052602060002090600902016007015491505b50919050565b60655460609083908110610c4a5760405162461bcd60e51b8152602060048201526012602482015271092dcecc2d8d2c840cec2daca40d2dcc8caf60731b6044820152606401610563565b838360658281548110610c5f57610c5f613e60565b9060005260206000209060090201600701548110610cba5760405162461bcd60e51b8152602060048201526018602482015277092dcecc2d8d2c840e8deeae4dcc2dacadce840d2dcc8caf60431b6044820152606401610563565b60658681548110610ccd57610ccd613e60565b600091825260208083208884526006600990930201919091019052604090208054610cf790613e2b565b80601f0160208091040260200160405190810160405280929190818152602001828054610d2390613e2b565b8015610d705780601f10610d4557610100808354040283529160200191610d70565b820191906000526020600020905b815481529060010190602001808311610d5357829003601f168201915b5050505050935050505092915050565b6033546000906001600160a01b03163314610dcb5760405162461bcd60e51b815260206004820181905260248201526000805160206141348339815191526044820152606401610563565b606554879081108015610e05575060658181548110610dec57610dec613e60565b600091825260209091206003600990920201015460ff16155b610e435760405162461bcd60e51b815260206004820152600f60248201526e47616d65206e6f742061637469766560881b6044820152606401610563565b610e4f88888888612775565b9150610e6d8883610e636020880188613d66565b8760200135612a61565b60658881548110610e8057610e80613e60565b600091825260208083206001600160a01b03871684526008600990930201919091019052604090205460ff16610ebc57610ebc88846001612dfa565b509695505050505050565b6033546001600160a01b03163314610f0f5760405162461bcd60e51b815260206004820181905260248201526000805160206141348339815191526044820152606401610563565b606554829081108015610f49575060658181548110610f3057610f30613e60565b600091825260209091206003600990920201015460ff16155b610f875760405162461bcd60e51b815260206004820152600f60248201526e47616d65206e6f742061637469766560881b6044820152606401610563565b6103e882606854610f989190613e8c565b1115610fe65760405162461bcd60e51b815260206004820152601960248201527f45786365656465642067616d652063726561746f7220666565000000000000006044820152606401610563565b60658381548110610ff957610ff9613e60565b90600052602060002090600902016002015483336001600160a01b03167f1368505f5ab324c064457c30f01846471732247325d44b676e806cc4cd884a708560405161104791815260200190565b60405180910390a4816065848154811061106357611063613e60565b906000526020600020906009020160020181905550505050565b6033546001600160a01b031633146110c55760405162461bcd60e51b815260206004820181905260248201526000805160206141348339815191526044820152606401610563565b6110cf6000613157565b565b6033546001600160a01b031633146111195760405162461bcd60e51b815260206004820181905260248201526000805160206141348339815191526044820152606401610563565b60655484908110801561115357506065818154811061113a5761113a613e60565b600091825260209091206003600990920201015460ff16155b6111915760405162461bcd60e51b815260206004820152600f60248201526e47616d65206e6f742061637469766560881b6044820152606401610563565b8484606582815481106111a6576111a6613e60565b90600052602060002090600902016007015481106112015760405162461bcd60e51b8152602060048201526018602482015277092dcecc2d8d2c840e8deeae4dcc2dacadce840d2dcc8caf60431b6044820152606401610563565b61120d87878787612a61565b50505050505050565b6033546001600160a01b0316331461125e5760405162461bcd60e51b815260206004820181905260248201526000805160206141348339815191526044820152606401610563565b60655481908110801561129857506065818154811061127f5761127f613e60565b600091825260209091206003600990920201015460ff16155b6112d65760405162461bcd60e51b815260206004820152600f60248201526e47616d65206e6f742061637469766560881b6044820152606401610563565b6001606583815481106112eb576112eb613e60565b906000526020600020906009020160030160006101000a81548160ff0219169083151502179055506065828154811061132657611326613e60565b906000526020600020906009020160010160009054906101000a90046001600160a01b03166001600160a01b031682336001600160a01b03167f87c3cbb8e83984547de922e1b60d2b0e975685ec4e9aca63d4eb28317d4da5606065868154811061139357611393613e60565b9060005260206000209060090201600001606587815481106113b7576113b7613e60565b9060005260206000209060090201600201546040516113d7929190613f44565b60405180910390a45050565b6033546001600160a01b0316331461142b5760405162461bcd60e51b815260206004820181905260248201526000805160206141348339815191526044820152606401610563565b60655483908110801561146557506065818154811061144c5761144c613e60565b600091825260209091206003600990920201015460ff16155b6114a35760405162461bcd60e51b815260206004820152600f60248201526e47616d65206e6f742061637469766560881b6044820152606401610563565b6114ae848484612dfa565b50505050565b606554600090829081106114ff5760405162461bcd60e51b8152602060048201526012602482015271092dcecc2d8d2c840cec2daca40d2dcc8caf60731b6044820152606401610563565b6065838154811061151257611512613e60565b600091825260209091206009909102016003015460ff169392505050565b6065546000908390811061157b5760405162461bcd60e51b8152602060048201526012602482015271092dcecc2d8d2c840cec2daca40d2dcc8caf60731b6044820152606401610563565b83836065828154811061159057611590613e60565b90600052602060002090600902016007015481106115eb5760405162461bcd60e51b8152602060048201526018602482015277092dcecc2d8d2c840e8deeae4dcc2dacadce840d2dcc8caf60431b6044820152606401610563565b606586815481106115fe576115fe613e60565b9060005260206000209060090201600601600086815260200190815260200160002060030154935050505092915050565b6033546000906001600160a01b0316331461167a5760405162461bcd60e51b815260206004820181905260248201526000805160206141348339815191526044820152606401610563565b836116c75760405162461bcd60e51b815260206004820152600f60248201527f456d7074792067616d65206e616d6500000000000000000000000000000000006044820152606401610563565b6001600160a01b03831661171d5760405162461bcd60e51b815260206004820152601960248201527f5a65726f2067616d652063726561746f722061646472657373000000000000006044820152606401610563565b6103e88260685461172e9190613e8c565b111561177c5760405162461bcd60e51b815260206004820152601e60248201527f457863656564656420626173652067616d652063726561746f722066656500006044820152606401610563565b506065805460018101808355600083905290918691869190849081106117a4576117a4613e60565b600091825260209091206117be936009909202019161369d565b5082606582815481106117d3576117d3613e60565b906000526020600020906009020160010160006101000a8154816001600160a01b0302191690836001600160a01b03160217905550816065828154811061181c5761181c613e60565b906000526020600020906009020160020181905550826001600160a01b031681336001600160a01b03167f871f6ba5dcb0133e30d68dd1c00225621e34ea9882970c2578c9136a4113d04f88888760405161187993929190613f66565b60405180910390a4949350505050565b606554600090839081106118d45760405162461bcd60e51b8152602060048201526012602482015271092dcecc2d8d2c840cec2daca40d2dcc8caf60731b6044820152606401610563565b606584815481106118e7576118e7613e60565b600091825260208083206001600160a01b03871684526008600990930201919091019052604090205460ff1691505092915050565b6033546000906001600160a01b031633146119675760405162461bcd60e51b815260206004820181905260248201526000805160206141348339815191526044820152606401610563565b6065548690811080156119a157506065818154811061198857611988613e60565b600091825260209091206003600990920201015460ff16155b6119df5760405162461bcd60e51b815260206004820152600f60248201526e47616d65206e6f742061637469766560881b6044820152606401610563565b611a238787878080601f0160208091040260200160405190810160405280939291908181526020018383808284376000920191909152508992508891506127759050565b979650505050505050565b6033546001600160a01b03163314611a765760405162461bcd60e51b815260206004820181905260248201526000805160206141348339815191526044820152606401610563565b6001600160a01b038216611ad75760405162461bcd60e51b815260206004820152602260248201527f5a65726f20746f75726e616d656e74206372656174696f6e2066656520746f6b60448201526132b760f11b6064820152608401610563565b60008111611b275760405162461bcd60e51b815260206004820152601c60248201527f5a65726f20746f75726e616d656e74206372656174696f6e20666565000000006044820152606401610563565b606954606a5460408051918252602082018490526001600160a01b0385811693169133917f45bc4d0779d14a1aad1c23a7c7276ca222ceb0f53ce9ec76d88470974674a58f910160405180910390a4606980546001600160a01b0319166001600160a01b039390931692909217909155606a55565b60655460009082908110611be75760405162461bcd60e51b8152602060048201526012602482015271092dcecc2d8d2c840cec2daca40d2dcc8caf60731b6044820152606401610563565b60658381548110611bfa57611bfa613e60565b60009182526020909120600990910201600101546001600160a01b03169392505050565b6065546000908c9081108015611c5b575060658181548110611c4257611c42613e60565b600091825260209091206003600990920201015460ff16155b611c995760405162461bcd60e51b815260206004820152600f60248201526e47616d65206e6f742061637469766560881b6044820152606401610563565b606754606a54606954611cbd926001600160a01b03918216923392909116906131a9565b611d018d8d8d8080601f0160208091040260200160405190810160405280939291908181526020018383808284376000920191909152508f92508e91506127759050565b9150611d1f8d83611d1560208c018c613d66565b8b60200135612a61565b60658d81548110611d3257611d32613e60565b90600052602060002090600902016008016000896000016020810190611d589190613d66565b6001600160a01b0316815260208101919091526040016000205460ff16158015611d86575060008860200135115b15611da357611da38d611d9c60208b018b613d66565b6001612dfa565b60658d81548110611db657611db6613e60565b90600052602060002090600902016008016000886000016020810190611ddc9190613d66565b6001600160a01b0316815260208101919091526040016000205460ff16158015611e0a575060008760200135115b15611e2057611e208d611d9c60208a018a613d66565b602087013515611f5357606660009054906101000a90046001600160a01b03166001600160a01b0316638d374f256040518163ffffffff1660e01b8152600401602060405180830381865afa158015611e7d573d6000803e3d6000fd5b505050506040513d601f19601f82011682018060405250810190611ea19190613f9f565b6001600160a01b0316631de6ba17338f85611ebf60208d018d613d66565b60405160e086901b7fffffffff000000000000000000000000000000000000000000000000000000001681526001600160a01b03948516600482015260248101939093526044830191909152909116606482015260208a0135608482015260a401600060405180830381600087803b158015611f3a57600080fd5b505af1158015611f4e573d6000803e3d6000fd5b505050505b846102d11480611f64575084610483145b156120a85760658d81548110611f7c57611f7c613e60565b600091825260208083206001600160a01b038a1684526008600990930201919091019052604090205460ff16158015611fb6575060008351115b15611fc757611fc78d876001612dfa565b606660009054906101000a90046001600160a01b03166001600160a01b0316638d374f256040518163ffffffff1660e01b8152600401602060405180830381865afa15801561201a573d6000803e3d6000fd5b505050506040513d601f19601f8201168201806040525081019061203e9190613f9f565b6001600160a01b031663b3a833b8338f858a8a8a8a6040518863ffffffff1660e01b81526004016120759796959493929190613ff7565b600060405180830381600087803b15801561208f57600080fd5b505af11580156120a3573d6000803e3d6000fd5b505050505b509b9a5050505050505050505050565b606554600090829081106121035760405162461bcd60e51b8152602060048201526012602482015271092dcecc2d8d2c840cec2daca40d2dcc8caf60731b6044820152606401610563565b6065838154811061211657612116613e60565b906000526020600020906009020160020154915050919050565b6033546001600160a01b031633146121785760405162461bcd60e51b815260206004820181905260248201526000805160206141348339815191526044820152606401610563565b6001600160a01b0381166121f45760405162461bcd60e51b815260206004820152602660248201527f4f776e61626c653a206e6577206f776e657220697320746865207a65726f206160448201527f64647265737300000000000000000000000000000000000000000000000000006064820152608401610563565b6121fd81613157565b50565b6065546060908290811061224b5760405162461bcd60e51b8152602060048201526012602482015271092dcecc2d8d2c840cec2daca40d2dcc8caf60731b6044820152606401610563565b6065838154811061225e5761225e613e60565b9060005260206000209060090201600001805461227a90613e2b565b80601f01602080910402602001604051908101604052809291908181526020018280546122a690613e2b565b80156122f35780601f106122c8576101008083540402835291602001916122f3565b820191906000526020600020905b8154815290600101906020018083116122d657829003601f168201915b5050505050915050919050565b6065546000908390811061234b5760405162461bcd60e51b8152602060048201526012602482015271092dcecc2d8d2c840cec2daca40d2dcc8caf60731b6044820152606401610563565b83836065828154811061236057612360613e60565b90600052602060002090600902016007015481106123bb5760405162461bcd60e51b8152602060048201526018602482015277092dcecc2d8d2c840e8deeae4dcc2dacadce840d2dcc8caf60431b6044820152606401610563565b606586815481106123ce576123ce613e60565b60009182526020808320888452600660099093020191909101905260409020600101546001600160a01b0316935050505092915050565b60606065828154811061241a5761241a613e60565b906000526020600020906009020160050180548060200260200160405190810160405280929190818152602001828054801561247f57602002820191906000526020600020905b81546001600160a01b03168152600190910190602001808311612461575b50505050509050919050565b600054610100900460ff16806124a4575060005460ff16155b6125075760405162461bcd60e51b815260206004820152602e60248201527f496e697469616c697a61626c653a20636f6e747261637420697320616c72656160448201526d191e481a5b9a5d1a585b1a5e995960921b6064820152608401610563565b600054610100900460ff16158015612529576000805461ffff19166101011790555b612531613218565b6001600160a01b0386166125875760405162461bcd60e51b815260206004820152601560248201527f5a65726f206164647265737320726567697374727900000000000000000000006044820152606401610563565b6001600160a01b0383166125dd5760405162461bcd60e51b815260206004820152601960248201527f5a65726f20746f75726e616d656e742066656520746f6b656e000000000000006044820152606401610563565b6001600160a01b0385161515806125f2575083155b61263e5760405162461bcd60e51b815260206004820152601560248201527f46656520726563697069656e74206e6f742073657400000000000000000000006044820152606401610563565b6103e88411156126905760405162461bcd60e51b815260206004820152601560248201527f506c6174666f726d2066656520657863656564656400000000000000000000006044820152606401610563565b606680546001600160a01b038089166001600160a01b0319928316179092556067805488841690831617905560688690556069805492861692909116919091179055606a82905580156126e9576000805461ff00191690555b505050505050565b60606065828154811061270657612706613e60565b906000526020600020906009020160040180548060200260200160405190810160405280929190818152602001828054801561247f576020028201919060005260206000209081546001600160a01b031681526001909101906020018083116124615750505050509050919050565b600080836127a9576065868154811061279057612790613e60565b90600052602060002090600902016002015490506127ac565b50825b80606587815481106127c0576127c0613e60565b90600052602060002090600902016002015411156128205760405162461bcd60e51b815260206004820152601d60248201527f4c6f772067616d652063726561746f72206665652070726f706f7365640000006044820152606401610563565b6103e883826068546128329190613e8c565b61283c9190613e8c565b111561288a5760405162461bcd60e51b815260206004820152600d60248201527f45786365656465642066656573000000000000000000000000000000000000006044820152606401610563565b6065868154811061289d5761289d613e60565b90600052602060002090600902016007015491506001606587815481106128c6576128c6613e60565b906000526020600020906009020160070160008282546128e69190613e8c565b92505081905550846065878154811061290157612901613e60565b906000526020600020906009020160060160008481526020019081526020016000206000019080519060200190612939929190613721565b50336065878154811061294e5761294e613e60565b9060005260206000209060090201600601600084815260200190815260200160002060010160006101000a8154816001600160a01b0302191690836001600160a01b0316021790555080606587815481106129ab576129ab613e60565b906000526020600020906009020160060160008481526020019081526020016000206003018190555082606587815481106129e8576129e8613e60565b90600052602060002090600902016006016000848152602001908152602001600020600201819055508186336001600160a01b03167f5b1600316d8d2966d4cad163e656448a5622202016ec8b306efe11d70fa58d51888588604051612a5093929190614055565b60405180910390a450949350505050565b8284336001600160a01b03167fa5c159e7b999109ecb53422b7b9c90ccbadb6ed8896d2e239257d284ce6d57aa60658881548110612aa157612aa1613e60565b906000526020600020906009020160060160008881526020019081526020016000206000018660658a81548110612ada57612ada613e60565b600091825260208083208c8452600660099093020191909101815260408083206001600160a01b038c16845260040190915290819020549051612b2193929190899061407a565b60405180910390a48015612bd15760658481548110612b4257612b42613e60565b60009182526020808320868452600660099093020191909101815260408083206001600160a01b0386168452600401909152902054612bcc5760658481548110612b8e57612b8e613e60565b60009182526020808320600992909202909101600501805460018101825590835291200180546001600160a01b0319166001600160a01b0384161790555b612da9565b60005b60658581548110612be757612be7613e60565b906000526020600020906009020160050180549050811015612da75760658581548110612c1657612c16613e60565b90600052602060002090600902016005018181548110612c3857612c38613e60565b6000918252602090912001546001600160a01b0384811691161415612d955760658581548110612c6a57612c6a613e60565b9060005260206000209060090201600501600160658781548110612c9057612c90613e60565b906000526020600020906009020160050180549050612caf91906140b2565b81548110612cbf57612cbf613e60565b600091825260209091200154606580546001600160a01b039092169187908110612ceb57612ceb613e60565b90600052602060002090600902016005018281548110612d0d57612d0d613e60565b9060005260206000200160006101000a8154816001600160a01b0302191690836001600160a01b0316021790555060658581548110612d4e57612d4e613e60565b9060005260206000209060090201600501805480612d6e57612d6e6140c9565b600082815260209020810160001990810180546001600160a01b0319169055019055612da7565b80612d9f816140df565b915050612bd4565b505b8060658581548110612dbd57612dbd613e60565b600091825260208083209683526006600990920290960101855260408082206001600160a01b039095168252600490940190945291909220555050565b816001600160a01b031683336001600160a01b03167f55c3f1ffae9780d4a4ce8073352d34fea806bb40540f99c3e32abaac63de3b1b60658781548110612e4357612e43613e60565b600091825260208083206001600160a01b038a168452600992909202909101600801815260409182902054825160ff90911615158152871515918101919091520160405180910390a48015612f2b5760658381548110612ea557612ea5613e60565b600091825260208083206001600160a01b03861684526008600990930201919091019052604090205460ff16612f265760658381548110612ee857612ee8613e60565b60009182526020808320600992909202909101600401805460018101825590835291200180546001600160a01b0319166001600160a01b0384161790555b613103565b60005b60658481548110612f4157612f41613e60565b9060005260206000209060090201600401805490508110156131015760658481548110612f7057612f70613e60565b90600052602060002090600902016004018181548110612f9257612f92613e60565b6000918252602090912001546001600160a01b03848116911614156130ef5760658481548110612fc457612fc4613e60565b9060005260206000209060090201600401600160658681548110612fea57612fea613e60565b90600052602060002090600902016004018054905061300991906140b2565b8154811061301957613019613e60565b600091825260209091200154606580546001600160a01b03909216918690811061304557613045613e60565b9060005260206000209060090201600401828154811061306757613067613e60565b9060005260206000200160006101000a8154816001600160a01b0302191690836001600160a01b03160217905550606584815481106130a8576130a8613e60565b90600052602060002090600902016004018054806130c8576130c86140c9565b600082815260209020810160001990810180546001600160a01b0319169055019055613101565b806130f9816140df565b915050612f2e565b505b806065848154811061311757613117613e60565b600091825260208083206001600160a01b03909616835260086009909202909501019093526040909220805492151560ff19909316929092179091555050565b603380546001600160a01b038381166001600160a01b0319831681179093556040519116919082907f8be0079c531659141344cd1fd0a4f28419497f9722a3daafe3b4186f6b6457e090600090a35050565b604080516001600160a01b0385811660248301528416604482015260648082018490528251808303909101815260849091019091526020810180517bffffffffffffffffffffffffffffffffffffffffffffffffffffffff166323b872dd60e01b1790526114ae9085906132da565b600054610100900460ff1680613231575060005460ff16155b6132945760405162461bcd60e51b815260206004820152602e60248201527f496e697469616c697a61626c653a20636f6e747261637420697320616c72656160448201526d191e481a5b9a5d1a585b1a5e995960921b6064820152608401610563565b600054610100900460ff161580156132b6576000805461ffff19166101011790555b6132be6133c4565b6132c6613475565b80156121fd576000805461ff001916905550565b600061332f826040518060400160405280602081526020017f5361666545524332303a206c6f772d6c6576656c2063616c6c206661696c6564815250856001600160a01b031661351c9092919063ffffffff16565b8051909150156133bf578080602001905181019061334d91906140fa565b6133bf5760405162461bcd60e51b815260206004820152602a60248201527f5361666545524332303a204552433230206f7065726174696f6e20646964206e60448201527f6f742073756363656564000000000000000000000000000000000000000000006064820152608401610563565b505050565b600054610100900460ff16806133dd575060005460ff16155b6134405760405162461bcd60e51b815260206004820152602e60248201527f496e697469616c697a61626c653a20636f6e747261637420697320616c72656160448201526d191e481a5b9a5d1a585b1a5e995960921b6064820152608401610563565b600054610100900460ff161580156132c6576000805461ffff191661010117905580156121fd576000805461ff001916905550565b600054610100900460ff168061348e575060005460ff16155b6134f15760405162461bcd60e51b815260206004820152602e60248201527f496e697469616c697a61626c653a20636f6e747261637420697320616c72656160448201526d191e481a5b9a5d1a585b1a5e995960921b6064820152608401610563565b600054610100900460ff16158015613513576000805461ffff19166101011790555b6132c633613157565b606061352b8484600085613535565b90505b9392505050565b6060824710156135ad5760405162461bcd60e51b815260206004820152602660248201527f416464726573733a20696e73756666696369656e742062616c616e636520666f60448201527f722063616c6c00000000000000000000000000000000000000000000000000006064820152608401610563565b843b6135fb5760405162461bcd60e51b815260206004820152601d60248201527f416464726573733a2063616c6c20746f206e6f6e2d636f6e74726163740000006044820152606401610563565b600080866001600160a01b031685876040516136179190614117565b60006040518083038185875af1925050503d8060008114613654576040519150601f19603f3d011682016040523d82523d6000602084013e613659565b606091505b5091509150611a238282866060831561367357508161352e565b8251156136835782518084602001fd5b8160405162461bcd60e51b81526004016105639190613937565b8280546136a990613e2b565b90600052602060002090601f0160209004810192826136cb5760008555613711565b82601f106136e45782800160ff19823516178555613711565b82800160010185558215613711579182015b828111156137115782358255916020019190600101906136f6565b5061371d929150613795565b5090565b82805461372d90613e2b565b90600052602060002090601f01602090048101928261374f5760008555613711565b82601f1061376857805160ff1916838001178555613711565b82800160010185558215613711579182015b8281111561371157825182559160200191906001019061377a565b5b8082111561371d5760008155600101613796565b6001600160a01b03811681146121fd57600080fd5b80356137ca816137aa565b919050565b600080604083850312156137e257600080fd5b82356137ed816137aa565b946020939093013593505050565b60006020828403121561380d57600080fd5b5035919050565b60005b8381101561382f578181015183820152602001613817565b838111156114ae5750506000910152565b60008151808452613858816020860160208601613814565b601f01601f19169290920160200192915050565b60a08152600061387f60a0830188613840565b6001600160a01b039690961660208301525060408101939093529015156060830152608090910152919050565b600080604083850312156138bf57600080fd5b50508035926020909101359150565b6000806000606084860312156138e357600080fd5b833592506020840135915060408401356138fc816137aa565b809150509250925092565b6000806040838503121561391a57600080fd5b82359150602083013561392c816137aa565b809150509250929050565b60208152600061352e6020830184613840565b634e487b7160e01b600052604160045260246000fd5b604051601f8201601f1916810167ffffffffffffffff811182821017156139895761398961394a565b604052919050565b600060408284031215610bf957600080fd5b60008060008060008060e087890312156139bc57600080fd5b8635955060208088013567ffffffffffffffff808211156139dc57600080fd5b818a0191508a601f8301126139f057600080fd5b813581811115613a0257613a0261394a565b613a14601f8201601f19168501613960565b91508082528b84828501011115613a2a57600080fd5b80848401858401376000848284010152508097505050506040870135935060608701359250613a5c8860808901613991565b9150613a6a60c088016137bf565b90509295509295509295565b60008060008060808587031215613a8c57600080fd5b84359350602085013592506040850135613aa5816137aa565b9396929550929360600135925050565b80151581146121fd57600080fd5b600080600060608486031215613ad857600080fd5b833592506020840135613aea816137aa565b915060408401356138fc81613ab5565b60008083601f840112613b0c57600080fd5b50813567ffffffffffffffff811115613b2457600080fd5b602083019150836020828501011115613b3c57600080fd5b9250929050565b60008060008060608587031215613b5957600080fd5b843567ffffffffffffffff811115613b7057600080fd5b613b7c87828801613afa565b9095509350506020850135613b90816137aa565b9396929550929360400135925050565b600080600080600060808688031215613bb857600080fd5b85359450602086013567ffffffffffffffff811115613bd657600080fd5b613be288828901613afa565b9699909850959660408101359660609091013595509350505050565b600082601f830112613c0f57600080fd5b8135602067ffffffffffffffff821115613c2b57613c2b61394a565b8160051b613c3a828201613960565b9283528481018201928281019087851115613c5457600080fd5b83870192505b84831015611a2357823582529183019190830190613c5a565b60008060008060008060008060008060006101808c8e031215613c9557600080fd5b8b359a5067ffffffffffffffff8060208e01351115613cb357600080fd5b613cc38e60208f01358f01613afa565b909b50995060408d0135985060608d01359750613ce38e60808f01613991565b9650613cf28e60c08f01613991565b9550613d016101008e016137bf565b94506101208d01359350806101408e01351115613d1d57600080fd5b613d2e8e6101408f01358f01613bfe565b9250806101608e01351115613d4257600080fd5b50613d548d6101608e01358e01613bfe565b90509295989b509295989b9093969950565b600060208284031215613d7857600080fd5b813561352e816137aa565b6020808252825182820181905260009190848201906040850190845b81811015613dc45783516001600160a01b031683529284019291840191600101613d9f565b50909695505050505050565b600080600080600060a08688031215613de857600080fd5b8535613df3816137aa565b94506020860135613e03816137aa565b9350604086013592506060860135613e1a816137aa565b949793965091946080013592915050565b600181811c90821680613e3f57607f821691505b60208210811415610bf957634e487b7160e01b600052602260045260246000fd5b634e487b7160e01b600052603260045260246000fd5b634e487b7160e01b600052601160045260246000fd5b60008219821115613e9f57613e9f613e76565b500190565b8054600090600181811c9080831680613ebe57607f831692505b6020808410821415613ee057634e487b7160e01b600052602260045260246000fd5b83885260208801828015613efb5760018114613f0c57613f37565b60ff19871682528282019750613f37565b60008981526020902060005b87811015613f3157815484820152908601908401613f18565b83019850505b5050505050505092915050565b604081526000613f576040830185613ea4565b90508260208301529392505050565b604081528260408201528284606083013760006060848301015260006060601f19601f8601168301019050826020830152949350505050565b600060208284031215613fb157600080fd5b815161352e816137aa565b600081518084526020808501945080840160005b83811015613fec57815187529582019590820190600101613fd0565b509495945050505050565b60006001600160a01b03808a16835288602084015287604084015280871660608401525084608083015260e060a083015261403560e0830185613fbc565b82810360c08401526140478185613fbc565b9a9950505050505050505050565b6060815260006140686060830186613840565b60208301949094525060400152919050565b60808152600061408d6080830187613ea4565b6001600160a01b03959095166020830152506040810192909252606090910152919050565b6000828210156140c4576140c4613e76565b500390565b634e487b7160e01b600052603160045260246000fd5b60006000198214156140f3576140f3613e76565b5060010190565b60006020828403121561410c57600080fd5b815161352e81613ab5565b60008251614129818460208701613814565b919091019291505056fe4f776e61626c653a2063616c6c6572206973206e6f7420746865206f776e6572a2646970667358221220879adf2e4f5a4d22f2a863ee7e6da7d900ba7d8a7ffbe35f0811e6fd60e8080c64736f6c634300080b0033",
  "devdoc": {
    "author": "David Lee",
    "kind": "dev",
    "methods": {
      "addGame(string,address,uint256)": {
        "details": "Base game creator fee is the minimum fee vaule that the game creator should be rewarded from the tournamnet of the gameWhen creating the tournament of the game, the game creator fee can be proposed by the tournament creatorbut the proposed value can't be less than the base oneIf the proposed game creator fee is 0, the base game creator fee will be applied",
        "params": {
          "_baseGameCreatorFee": "Base game creator fee",
          "_gameCreator": "Game creator address",
          "_gameName": "Game name to add"
        }
      },
      "createTournamentByDAO(uint256,string,uint256,uint256)": {
        "details": "Only ownerIf the proposed game creaetor fee is 0, the base game creator fee is appliedThe prize pool for the tournament that the owner created is initialized on Oparcade contract",
        "params": {
          "_gid": "Game ID",
          "_proposedGameCreatorFee": "Proposed game creator fee",
          "_tournamentCreatorFee": "Tournament creator fee"
        },
        "returns": {
          "tid": "Tournament ID created"
        }
      },
      "createTournamentByDAOWithTokens(uint256,string,uint256,uint256,(address,uint256),address)": {
        "details": "Only ownerIf the proposed game creaetor fee is 0, the base game creator fee is appliedThe prize pool for the tournament that the owner created is initialized on Oparcade contract",
        "params": {
          "_depositToken": "Token to allow/disallow the deposit",
          "_distributionTokenAddress": "Distribution token address to be set to active",
          "_gid": "Game ID",
          "_proposedGameCreatorFee": "Proposed game creator fee",
          "_tournamentCreatorFee": "Tournament creator fee"
        },
        "returns": {
          "tid": "Tournament ID created"
        }
      },
      "createTournamentByUser(uint256,string,uint256,uint256,(address,uint256),(address,uint256),address,uint256,uint256[],uint256[])": {
        "details": "Anyone can create the tournament and initialize the prize pool with tokens and NFTsTournament creator should set all params necessary for the tournament in 1 tx andthe params set is immutable. It will be prevent the fraud tournament is createdTournament creator should pay fees to create the tournamentand the fee token address and fee token amount are set by the ownerIf the proposed game creaetor fee is 0, the base game creator fee is appliedNFT type to initialize the prize pool should be either 721 or 1155",
        "params": {
          "_amountsToAddPrizePool": "NFT token amount list to initialize the prize pool",
          "_depositToken": "Deposit token (address and amount) for playing the tournament",
          "_gid": "Game ID",
          "_nftAddressToAddPrizePool": "NFT address to initialize the prize pool",
          "_nftTypeToAddPrizePool": "NFT type to initialize the prize pool",
          "_proposedGameCreatorFee": "Proposed game creator fee",
          "_tokenIdsToAddPrizePool": "NFT token Id list to initialize the prize pool",
          "_tokenToAddPrizePool": "Token (address and amount) to initialize the prize pool",
          "_tournamentCreatorFee": "Tournament creator fee"
        },
        "returns": {
          "tid": "Tournament ID created"
        }
      },
      "gameCount()": {
        "returns": {
          "_0": "(uint256) Amount of games created"
        }
      },
      "getAppliedGameCreatorFee(uint256,uint256)": {
        "params": {
          "_gid": "Game ID",
          "_tid": "Tournament ID"
        },
        "returns": {
          "_0": "(string) Game applied game creator fee of a tournament"
        }
      },
      "getDepositTokenAmount(uint256,uint256,address)": {
        "params": {
          "_gid": "Game ID",
          "_tid": "Tournament ID",
          "_tokenAddress": "token address"
        },
        "returns": {
          "_0": "(uint256) Tournament deposit token amount"
        }
      },
      "getDepositTokenList(uint256)": {
        "params": {
          "": "(address[]) Deposit token list of the game",
          "_gid": "Game ID"
        }
      },
      "getDistributableTokenList(uint256)": {
        "params": {
          "": "(address[]) Distributable token list of the game",
          "_gid": "Game ID"
        }
      },
      "getGameBaseCreatorFee(uint256)": {
        "params": {
          "_gid": "Game ID"
        },
        "returns": {
          "_0": "(uint256) Game creator fee"
        }
      },
      "getGameCreatorAddress(uint256)": {
        "params": {
          "_gid": "Game ID"
        },
        "returns": {
          "_0": "(string) Game creator address"
        }
      },
      "getGameName(uint256)": {
        "params": {
          "_gid": "Game ID"
        },
        "returns": {
          "_0": "(string) Game name"
        }
      },
      "getTournamentCount(uint256)": {
        "params": {
          "_gid": "Game ID"
        },
        "returns": {
          "_0": "(uint256) Number of the tournament"
        }
      },
      "getTournamentCreator(uint256,uint256)": {
        "params": {
          "_gid": "Game ID",
          "_tid": "Tournament ID"
        },
        "returns": {
          "_0": "(address) Tournament creator address"
        }
      },
      "getTournamentCreatorFee(uint256,uint256)": {
        "params": {
          "_gid": "Game ID",
          "_tid": "Tournament ID"
        },
        "returns": {
          "_0": "(uint256) Tournament creator fee"
        }
      },
      "getTournamentName(uint256,uint256)": {
        "params": {
          "_gid": "Game ID",
          "_tid": "Tournament ID"
        },
        "returns": {
          "_0": "(string) Tournament name"
        }
      },
      "isDistributable(uint256,address)": {
        "params": {
          "_gid": "Game ID",
          "_tokenAddress": "token address"
        },
        "returns": {
          "_0": "(uint256) Is token distributable"
        }
      },
      "isGameDeprecated(uint256)": {
        "params": {
          "_gid": "Game ID"
        },
        "returns": {
          "_0": "(bool) Is deprecated"
        }
      },
      "owner()": {
        "details": "Returns the address of the current owner."
      },
      "removeGame(uint256)": {
        "details": "Game is not removed from the games array, just set it deprecated",
        "params": {
          "_gid": "Game ID"
        }
      },
      "renounceOwnership()": {
        "details": "Leaves the contract without owner. It will not be possible to call `onlyOwner` functions anymore. Can only be called by the current owner. NOTE: Renouncing ownership will leave the contract without an owner, thereby removing any functionality that is only available to the owner."
      },
      "transferOwnership(address)": {
        "details": "Transfers ownership of the contract to a new account (`newOwner`). Can only be called by the current owner."
      },
      "updateBaseGameCreatorFee(uint256,uint256)": {
        "details": "Tournament creator fee is the royality that will be transferred to the tournament creator addressTournament creator can propose the game creator fee when creating the tournamentbut it can't be less than the base game creator fee",
        "params": {
          "_baseGameCreatorFee": "Base game creator fee",
          "_gid": "Game ID"
        }
      },
      "updateDepositTokenAmount(uint256,uint256,address,uint256)": {
        "details": "Only ownerOnly tokens with an amount greater than zero is valid for the deposit",
        "params": {
          "_amount": "Token amount",
          "_gid": "Game ID",
          "_tid": "Tournament ID",
          "_token": "Token address to allow/disallow the deposit"
        }
      },
      "updateDistributableTokenAddress(uint256,address,bool)": {
        "details": "Only owner",
        "params": {
          "_gid": "Game ID",
          "_isDistributable": "true: distributable false: not distributable",
          "_token": "Token address to allow/disallow the deposit"
        }
      },
      "updateGameCreator(uint256,address)": {
        "params": {
          "_gameCreator": "Game creator address",
          "_gid": "Game ID"
        }
      },
      "updatePlatformFee(address,uint256)": {
        "details": "Only ownerAllow zero recipient address only of fee is also zero",
        "params": {
          "_feeRecipient": "Platform fee recipient address",
          "_platformFee": "platform fee"
        }
      },
      "updateTournamentCreationFee(address,uint256)": {
        "details": "Only ownerTournament creator should pay this fee when creating the tournament",
        "params": {
          "_tournamentCreationFeeAmount": "Fee token amount",
          "_tournamentCreationFeeToken": "Fee token address"
        }
      }
    },
    "stateVariables": {
      "MAX_PERMILLAGE": {
        "details": "Max fee constant in permillage (percentage * 10)"
      },
      "addressRegistry": {
        "details": "AddressRegistry"
      },
      "feeRecipient": {
        "details": "Platform fee recipient"
      },
      "games": {
        "details": "Game name array"
      },
      "platformFee": {
        "details": "Platform fee"
      },
      "tournamentCreationFeeAmount": {
        "details": "Tournament creation fee token amount"
      },
      "tournamentCreationFeeToken": {
        "details": "Tournament creation fee token address"
      }
    },
    "title": "GameRegistry",
    "version": 1
  },
  "userdoc": {
    "kind": "user",
    "methods": {
      "addGame(string,address,uint256)": {
        "notice": "Add the new game"
      },
      "createTournamentByDAO(uint256,string,uint256,uint256)": {
        "notice": "Create the tournament"
      },
      "createTournamentByDAOWithTokens(uint256,string,uint256,uint256,(address,uint256),address)": {
        "notice": "Create the tournament and set tokens"
      },
      "createTournamentByUser(uint256,string,uint256,uint256,(address,uint256),(address,uint256),address,uint256,uint256[],uint256[])": {
        "notice": "Create the tournament"
      },
      "gameCount()": {
        "notice": "Returns the number of games created"
      },
      "getAppliedGameCreatorFee(uint256,uint256)": {
        "notice": "Returns the applied game creator fee of the specific tournament"
      },
      "getDepositTokenAmount(uint256,uint256,address)": {
        "notice": "Returns the deposit token amount of the specific tournament"
      },
      "getDepositTokenList(uint256)": {
        "notice": "Returns the deposit token list of the game"
      },
      "getDistributableTokenList(uint256)": {
        "notice": "Returns the distributable token list of the game"
      },
      "getGameBaseCreatorFee(uint256)": {
        "notice": "Returns the game creator fee"
      },
      "getGameCreatorAddress(uint256)": {
        "notice": "Returns the game creator address"
      },
      "getGameName(uint256)": {
        "notice": "Returns the game name"
      },
      "getTournamentCount(uint256)": {
        "notice": "Returns the number of the tournaments of the specific game"
      },
      "getTournamentCreator(uint256,uint256)": {
        "notice": "Returns the tournament creator address of the specific tournament"
      },
      "getTournamentCreatorFee(uint256,uint256)": {
        "notice": "Returns the tournament creator fee of the specific tournament"
      },
      "getTournamentName(uint256,uint256)": {
        "notice": "Returns the tournament name of the specific tournament"
      },
      "isDistributable(uint256,address)": {
        "notice": "Returns true if the token of a specific game is distributable, false otherwise"
      },
      "isGameDeprecated(uint256)": {
        "notice": "Returns a boolean indicating if a specific game is deprecated"
      },
      "removeGame(uint256)": {
        "notice": "Remove the exising game"
      },
      "updateBaseGameCreatorFee(uint256,uint256)": {
        "notice": "Update the base game creator fee"
      },
      "updateDepositTokenAmount(uint256,uint256,address,uint256)": {
        "notice": "Update deposit token amount"
      },
      "updateDistributableTokenAddress(uint256,address,bool)": {
        "notice": "Update distributable token address"
      },
      "updateGameCreator(uint256,address)": {
        "notice": "Update the game creator"
      },
      "updatePlatformFee(address,uint256)": {
        "notice": "Update the platform fee"
      },
      "updateTournamentCreationFee(address,uint256)": {
        "notice": "Update the tournament creation fee"
      }
    },
    "notice": "This contract stores all info related to the game and tournament creation",
    "version": 1
  },
  "storageLayout": {
    "storage": [
      {
        "astId": 130,
        "contract": "contracts/GameRegistry.sol:GameRegistry",
        "label": "_initialized",
        "offset": 0,
        "slot": "0",
        "type": "t_bool"
      },
      {
        "astId": 133,
        "contract": "contracts/GameRegistry.sol:GameRegistry",
        "label": "_initializing",
        "offset": 1,
        "slot": "0",
        "type": "t_bool"
      },
      {
        "astId": 1413,
        "contract": "contracts/GameRegistry.sol:GameRegistry",
        "label": "__gap",
        "offset": 0,
        "slot": "1",
        "type": "t_array(t_uint256)50_storage"
      },
      {
        "astId": 10,
        "contract": "contracts/GameRegistry.sol:GameRegistry",
        "label": "_owner",
        "offset": 0,
        "slot": "51",
        "type": "t_address"
      },
      {
        "astId": 123,
        "contract": "contracts/GameRegistry.sol:GameRegistry",
        "label": "__gap",
        "offset": 0,
        "slot": "52",
        "type": "t_array(t_uint256)49_storage"
      },
      {
        "astId": 6394,
        "contract": "contracts/GameRegistry.sol:GameRegistry",
        "label": "games",
        "offset": 0,
        "slot": "101",
        "type": "t_array(t_struct(Game)6389_storage)dyn_storage"
      },
      {
        "astId": 6398,
        "contract": "contracts/GameRegistry.sol:GameRegistry",
        "label": "addressRegistry",
        "offset": 0,
        "slot": "102",
        "type": "t_contract(IAddressRegistry)9529"
      },
      {
        "astId": 6401,
        "contract": "contracts/GameRegistry.sol:GameRegistry",
        "label": "feeRecipient",
        "offset": 0,
        "slot": "103",
        "type": "t_address"
      },
      {
        "astId": 6404,
        "contract": "contracts/GameRegistry.sol:GameRegistry",
        "label": "platformFee",
        "offset": 0,
        "slot": "104",
        "type": "t_uint256"
      },
      {
        "astId": 6407,
        "contract": "contracts/GameRegistry.sol:GameRegistry",
        "label": "tournamentCreationFeeToken",
        "offset": 0,
        "slot": "105",
        "type": "t_address"
      },
      {
        "astId": 6410,
        "contract": "contracts/GameRegistry.sol:GameRegistry",
        "label": "tournamentCreationFeeAmount",
        "offset": 0,
        "slot": "106",
        "type": "t_uint256"
      }
    ],
    "types": {
      "t_address": {
        "encoding": "inplace",
        "label": "address",
        "numberOfBytes": "20"
      },
      "t_array(t_address)dyn_storage": {
        "base": "t_address",
        "encoding": "dynamic_array",
        "label": "address[]",
        "numberOfBytes": "32"
      },
      "t_array(t_struct(Game)6389_storage)dyn_storage": {
        "base": "t_struct(Game)6389_storage",
        "encoding": "dynamic_array",
        "label": "struct GameRegistry.Game[]",
        "numberOfBytes": "32"
      },
      "t_array(t_uint256)49_storage": {
        "base": "t_uint256",
        "encoding": "inplace",
        "label": "uint256[49]",
        "numberOfBytes": "1568"
      },
      "t_array(t_uint256)50_storage": {
        "base": "t_uint256",
        "encoding": "inplace",
        "label": "uint256[50]",
        "numberOfBytes": "1600"
      },
      "t_bool": {
        "encoding": "inplace",
        "label": "bool",
        "numberOfBytes": "1"
      },
      "t_contract(IAddressRegistry)9529": {
        "encoding": "inplace",
        "label": "contract IAddressRegistry",
        "numberOfBytes": "20"
      },
      "t_mapping(t_address,t_bool)": {
        "encoding": "mapping",
        "key": "t_address",
        "label": "mapping(address => bool)",
        "numberOfBytes": "32",
        "value": "t_bool"
      },
      "t_mapping(t_address,t_uint256)": {
        "encoding": "mapping",
        "key": "t_address",
        "label": "mapping(address => uint256)",
        "numberOfBytes": "32",
        "value": "t_uint256"
      },
      "t_mapping(t_uint256,t_struct(Tournament)6362_storage)": {
        "encoding": "mapping",
        "key": "t_uint256",
        "label": "mapping(uint256 => struct GameRegistry.Tournament)",
        "numberOfBytes": "32",
        "value": "t_struct(Tournament)6362_storage"
      },
      "t_string_storage": {
        "encoding": "bytes",
        "label": "string",
        "numberOfBytes": "32"
      },
      "t_struct(Game)6389_storage": {
        "encoding": "inplace",
        "label": "struct GameRegistry.Game",
        "members": [
          {
            "astId": 6364,
            "contract": "contracts/GameRegistry.sol:GameRegistry",
            "label": "name",
            "offset": 0,
            "slot": "0",
            "type": "t_string_storage"
          },
          {
            "astId": 6366,
            "contract": "contracts/GameRegistry.sol:GameRegistry",
            "label": "creatorAddress",
            "offset": 0,
            "slot": "1",
            "type": "t_address"
          },
          {
            "astId": 6368,
            "contract": "contracts/GameRegistry.sol:GameRegistry",
            "label": "baseCreatorFee",
            "offset": 0,
            "slot": "2",
            "type": "t_uint256"
          },
          {
            "astId": 6370,
            "contract": "contracts/GameRegistry.sol:GameRegistry",
            "label": "isDeprecated",
            "offset": 0,
            "slot": "3",
            "type": "t_bool"
          },
          {
            "astId": 6373,
            "contract": "contracts/GameRegistry.sol:GameRegistry",
            "label": "distributableTokenList",
            "offset": 0,
            "slot": "4",
            "type": "t_array(t_address)dyn_storage"
          },
          {
            "astId": 6376,
            "contract": "contracts/GameRegistry.sol:GameRegistry",
            "label": "depositTokenList",
            "offset": 0,
            "slot": "5",
            "type": "t_array(t_address)dyn_storage"
          },
          {
            "astId": 6381,
            "contract": "contracts/GameRegistry.sol:GameRegistry",
            "label": "tournaments",
            "offset": 0,
            "slot": "6",
            "type": "t_mapping(t_uint256,t_struct(Tournament)6362_storage)"
          },
          {
            "astId": 6383,
            "contract": "contracts/GameRegistry.sol:GameRegistry",
            "label": "tournamentsCount",
            "offset": 0,
            "slot": "7",
            "type": "t_uint256"
          },
          {
            "astId": 6388,
            "contract": "contracts/GameRegistry.sol:GameRegistry",
            "label": "distributable",
            "offset": 0,
            "slot": "8",
            "type": "t_mapping(t_address,t_bool)"
          }
        ],
        "numberOfBytes": "288"
      },
      "t_struct(Tournament)6362_storage": {
        "encoding": "inplace",
        "label": "struct GameRegistry.Tournament",
        "members": [
          {
            "astId": 6350,
            "contract": "contracts/GameRegistry.sol:GameRegistry",
            "label": "name",
            "offset": 0,
            "slot": "0",
            "type": "t_string_storage"
          },
          {
            "astId": 6352,
            "contract": "contracts/GameRegistry.sol:GameRegistry",
            "label": "creatorAddress",
            "offset": 0,
            "slot": "1",
            "type": "t_address"
          },
          {
            "astId": 6354,
            "contract": "contracts/GameRegistry.sol:GameRegistry",
            "label": "creatorFee",
            "offset": 0,
            "slot": "2",
            "type": "t_uint256"
          },
          {
            "astId": 6356,
            "contract": "contracts/GameRegistry.sol:GameRegistry",
            "label": "appliedGameCreatorFee",
            "offset": 0,
            "slot": "3",
            "type": "t_uint256"
          },
          {
            "astId": 6361,
            "contract": "contracts/GameRegistry.sol:GameRegistry",
            "label": "depositTokenAmount",
            "offset": 0,
            "slot": "4",
            "type": "t_mapping(t_address,t_uint256)"
          }
        ],
        "numberOfBytes": "160"
      },
      "t_uint256": {
        "encoding": "inplace",
        "label": "uint256",
        "numberOfBytes": "32"
      }
    }
  }
}