{
  "address": "0xf578664dD86F58b7A3630c5429f4357FE189A023",
  "abi": [
    {
      "anonymous": false,
      "inputs": [
        {
          "indexed": false,
          "internalType": "address",
          "name": "by",
          "type": "address"
        },
        {
          "indexed": false,
          "internalType": "address",
          "name": "from",
          "type": "address"
        },
        {
          "indexed": true,
          "internalType": "uint256",
          "name": "gid",
          "type": "uint256"
        },
        {
          "indexed": true,
          "internalType": "uint256",
          "name": "tid",
          "type": "uint256"
        },
        {
          "indexed": true,
          "internalType": "address",
          "name": "nftAddress",
          "type": "address"
        },
        {
          "indexed": false,
          "internalType": "uint256",
          "name": "nftType",
          "type": "uint256"
        },
        {
          "indexed": false,
          "internalType": "uint256[]",
          "name": "tokenIds",
          "type": "uint256[]"
        },
        {
          "indexed": false,
          "internalType": "uint256[]",
          "name": "amounts",
          "type": "uint256[]"
        }
      ],
      "name": "NFTPrizeDeposited",
      "type": "event"
    },
    {
      "anonymous": false,
      "inputs": [
        {
          "indexed": false,
          "internalType": "address",
          "name": "by",
          "type": "address"
        },
        {
          "indexed": false,
          "internalType": "address[]",
          "name": "winners",
          "type": "address[]"
        },
        {
          "indexed": true,
          "internalType": "uint256",
          "name": "gid",
          "type": "uint256"
        },
        {
          "indexed": true,
          "internalType": "uint256",
          "name": "tid",
          "type": "uint256"
        },
        {
          "indexed": true,
          "internalType": "address",
          "name": "nftAddress",
          "type": "address"
        },
        {
          "indexed": false,
          "internalType": "uint256",
          "name": "nftType",
          "type": "uint256"
        },
        {
          "indexed": false,
          "internalType": "uint256[]",
          "name": "tokenIds",
          "type": "uint256[]"
        },
        {
          "indexed": false,
          "internalType": "uint256[]",
          "name": "amounts",
          "type": "uint256[]"
        }
      ],
      "name": "NFTPrizeDistributed",
      "type": "event"
    },
    {
      "anonymous": false,
      "inputs": [
        {
          "indexed": false,
          "internalType": "address",
          "name": "by",
          "type": "address"
        },
        {
          "indexed": false,
          "internalType": "address",
          "name": "to",
          "type": "address"
        },
        {
          "indexed": true,
          "internalType": "uint256",
          "name": "gid",
          "type": "uint256"
        },
        {
          "indexed": true,
          "internalType": "uint256",
          "name": "tid",
          "type": "uint256"
        },
        {
          "indexed": true,
          "internalType": "address",
          "name": "nftAddress",
          "type": "address"
        },
        {
          "indexed": false,
          "internalType": "uint256",
          "name": "nftType",
          "type": "uint256"
        },
        {
          "indexed": false,
          "internalType": "uint256[]",
          "name": "tokenIds",
          "type": "uint256[]"
        },
        {
          "indexed": false,
          "internalType": "uint256[]",
          "name": "amounts",
          "type": "uint256[]"
        }
      ],
      "name": "NFTPrizeWithdrawn",
      "type": "event"
    },
    {
      "anonymous": false,
      "inputs": [
        {
          "indexed": true,
          "internalType": "address",
          "name": "previousOwner",
          "type": "address"
        },
        {
          "indexed": true,
          "internalType": "address",
          "name": "newOwner",
          "type": "address"
        }
      ],
      "name": "OwnershipTransferred",
      "type": "event"
    },
    {
      "anonymous": false,
      "inputs": [
        {
          "indexed": false,
          "internalType": "address",
          "name": "account",
          "type": "address"
        }
      ],
      "name": "Paused",
      "type": "event"
    },
    {
      "anonymous": false,
      "inputs": [
        {
          "indexed": false,
          "internalType": "address",
          "name": "by",
          "type": "address"
        },
        {
          "indexed": false,
          "internalType": "address",
          "name": "depositor",
          "type": "address"
        },
        {
          "indexed": true,
          "internalType": "uint256",
          "name": "gid",
          "type": "uint256"
        },
        {
          "indexed": true,
          "internalType": "uint256",
          "name": "tid",
          "type": "uint256"
        },
        {
          "indexed": true,
          "internalType": "address",
          "name": "token",
          "type": "address"
        },
        {
          "indexed": false,
          "internalType": "uint256",
          "name": "amount",
          "type": "uint256"
        }
      ],
      "name": "PrizeDeposited",
      "type": "event"
    },
    {
      "anonymous": false,
      "inputs": [
        {
          "indexed": false,
          "internalType": "address",
          "name": "by",
          "type": "address"
        },
        {
          "indexed": false,
          "internalType": "address[]",
          "name": "winners",
          "type": "address[]"
        },
        {
          "indexed": true,
          "internalType": "uint256",
          "name": "gid",
          "type": "uint256"
        },
        {
          "indexed": true,
          "internalType": "uint256",
          "name": "tid",
          "type": "uint256"
        },
        {
          "indexed": true,
          "internalType": "address",
          "name": "token",
          "type": "address"
        },
        {
          "indexed": false,
          "internalType": "uint256[]",
          "name": "amounts",
          "type": "uint256[]"
        }
      ],
      "name": "PrizeDistributed",
      "type": "event"
    },
    {
      "anonymous": false,
      "inputs": [
        {
          "indexed": false,
          "internalType": "address",
          "name": "by",
          "type": "address"
        },
        {
          "indexed": false,
          "internalType": "address",
          "name": "to",
          "type": "address"
        },
        {
          "indexed": true,
          "internalType": "uint256",
          "name": "gid",
          "type": "uint256"
        },
        {
          "indexed": true,
          "internalType": "uint256",
          "name": "tid",
          "type": "uint256"
        },
        {
          "indexed": true,
          "internalType": "address",
          "name": "token",
          "type": "address"
        },
        {
          "indexed": false,
          "internalType": "uint256",
          "name": "amount",
          "type": "uint256"
        }
      ],
      "name": "PrizeWithdrawn",
      "type": "event"
    },
    {
      "anonymous": false,
      "inputs": [
        {
          "indexed": false,
          "internalType": "address",
          "name": "account",
          "type": "address"
        }
      ],
      "name": "Unpaused",
      "type": "event"
    },
    {
      "anonymous": false,
      "inputs": [
        {
          "indexed": false,
          "internalType": "address",
          "name": "by",
          "type": "address"
        },
        {
          "indexed": true,
          "internalType": "uint256",
          "name": "gid",
          "type": "uint256"
        },
        {
          "indexed": true,
          "internalType": "uint256",
          "name": "tid",
          "type": "uint256"
        },
        {
          "indexed": true,
          "internalType": "address",
          "name": "token",
          "type": "address"
        },
        {
          "indexed": false,
          "internalType": "uint256",
          "name": "amount",
          "type": "uint256"
        }
      ],
      "name": "UserDeposited",
      "type": "event"
    },
    {
      "inputs": [],
      "name": "addressRegistry",
      "outputs": [
        {
          "internalType": "contract IAddressRegistry",
          "name": "",
          "type": "address"
        }
      ],
      "stateMutability": "view",
      "type": "function"
    },
    {
      "inputs": [
        {
          "internalType": "uint256",
          "name": "_gid",
          "type": "uint256"
        },
        {
          "internalType": "uint256",
          "name": "_tid",
          "type": "uint256"
        },
        {
          "internalType": "address",
          "name": "_token",
          "type": "address"
        }
      ],
      "name": "deposit",
      "outputs": [],
      "stateMutability": "nonpayable",
      "type": "function"
    },
    {
      "inputs": [
        {
          "internalType": "address",
          "name": "_from",
          "type": "address"
        },
        {
          "internalType": "uint256",
          "name": "_gid",
          "type": "uint256"
        },
        {
          "internalType": "uint256",
          "name": "_tid",
          "type": "uint256"
        },
        {
          "internalType": "address",
          "name": "_nftAddress",
          "type": "address"
        },
        {
          "internalType": "uint256",
          "name": "_nftType",
          "type": "uint256"
        },
        {
          "internalType": "uint256[]",
          "name": "_tokenIds",
          "type": "uint256[]"
        },
        {
          "internalType": "uint256[]",
          "name": "_amounts",
          "type": "uint256[]"
        }
      ],
      "name": "depositNFTPrize",
      "outputs": [],
      "stateMutability": "nonpayable",
      "type": "function"
    },
    {
      "inputs": [
        {
          "internalType": "address",
          "name": "_depositor",
          "type": "address"
        },
        {
          "internalType": "uint256",
          "name": "_gid",
          "type": "uint256"
        },
        {
          "internalType": "uint256",
          "name": "_tid",
          "type": "uint256"
        },
        {
          "internalType": "address",
          "name": "_token",
          "type": "address"
        },
        {
          "internalType": "uint256",
          "name": "_amount",
          "type": "uint256"
        }
      ],
      "name": "depositPrize",
      "outputs": [],
      "stateMutability": "nonpayable",
      "type": "function"
    },
    {
      "inputs": [
        {
          "internalType": "uint256",
          "name": "_gid",
          "type": "uint256"
        },
        {
          "internalType": "uint256",
          "name": "_tid",
          "type": "uint256"
        },
        {
          "internalType": "address[]",
          "name": "_winners",
          "type": "address[]"
        },
        {
          "internalType": "address",
          "name": "_nftAddress",
          "type": "address"
        },
        {
          "internalType": "uint256",
          "name": "_nftType",
          "type": "uint256"
        },
        {
          "internalType": "uint256[]",
          "name": "_tokenIds",
          "type": "uint256[]"
        },
        {
          "internalType": "uint256[]",
          "name": "_amounts",
          "type": "uint256[]"
        }
      ],
      "name": "distributeNFTPrize",
      "outputs": [],
      "stateMutability": "nonpayable",
      "type": "function"
    },
    {
      "inputs": [
        {
          "internalType": "uint256",
          "name": "_gid",
          "type": "uint256"
        },
        {
          "internalType": "uint256",
          "name": "_tid",
          "type": "uint256"
        },
        {
          "internalType": "address[]",
          "name": "_winners",
          "type": "address[]"
        },
        {
          "internalType": "address",
          "name": "_token",
          "type": "address"
        },
        {
          "internalType": "uint256[]",
          "name": "_amounts",
          "type": "uint256[]"
        }
      ],
      "name": "distributePrize",
      "outputs": [],
      "stateMutability": "nonpayable",
      "type": "function"
    },
    {
      "inputs": [
        {
          "internalType": "address",
          "name": "_addressRegistry",
          "type": "address"
        }
      ],
      "name": "initialize",
      "outputs": [],
      "stateMutability": "nonpayable",
      "type": "function"
    },
    {
      "inputs": [
        {
          "internalType": "address",
          "name": "",
          "type": "address"
        },
        {
          "internalType": "address",
          "name": "",
          "type": "address"
        },
        {
          "internalType": "uint256[]",
          "name": "",
          "type": "uint256[]"
        },
        {
          "internalType": "uint256[]",
          "name": "",
          "type": "uint256[]"
        },
        {
          "internalType": "bytes",
          "name": "",
          "type": "bytes"
        }
      ],
      "name": "onERC1155BatchReceived",
      "outputs": [
        {
          "internalType": "bytes4",
          "name": "",
          "type": "bytes4"
        }
      ],
      "stateMutability": "nonpayable",
      "type": "function"
    },
    {
      "inputs": [
        {
          "internalType": "address",
          "name": "",
          "type": "address"
        },
        {
          "internalType": "address",
          "name": "",
          "type": "address"
        },
        {
          "internalType": "uint256",
          "name": "",
          "type": "uint256"
        },
        {
          "internalType": "uint256",
          "name": "",
          "type": "uint256"
        },
        {
          "internalType": "bytes",
          "name": "",
          "type": "bytes"
        }
      ],
      "name": "onERC1155Received",
      "outputs": [
        {
          "internalType": "bytes4",
          "name": "",
          "type": "bytes4"
        }
      ],
      "stateMutability": "nonpayable",
      "type": "function"
    },
    {
      "inputs": [
        {
          "internalType": "address",
          "name": "",
          "type": "address"
        },
        {
          "internalType": "address",
          "name": "",
          "type": "address"
        },
        {
          "internalType": "uint256",
          "name": "",
          "type": "uint256"
        },
        {
          "internalType": "bytes",
          "name": "",
          "type": "bytes"
        }
      ],
      "name": "onERC721Received",
      "outputs": [
        {
          "internalType": "bytes4",
          "name": "",
          "type": "bytes4"
        }
      ],
      "stateMutability": "nonpayable",
      "type": "function"
    },
    {
      "inputs": [],
      "name": "owner",
      "outputs": [
        {
          "internalType": "address",
          "name": "",
          "type": "address"
        }
      ],
      "stateMutability": "view",
      "type": "function"
    },
    {
      "inputs": [],
      "name": "pause",
      "outputs": [],
      "stateMutability": "nonpayable",
      "type": "function"
    },
    {
      "inputs": [],
      "name": "paused",
      "outputs": [
        {
          "internalType": "bool",
          "name": "",
          "type": "bool"
        }
      ],
      "stateMutability": "view",
      "type": "function"
    },
    {
      "inputs": [],
      "name": "renounceOwnership",
      "outputs": [],
      "stateMutability": "nonpayable",
      "type": "function"
    },
    {
      "inputs": [
        {
          "internalType": "bytes4",
          "name": "interfaceId",
          "type": "bytes4"
        }
      ],
      "name": "supportsInterface",
      "outputs": [
        {
          "internalType": "bool",
          "name": "",
          "type": "bool"
        }
      ],
      "stateMutability": "view",
      "type": "function"
    },
    {
      "inputs": [
        {
          "internalType": "uint256",
          "name": "",
          "type": "uint256"
        },
        {
          "internalType": "uint256",
          "name": "",
          "type": "uint256"
        },
        {
          "internalType": "address",
          "name": "",
          "type": "address"
        }
      ],
      "name": "tournamentTokens",
      "outputs": [
        {
          "internalType": "uint256",
          "name": "totalUserDeposit",
          "type": "uint256"
        },
        {
          "internalType": "uint256",
          "name": "totalPrizeDistribution",
          "type": "uint256"
        },
        {
          "internalType": "uint256",
          "name": "totalPrizeFee",
          "type": "uint256"
        },
        {
          "internalType": "uint256",
          "name": "totalPrizeDeposit",
          "type": "uint256"
        }
      ],
      "stateMutability": "view",
      "type": "function"
    },
    {
      "inputs": [
        {
          "internalType": "address",
          "name": "newOwner",
          "type": "address"
        }
      ],
      "name": "transferOwnership",
      "outputs": [],
      "stateMutability": "nonpayable",
      "type": "function"
    },
    {
      "inputs": [],
      "name": "unpause",
      "outputs": [],
      "stateMutability": "nonpayable",
      "type": "function"
    },
    {
      "inputs": [
        {
          "internalType": "address",
          "name": "_to",
          "type": "address"
        },
        {
          "internalType": "uint256",
          "name": "_gid",
          "type": "uint256"
        },
        {
          "internalType": "uint256",
          "name": "_tid",
          "type": "uint256"
        },
        {
          "internalType": "address",
          "name": "_nftAddress",
          "type": "address"
        },
        {
          "internalType": "uint256",
          "name": "_nftType",
          "type": "uint256"
        },
        {
          "internalType": "uint256[]",
          "name": "_tokenIds",
          "type": "uint256[]"
        },
        {
          "internalType": "uint256[]",
          "name": "_amounts",
          "type": "uint256[]"
        }
      ],
      "name": "withdrawNFTPrize",
      "outputs": [],
      "stateMutability": "nonpayable",
      "type": "function"
    },
    {
      "inputs": [
        {
          "internalType": "address",
          "name": "_to",
          "type": "address"
        },
        {
          "internalType": "uint256",
          "name": "_gid",
          "type": "uint256"
        },
        {
          "internalType": "uint256",
          "name": "_tid",
          "type": "uint256"
        },
        {
          "internalType": "address",
          "name": "_token",
          "type": "address"
        },
        {
          "internalType": "uint256",
          "name": "_amount",
          "type": "uint256"
        }
      ],
      "name": "withdrawPrize",
      "outputs": [],
      "stateMutability": "nonpayable",
      "type": "function"
    }
  ],
  "transactionHash": "0x5311d6ca5b41ea1eb0b06c7feb6aa67a80d78c50dd0b1b44c7fd20e766091782",
  "args": [],
  "numDeployments": 1,
  "solcInputHash": "31b6f9dfa0f1d52218af034e75467bb9",
  "bytecode": "0x608060405234801561001057600080fd5b5061494d806100206000396000f3fe608060405234801561001057600080fd5b506004361061016c5760003560e01c80638da5cb5b116100cd578063c4d66de811610081578063f23a6e6111610066578063f23a6e6114610338578063f2fde38b14610357578063f3ad65f41461036a57600080fd5b8063c4d66de814610312578063e3b2facc1461032557600080fd5b80638f1a33ff116100b25780638f1a33ff14610279578063b3a833b8146102e0578063bc197c81146102f357600080fd5b80638da5cb5b146102415780638dbdbe6d1461026657600080fd5b80635c975abb116101245780638456cb59116101095780638456cb59146102135780638639c9a71461021b5780638bd67fe81461022e57600080fd5b80635c975abb14610200578063715018a61461020b57600080fd5b80631de6ba17116101555780631de6ba17146101d05780633f4ba83a146101e55780634ceba21a146101ed57600080fd5b806301ffc9a714610171578063150b7a0214610199575b600080fd5b61018461017f366004613f4b565b61037e565b60405190151581526020015b60405180910390f35b6101b76101a7366004614041565b630a85bd0160e11b949350505050565b6040516001600160e01b03199091168152602001610190565b6101e36101de3660046140ad565b6103b5565b005b6101e361081d565b6101e36101fb36600461414b565b610881565b60975460ff16610184565b6101e3610c3f565b6101e3610ca3565b6101e36102293660046141e3565b610d05565b6101e361023c3660046140ad565b6118f0565b6033546001600160a01b03165b6040516001600160a01b039091168152602001610190565b6101e36102743660046142b1565b611ae0565b6102c06102873660046142b1565b61019160209081526000938452604080852082529284528284209052825290208054600182015460028301546003909301549192909184565b604080519485526020850193909352918301526060820152608001610190565b6101e36102ee3660046142ea565b611d04565b6101b7610301366004614413565b63bc197c8160e01b95945050505050565b6101e36103203660046144c1565b612481565b6101e36103333660046142ea565b6125ca565b6101b76103463660046144de565b63f23a6e6160e01b95945050505050565b6101e36103653660046144c1565b612daa565b6101935461024e906001600160a01b031681565b60006001600160e01b03198216630271189760e51b14806103af57506301ffc9a760e01b6001600160e01b03198316145b92915050565b6033546001600160a01b0316331480610456575061019360009054906101000a90046001600160a01b03166001600160a01b031663da0907556040518163ffffffff1660e01b8152600401602060405180830381865afa15801561041d573d6000803e3d6000fd5b505050506040513d601f19601f820116820180604052508101906104419190614547565b6001600160a01b0316336001600160a01b0316145b6104a75760405162461bcd60e51b815260206004820152601a60248201527f4f6e6c79206f776e6572206f722047616d65526567697374727900000000000060448201526064015b60405180910390fd5b6001600160a01b0382166104fd5760405162461bcd60e51b815260206004820152601860248201527f556e657870656374656420746f6b656e20616464726573730000000000000000604482015260640161049e565b61019360009054906101000a90046001600160a01b03166001600160a01b031663da0907556040518163ffffffff1660e01b8152600401602060405180830381865afa158015610551573d6000803e3d6000fd5b505050506040513d601f19601f820116820180604052508101906105759190614547565b60405163aba869c560e01b8152600481018690526001600160a01b038481166024830152919091169063aba869c590604401602060405180830381865afa1580156105c4573d6000803e3d6000fd5b505050506040513d601f19601f820116820180604052508101906105e89190614564565b6106345760405162461bcd60e51b815260206004820152601d60248201527f446973616c6c6f77656420646973747269627574696f6e20746f6b656e000000604482015260640161049e565b6040516301ffc9a760e01b81526380ac58cd60e01b60048201526000906001600160a01b038416906301ffc9a790602401602060405180830381865afa92505050801561069e575060408051601f3d908101601f1916820190925261069b91810190614564565b60015b6106aa5750600061071d565b506040516301ffc9a760e01b81526380ac58cd60e01b60048201526001600160a01b038416906301ffc9a790602401602060405180830381865afa1580156106f6573d6000803e3d6000fd5b505050506040513d601f19601f8201168201806040525081019061071a9190614564565b90505b801561076b5760405162461bcd60e51b815260206004820152601860248201527f45524337323120746f6b656e206e6f7420616c6c6f7765640000000000000000604482015260640161049e565b6107806001600160a01b038416873085612e8c565b60008581526101916020908152604080832087845282528083206001600160a01b0387168452909152812060030180548492906107be90849061459c565b9091555050604080513381526001600160a01b03888116602083015291810184905290841690859087907fa555954f2adaf5a353a1db2b9a28e229f872593323659c9f5ab9cc426d0c58a29060600160405180910390a4505050505050565b6033546001600160a01b031633146108775760405162461bcd60e51b815260206004820181905260248201527f4f776e61626c653a2063616c6c6572206973206e6f7420746865206f776e6572604482015260640161049e565b61087f612f12565b565b60975460ff16156108c75760405162461bcd60e51b815260206004820152601060248201526f14185d5cd8589b194e881c185d5cd95960821b604482015260640161049e565b61019360009054906101000a90046001600160a01b03166001600160a01b0316639850d32b6040518163ffffffff1660e01b8152600401602060405180830381865afa15801561091b573d6000803e3d6000fd5b505050506040513d601f19601f8201168201806040525081019061093f9190614547565b6001600160a01b0316336001600160a01b0316146109915760405162461bcd60e51b815260206004820152600f60248201526e27b7363c9036b0b4b73a30b4b732b960891b604482015260640161049e565b8381146109e05760405162461bcd60e51b815260206004820152601e60248201527f4d69736d6174636865642077696e6e65727320616e6420616d6f756e74730000604482015260640161049e565b610193546040805163da09075560e01b815290516000926001600160a01b03169163da0907559160048083019260209291908290030181865afa158015610a2b573d6000803e3d6000fd5b505050506040513d601f19601f82011682018060405250810190610a4f9190614547565b60405163aba869c560e01b8152600481018a90526001600160a01b0386811660248301529192509082169063aba869c590604401602060405180830381865afa158015610aa0573d6000803e3d6000fd5b505050506040513d601f19601f82011682018060405250810190610ac49190614564565b610b105760405162461bcd60e51b815260206004820152601d60248201527f446973616c6c6f77656420646973747269627574696f6e20746f6b656e000000604482015260640161049e565b610b1f88888888888888612fae565b6000888152610191602090815260408083208a845282528083206001600160a01b038816845290915290208054600390910154610b5c919061459c565b6000898152610191602090815260408083208b845282528083206001600160a01b038916845290915290206002810154600190910154610b9c919061459c565b1115610bea5760405162461bcd60e51b815260206004820152601560248201527f5072697a6520616d6f756e742065786365656465640000000000000000000000604482015260640161049e565b836001600160a01b031687897f6b4488e823ebb77fdc3a58bb5cbc1af38a0b2e39ff4dc84c080c08540dcd1ebc338a8a8989604051610c2d95949392919061464c565b60405180910390a45050505050505050565b6033546001600160a01b03163314610c995760405162461bcd60e51b815260206004820181905260248201527f4f776e61626c653a2063616c6c6572206973206e6f7420746865206f776e6572604482015260640161049e565b61087f6000613633565b6033546001600160a01b03163314610cfd5760405162461bcd60e51b815260206004820181905260248201527f4f776e61626c653a2063616c6c6572206973206e6f7420746865206f776e6572604482015260640161049e565b61087f613692565b60975460ff1615610d4b5760405162461bcd60e51b815260206004820152601060248201526f14185d5cd8589b194e881c185d5cd95960821b604482015260640161049e565b60026065541415610d9e5760405162461bcd60e51b815260206004820152601f60248201527f5265656e7472616e637947756172643a207265656e7472616e742063616c6c00604482015260640161049e565b60026065556101935460408051639850d32b60e01b815290516001600160a01b0390921691639850d32b916004808201926020929091908290030181865afa158015610dee573d6000803e3d6000fd5b505050506040513d601f19601f82011682018060405250810190610e129190614547565b6001600160a01b0316336001600160a01b031614610e645760405162461bcd60e51b815260206004820152600f60248201526e27b7363c9036b0b4b73a30b4b732b960891b604482015260640161049e565b61019360009054906101000a90046001600160a01b03166001600160a01b031663da0907556040518163ffffffff1660e01b8152600401602060405180830381865afa158015610eb8573d6000803e3d6000fd5b505050506040513d601f19601f82011682018060405250810190610edc9190614547565b60405163aba869c560e01b8152600481018c90526001600160a01b038881166024830152919091169063aba869c590604401602060405180830381865afa158015610f2b573d6000803e3d6000fd5b505050506040513d601f19601f82011682018060405250810190610f4f9190614564565b610f9b5760405162461bcd60e51b815260206004820152601d60248201527f446973616c6c6f77656420646973747269627574696f6e20746f6b656e000000604482015260640161049e565b846102d11480610fac575084610483145b610fee5760405162461bcd60e51b8152602060048201526013602482015272556e6578706563746564204e4654207479706560681b604482015260640161049e565b8683148015610ffc57508281145b6110485760405162461bcd60e51b815260206004820181905260248201527f4d69736d617463686564204e465420646973747269627574696f6e2064617461604482015260640161049e565b6000856102d11415611440576040516301ffc9a760e01b81526380ac58cd60e01b60048201526001600160a01b038816906301ffc9a790602401602060405180830381865afa15801561109f573d6000803e3d6000fd5b505050506040513d601f19601f820116820180604052508101906110c39190614564565b6111085760405162461bcd60e51b8152602060048201526016602482015275556e6578706563746564204e4654206164647265737360501b604482015260640161049e565b60005b888110156113f45760008c8152610192602090815260408083208e845282528083206001600160a01b038c1684529091528120908787848181106111515761115161468e565b9050602002013581526020019081526020016000206001015460011480156111cf575060008c8152610192602090815260408083208e845282528083206001600160a01b038c1684529091528120908787848181106111b2576111b261468e565b905060200201358152602001908152602001600020600001546000145b61122a5760405162461bcd60e51b815260206004820152602660248201527f4e4654207072697a6520646973747269627574696f6e20616d6f756e7420657860448201526518d95959195960d21b606482015260840161049e565b60008c8152610192602090815260408083208e845282528083206001600160a01b038c168452909152812060019188888581811061126a5761126a61468e565b905060200201358152602001908152602001600020600001819055508383828181106112985761129861468e565b90506020020135826112aa919061459c565b9150876001600160a01b03166342842e0e308c8c858181106112ce576112ce61468e565b90506020020160208101906112e391906144c1565b8989868181106112f5576112f561468e565b6040516001600160e01b031960e088901b1681526001600160a01b03958616600482015294909316602485015250602090910201356044820152606401600060405180830381600087803b15801561134c57600080fd5b505af192505050801561135d575060015b6113e25760008c8152610192602090815260408083208e845282528083206001600160a01b038c16845290915281208188888581811061139f5761139f61468e565b905060200201358152602001908152602001600020600001819055508383828181106113cd576113cd61468e565b90506020020135826113df91906146a4565b91505b806113ec816146bb565b91505061110b565b5080881461143b5760405162461bcd60e51b8152602060048201526014602482015273496e76616c696420616d6f756e742076616c756560601b604482015260640161049e565b61188d565b6040516301ffc9a760e01b8152636cdb3d1360e11b60048201526001600160a01b038816906301ffc9a790602401602060405180830381865afa15801561148b573d6000803e3d6000fd5b505050506040513d601f19601f820116820180604052508101906114af9190614564565b6114f45760405162461bcd60e51b8152602060048201526016602482015275556e6578706563746564204e4654206164647265737360501b604482015260640161049e565b60005b8881101561188b578383828181106115115761151161468e565b9050602002013561019260008e815260200190815260200160002060008d815260200190815260200160002060008a6001600160a01b03166001600160a01b0316815260200190815260200160002060008888858181106115745761157461468e565b9050602002013581526020019081526020016000206000015461019260008f815260200190815260200160002060008e815260200190815260200160002060008b6001600160a01b03166001600160a01b0316815260200190815260200160002060008989868181106115e9576115e961468e565b9050602002013581526020019081526020016000206001015461160c91906146a4565b10156116695760405162461bcd60e51b815260206004820152602660248201527f4e4654207072697a6520646973747269627574696f6e20616d6f756e7420657860448201526518d95959195960d21b606482015260840161049e565b83838281811061167b5761167b61468e565b9050602002013561019260008e815260200190815260200160002060008d815260200190815260200160002060008a6001600160a01b03166001600160a01b0316815260200190815260200160002060008888858181106116de576116de61468e565b9050602002013581526020019081526020016000206000016000828254611705919061459c565b90915550506001600160a01b03881663f242432a308c8c8581811061172c5761172c61468e565b905060200201602081019061174191906144c1565b8989868181106117535761175361468e565b9050602002013588888781811061176c5761176c61468e565b90506020020135604051806020016040528060008152506040518663ffffffff1660e01b81526004016117a395949392919061472e565b600060405180830381600087803b1580156117bd57600080fd5b505af19250505080156117ce575060015b611879578383828181106117e4576117e461468e565b9050602002013561019260008e815260200190815260200160002060008d815260200190815260200160002060008a6001600160a01b03166001600160a01b0316815260200190815260200160002060008888858181106118475761184761468e565b905060200201358152602001908152602001600020600001600082825461186e91906146a4565b909155506118799050565b80611883816146bb565b9150506114f7565b505b866001600160a01b03168a8c7fa825c8731f1dfe5c99472b7e94c839c9e6489ed55d0277366e867d8d88a306cf338d8d8c8c8c8c8c6040516118d6989796959493929190614766565b60405180910390a450506001606555505050505050505050565b61019360009054906101000a90046001600160a01b03166001600160a01b031663d33219b46040518163ffffffff1660e01b8152600401602060405180830381865afa158015611944573d6000803e3d6000fd5b505050506040513d601f19601f820116820180604052508101906119689190614547565b6001600160a01b0316336001600160a01b0316146119c85760405162461bcd60e51b815260206004820152600d60248201527f4f6e6c792074696d656c6f636b00000000000000000000000000000000000000604482015260640161049e565b60008481526101916020908152604080832086845282528083206001600160a01b0386168452909152902060030154811115611a465760405162461bcd60e51b815260206004820152601260248201527f496e73756666696369656e74207072697a650000000000000000000000000000604482015260640161049e565b60008481526101916020908152604080832086845282528083206001600160a01b038616808552925290912060030180548390039055611a8790868361370d565b604080513381526001600160a01b03878116602083015291810183905290831690849086907fe64a3a357c20289b8fff53d7fabedc1fec8b86c76f070a66dd167c055e43e38d9060600160405180910390a45050505050565b60975460ff1615611b265760405162461bcd60e51b815260206004820152601060248201526f14185d5cd8589b194e881c185d5cd95960821b604482015260640161049e565b610193546040805163da09075560e01b815290516000926001600160a01b03169163da0907559160048083019260209291908290030181865afa158015611b71573d6000803e3d6000fd5b505050506040513d601f19601f82011682018060405250810190611b959190614547565b604051633586597160e01b815260048101869052602481018590526001600160a01b0384811660448301529190911690633586597190606401602060405180830381865afa158015611beb573d6000803e3d6000fd5b505050506040513d601f19601f82011682018060405250810190611c0f91906147c6565b905060008111611c615760405162461bcd60e51b815260206004820152601560248201527f496e76616c6964206465706f73697420746f6b656e0000000000000000000000604482015260640161049e565b611c766001600160a01b038316333084612e8c565b60008481526101916020908152604080832086845282528083206001600160a01b038616845290915281208054839290611cb190849061459c565b909155505060408051338152602081018390526001600160a01b03841691859187917f3360a6f28beae2ecd8c3c807e274aaae13fd8264155337e6d0535a44468f0942910160405180910390a450505050565b6033546001600160a01b0316331480611da5575061019360009054906101000a90046001600160a01b03166001600160a01b031663da0907556040518163ffffffff1660e01b8152600401602060405180830381865afa158015611d6c573d6000803e3d6000fd5b505050506040513d601f19601f82011682018060405250810190611d909190614547565b6001600160a01b0316336001600160a01b0316145b611df15760405162461bcd60e51b815260206004820152601a60248201527f4f6e6c79206f776e6572206f722047616d655265676973747279000000000000604482015260640161049e565b61019360009054906101000a90046001600160a01b03166001600160a01b031663da0907556040518163ffffffff1660e01b8152600401602060405180830381865afa158015611e45573d6000803e3d6000fd5b505050506040513d601f19601f82011682018060405250810190611e699190614547565b60405163aba869c560e01b8152600481018a90526001600160a01b038881166024830152919091169063aba869c590604401602060405180830381865afa158015611eb8573d6000803e3d6000fd5b505050506040513d601f19601f82011682018060405250810190611edc9190614564565b611f285760405162461bcd60e51b815260206004820152601d60248201527f446973616c6c6f77656420646973747269627574696f6e20746f6b656e000000604482015260640161049e565b6001600160a01b038616611f775760405162461bcd60e51b8152602060048201526016602482015275556e6578706563746564204e4654206164647265737360501b604482015260640161049e565b846102d11480611f88575084610483145b611fca5760405162461bcd60e51b8152602060048201526013602482015272556e6578706563746564204e4654207479706560681b604482015260640161049e565b8281146120195760405162461bcd60e51b815260206004820152601760248201527f4d69736d617463686564206465706f7369742064617461000000000000000000604482015260640161049e565b6000856102d11415612257576040516301ffc9a760e01b81526380ac58cd60e01b60048201526001600160a01b038816906301ffc9a790602401602060405180830381865afa158015612070573d6000803e3d6000fd5b505050506040513d601f19601f820116820180604052508101906120949190614564565b6120d95760405162461bcd60e51b8152602060048201526016602482015275556e6578706563746564204e4654206164647265737360501b604482015260640161049e565b60005b8481101561220b57876001600160a01b03166342842e0e8c308989868181106121075761210761468e565b6040516001600160e01b031960e088901b1681526001600160a01b03958616600482015294909316602485015250602090910201356044820152606401600060405180830381600087803b15801561215e57600080fd5b505af1158015612172573d6000803e3d6000fd5b50505060008b8152610192602090815260408083208d845282528083206001600160a01b038d168452909152812060019250908888858181106121b7576121b761468e565b905060200201358152602001908152602001600020600101819055508383828181106121e5576121e561468e565b90506020020135826121f7919061459c565b915080612203816146bb565b9150506120dc565b508084146122525760405162461bcd60e51b8152602060048201526014602482015273496e76616c696420616d6f756e742076616c756560601b604482015260640161049e565b612426565b6040516301ffc9a760e01b8152636cdb3d1360e11b60048201526001600160a01b038816906301ffc9a790602401602060405180830381865afa1580156122a2573d6000803e3d6000fd5b505050506040513d601f19601f820116820180604052508101906122c69190614564565b61230b5760405162461bcd60e51b8152602060048201526016602482015275556e6578706563746564204e4654206164647265737360501b604482015260640161049e565b60408051602081018252600081529051631759616b60e11b81526001600160a01b03891691632eb2c2d69161234f918e9130918b918b918b918b91906004016147df565b600060405180830381600087803b15801561236957600080fd5b505af115801561237d573d6000803e3d6000fd5b5050505060005b848110156124245783838281811061239e5761239e61468e565b60008d8152610192602090815260408083208f845282528083206001600160a01b038f1684528252822092029390930135929091508888858181106123e5576123e561468e565b905060200201358152602001908152602001600020600101600082825461240c919061459c565b9091555081905061241c816146bb565b915050612384565b505b866001600160a01b0316888a7f8aa5f867116bd0007022fe5e2205d78c5a5922c47331762e9e69ce2c9a8f6a95338e8b8b8b8b8b60405161246d9796959493929190614841565b60405180910390a450505050505050505050565b600054610100900460ff168061249a575060005460ff16155b6124eb5760405162461bcd60e51b815260206004820152602e60248201526000805160206148f883398151915260448201526d191e481a5b9a5d1a585b1a5e995960921b606482015260840161049e565b600054610100900460ff1615801561250d576000805461ffff19166101011790555b612515613742565b61251d6137f2565b612525613886565b61252d613922565b6125356139b6565b6001600160a01b03821661258b5760405162461bcd60e51b815260206004820152601760248201527f496e76616c696420416464726573735265676973747279000000000000000000604482015260640161049e565b610193805473ffffffffffffffffffffffffffffffffffffffff19166001600160a01b03841617905580156125c6576000805461ff00191690555b5050565b6002606554141561261d5760405162461bcd60e51b815260206004820152601f60248201527f5265656e7472616e637947756172643a207265656e7472616e742063616c6c00604482015260640161049e565b60026065556033546001600160a01b0316331461267c5760405162461bcd60e51b815260206004820181905260248201527f4f776e61626c653a2063616c6c6572206973206e6f7420746865206f776e6572604482015260640161049e565b846102d1148061268d575084610483145b6126cf5760405162461bcd60e51b8152602060048201526013602482015272556e6578706563746564204e4654207479706560681b604482015260640161049e565b82811461271e5760405162461bcd60e51b815260206004820152601760248201527f4d69736d617463686564206465706f7369742064617461000000000000000000604482015260640161049e565b6000856102d11415612a61576040516301ffc9a760e01b81526380ac58cd60e01b60048201526001600160a01b038816906301ffc9a790602401602060405180830381865afa158015612775573d6000803e3d6000fd5b505050506040513d601f19601f820116820180604052508101906127999190614564565b6127de5760405162461bcd60e51b8152602060048201526016602482015275556e6578706563746564204e4654206164647265737360501b604482015260640161049e565b60005b84811015612a155760008a8152610192602090815260408083208c845282528083206001600160a01b038c1684529091528120908787848181106128275761282761468e565b602090810292909201358352508181019290925260409081016000908120548d825261019284528282208d835284528282206001600160a01b038d1683529093529081209088888581811061287e5761287e61468e565b905060200201358152602001908152602001600020600101546128a191906146a4565b6001146128f05760405162461bcd60e51b815260206004820152601660248201527f496e73756666696369656e74204e4654207072697a6500000000000000000000604482015260640161049e565b60008a8152610192602090815260408083208c845282528083206001600160a01b038c16845290915281208188888581811061292e5761292e61468e565b9050602002013581526020019081526020016000206001018190555083838281811061295c5761295c61468e565b905060200201358261296e919061459c565b9150876001600160a01b03166342842e0e308d8989868181106129935761299361468e565b6040516001600160e01b031960e088901b1681526001600160a01b03958616600482015294909316602485015250602090910201356044820152606401600060405180830381600087803b1580156129ea57600080fd5b505af11580156129fe573d6000803e3d6000fd5b505050508080612a0d906146bb565b9150506127e1565b50808414612a5c5760405162461bcd60e51b8152602060048201526014602482015273496e76616c696420616d6f756e742076616c756560601b604482015260640161049e565b612d4a565b6040516301ffc9a760e01b8152636cdb3d1360e11b60048201526001600160a01b038816906301ffc9a790602401602060405180830381865afa158015612aac573d6000803e3d6000fd5b505050506040513d601f19601f82011682018060405250810190612ad09190614564565b612b155760405162461bcd60e51b8152602060048201526016602482015275556e6578706563746564204e4654206164647265737360501b604482015260640161049e565b60005b84811015612cd257838382818110612b3257612b3261468e565b60008d8152610192602090815260408083208f845282528083206001600160a01b038f168452825282209202939093013592909150888885818110612b7957612b7961468e565b602090810292909201358352508181019290925260409081016000908120548e825261019284528282208e835284528282206001600160a01b038e16835290935290812090898986818110612bd057612bd061468e565b90506020020135815260200190815260200160002060010154612bf391906146a4565b1015612c415760405162461bcd60e51b815260206004820152601660248201527f496e73756666696369656e74204e4654207072697a6500000000000000000000604482015260640161049e565b838382818110612c5357612c5361468e565b60008d8152610192602090815260408083208f845282528083206001600160a01b038f168452825282209202939093013592909150888885818110612c9a57612c9a61468e565b905060200201358152602001908152602001600020600101600082825403925050819055508080612cca906146bb565b915050612b18565b5060408051602081018252600081529051631759616b60e11b81526001600160a01b03891691632eb2c2d691612d179130918f918b918b918b918b91906004016147df565b600060405180830381600087803b158015612d3157600080fd5b505af1158015612d45573d6000803e3d6000fd5b505050505b866001600160a01b0316888a7f5a8dca5c67110aaf25dc3f613084907009569128e7e31216a0802dce0db9c784338e8b8b8b8b8b604051612d919796959493929190614841565b60405180910390a4505060016065555050505050505050565b6033546001600160a01b03163314612e045760405162461bcd60e51b815260206004820181905260248201527f4f776e61626c653a2063616c6c6572206973206e6f7420746865206f776e6572604482015260640161049e565b6001600160a01b038116612e805760405162461bcd60e51b815260206004820152602660248201527f4f776e61626c653a206e6577206f776e657220697320746865207a65726f206160448201527f6464726573730000000000000000000000000000000000000000000000000000606482015260840161049e565b612e8981613633565b50565b6040516001600160a01b0380851660248301528316604482015260648101829052612f0c9085906323b872dd60e01b906084015b60408051601f198184030181529190526020810180517bffffffffffffffffffffffffffffffffffffffffffffffffffffffff166001600160e01b031990931692909217909152613a52565b50505050565b60975460ff16612f645760405162461bcd60e51b815260206004820152601460248201527f5061757361626c653a206e6f7420706175736564000000000000000000000000604482015260640161049e565b6097805460ff191690557f5db9ee0a495bf2e6ff9c91a7834c1ba4fdd244a5e8aa4e537bd38aeae4b073aa335b6040516001600160a01b03909116815260200160405180910390a1565b610193546040805163da09075560e01b815290516000926001600160a01b03169163da0907559160048083019260209291908290030181865afa158015612ff9573d6000803e3d6000fd5b505050506040513d601f19601f8201168201806040525081019061301d9190614547565b90506000806000805b888110156134505760008a8a838181106130425761304261468e565b905060200201602081019061305791906144c1565b6001600160a01b031614156130ae5760405162461bcd60e51b815260206004820181905260248201527f57696e6e657220616464726573732073686f756c6420626520646566696e6564604482015260640161049e565b8686828181106130c0576130c061468e565b905060200201356000141561313d5760405162461bcd60e51b815260206004820152602960248201527f57696e6e657220616d6f756e742073686f756c6420626520677265617465722060448201527f7468616e207a65726f0000000000000000000000000000000000000000000000606482015260840161049e565b60008787838181106131515761315161468e565b90506020020135905060006103e8876001600160a01b03166326232a2e6040518163ffffffff1660e01b81526004016020604051808303816000875af115801561319f573d6000803e3d6000fd5b505050506040513d601f19601f820116820180604052508101906131c391906147c6565b8a8a868181106131d5576131d561468e565b905060200201356131e69190614887565b6131f091906148a6565b90506131fc818761459c565b955061320881836146a4565b9150506000866001600160a01b031663a7ab05498f8f6040518363ffffffff1660e01b8152600401613244929190918252602082015260400190565b602060405180830381865afa158015613261573d6000803e3d6000fd5b505050506040513d601f19601f8201168201806040525081019061328591906147c6565b905060006103e8828b8b8781811061329f5761329f61468e565b905060200201356132b09190614887565b6132ba91906148a6565b90506132c6818761459c565b95506132d281846146a4565b925050506000866001600160a01b03166322871dcd8f8f6040518363ffffffff1660e01b815260040161330f929190918252602082015260400190565b602060405180830381865afa15801561332c573d6000803e3d6000fd5b505050506040513d601f19601f8201168201806040525081019061335091906147c6565b905060006103e8828b8b8781811061336a5761336a61468e565b9050602002013561337b9190614887565b61338591906148a6565b9050613391818661459c565b945061339d81846146a4565b925050508061019160008f815260200190815260200160002060008e815260200190815260200160002060008b6001600160a01b03166001600160a01b0316815260200190815260200160002060010160008282546133fc919061459c565b9091555061343d90508b8b848181106134175761341761468e565b905060200201602081019061342c91906144c1565b6001600160a01b038b16908361370d565b5080613448816146bb565b915050613026565b508061345c838561459c565b613466919061459c565b60008c8152610191602090815260408083208e845282528083206001600160a01b038c168452909152812060020180549091906134a490849061459c565b92505081905550613523846001600160a01b031663469048406040518163ffffffff1660e01b81526004016020604051808303816000875af11580156134ee573d6000803e3d6000fd5b505050506040513d601f19601f820116820180604052508101906135129190614547565b6001600160a01b038916908561370d565b6040516366f4688560e11b8152600481018c90526135a1906001600160a01b0386169063cde8d10a90602401602060405180830381865afa15801561356c573d6000803e3d6000fd5b505050506040513d601f19601f820116820180604052508101906135909190614547565b6001600160a01b038916908461370d565b60405163f406c2d160e01b8152600481018c9052602481018b9052613626906001600160a01b0386169063f406c2d190604401602060405180830381865afa1580156135f1573d6000803e3d6000fd5b505050506040513d601f19601f820116820180604052508101906136159190614547565b6001600160a01b038916908361370d565b5050505050505050505050565b603380546001600160a01b0383811673ffffffffffffffffffffffffffffffffffffffff19831681179093556040519116919082907f8be0079c531659141344cd1fd0a4f28419497f9722a3daafe3b4186f6b6457e090600090a35050565b60975460ff16156136d85760405162461bcd60e51b815260206004820152601060248201526f14185d5cd8589b194e881c185d5cd95960821b604482015260640161049e565b6097805460ff191660011790557f62e78cea01bee320cd4e420270b5ea74000d11b0c9f74754ebdbfc544b05a258612f913390565b6040516001600160a01b03831660248201526044810182905261373d90849063a9059cbb60e01b90606401612ec0565b505050565b600054610100900460ff168061375b575060005460ff16155b6137ac5760405162461bcd60e51b815260206004820152602e60248201526000805160206148f883398151915260448201526d191e481a5b9a5d1a585b1a5e995960921b606482015260840161049e565b600054610100900460ff161580156137ce576000805461ffff19166101011790555b6137d6613b37565b6137de613bd6565b8015612e89576000805461ff001916905550565b600054610100900460ff168061380b575060005460ff16155b61385c5760405162461bcd60e51b815260206004820152602e60248201526000805160206148f883398151915260448201526d191e481a5b9a5d1a585b1a5e995960921b606482015260840161049e565b600054610100900460ff1615801561387e576000805461ffff19166101011790555b6137de613c6b565b600054610100900460ff168061389f575060005460ff16155b6138f05760405162461bcd60e51b815260206004820152602e60248201526000805160206148f883398151915260448201526d191e481a5b9a5d1a585b1a5e995960921b606482015260840161049e565b600054610100900460ff16158015613912576000805461ffff19166101011790555b61391a613b37565b6137de613d10565b600054610100900460ff168061393b575060005460ff16155b61398c5760405162461bcd60e51b815260206004820152602e60248201526000805160206148f883398151915260448201526d191e481a5b9a5d1a585b1a5e995960921b606482015260840161049e565b600054610100900460ff161580156139ae576000805461ffff19166101011790555b6137de613b37565b600054610100900460ff16806139cf575060005460ff16155b613a205760405162461bcd60e51b815260206004820152602e60248201526000805160206148f883398151915260448201526d191e481a5b9a5d1a585b1a5e995960921b606482015260840161049e565b600054610100900460ff16158015613a42576000805461ffff19166101011790555b613a4a613b37565b6139ae613b37565b6000613aa7826040518060400160405280602081526020017f5361666545524332303a206c6f772d6c6576656c2063616c6c206661696c6564815250856001600160a01b0316613dba9092919063ffffffff16565b80519091501561373d5780806020019051810190613ac59190614564565b61373d5760405162461bcd60e51b815260206004820152602a60248201527f5361666545524332303a204552433230206f7065726174696f6e20646964206e60448201527f6f74207375636365656400000000000000000000000000000000000000000000606482015260840161049e565b600054610100900460ff1680613b50575060005460ff16155b613ba15760405162461bcd60e51b815260206004820152602e60248201526000805160206148f883398151915260448201526d191e481a5b9a5d1a585b1a5e995960921b606482015260840161049e565b600054610100900460ff161580156137de576000805461ffff19166101011790558015612e89576000805461ff001916905550565b600054610100900460ff1680613bef575060005460ff16155b613c405760405162461bcd60e51b815260206004820152602e60248201526000805160206148f883398151915260448201526d191e481a5b9a5d1a585b1a5e995960921b606482015260840161049e565b600054610100900460ff16158015613c62576000805461ffff19166101011790555b6137de33613633565b600054610100900460ff1680613c84575060005460ff16155b613cd55760405162461bcd60e51b815260206004820152602e60248201526000805160206148f883398151915260448201526d191e481a5b9a5d1a585b1a5e995960921b606482015260840161049e565b600054610100900460ff16158015613cf7576000805461ffff19166101011790555b60016065558015612e89576000805461ff001916905550565b600054610100900460ff1680613d29575060005460ff16155b613d7a5760405162461bcd60e51b815260206004820152602e60248201526000805160206148f883398151915260448201526d191e481a5b9a5d1a585b1a5e995960921b606482015260840161049e565b600054610100900460ff16158015613d9c576000805461ffff19166101011790555b6097805460ff191690558015612e89576000805461ff001916905550565b6060613dc98484600085613dd3565b90505b9392505050565b606082471015613e4b5760405162461bcd60e51b815260206004820152602660248201527f416464726573733a20696e73756666696369656e742062616c616e636520666f60448201527f722063616c6c0000000000000000000000000000000000000000000000000000606482015260840161049e565b843b613e995760405162461bcd60e51b815260206004820152601d60248201527f416464726573733a2063616c6c20746f206e6f6e2d636f6e7472616374000000604482015260640161049e565b600080866001600160a01b03168587604051613eb591906148c8565b60006040518083038185875af1925050503d8060008114613ef2576040519150601f19603f3d011682016040523d82523d6000602084013e613ef7565b606091505b5091509150613f07828286613f12565b979650505050505050565b60608315613f21575081613dcc565b825115613f315782518084602001fd5b8160405162461bcd60e51b815260040161049e91906148e4565b600060208284031215613f5d57600080fd5b81356001600160e01b031981168114613dcc57600080fd5b6001600160a01b0381168114612e8957600080fd5b634e487b7160e01b600052604160045260246000fd5b604051601f8201601f1916810167ffffffffffffffff81118282101715613fc957613fc9613f8a565b604052919050565b600082601f830112613fe257600080fd5b813567ffffffffffffffff811115613ffc57613ffc613f8a565b61400f601f8201601f1916602001613fa0565b81815284602083860101111561402457600080fd5b816020850160208301376000918101602001919091529392505050565b6000806000806080858703121561405757600080fd5b843561406281613f75565b9350602085013561407281613f75565b925060408501359150606085013567ffffffffffffffff81111561409557600080fd5b6140a187828801613fd1565b91505092959194509250565b600080600080600060a086880312156140c557600080fd5b85356140d081613f75565b9450602086013593506040860135925060608601356140ee81613f75565b949793965091946080013592915050565b60008083601f84011261411157600080fd5b50813567ffffffffffffffff81111561412957600080fd5b6020830191508360208260051b850101111561414457600080fd5b9250929050565b600080600080600080600060a0888a03121561416657600080fd5b8735965060208801359550604088013567ffffffffffffffff8082111561418c57600080fd5b6141988b838c016140ff565b909750955060608a013591506141ad82613f75565b909350608089013590808211156141c357600080fd5b506141d08a828b016140ff565b989b979a50959850939692959293505050565b60008060008060008060008060008060e08b8d03121561420257600080fd5b8a35995060208b0135985060408b013567ffffffffffffffff8082111561422857600080fd5b6142348e838f016140ff565b909a50985060608d0135915061424982613f75565b90965060808c0135955060a08c0135908082111561426657600080fd5b6142728e838f016140ff565b909650945060c08d013591508082111561428b57600080fd5b506142988d828e016140ff565b915080935050809150509295989b9194979a5092959850565b6000806000606084860312156142c657600080fd5b833592506020840135915060408401356142df81613f75565b809150509250925092565b600080600080600080600080600060e08a8c03121561430857600080fd5b893561431381613f75565b985060208a0135975060408a0135965060608a013561433181613f75565b955060808a0135945060a08a013567ffffffffffffffff8082111561435557600080fd5b6143618d838e016140ff565b909650945060c08c013591508082111561437a57600080fd5b506143878c828d016140ff565b915080935050809150509295985092959850929598565b600082601f8301126143af57600080fd5b8135602067ffffffffffffffff8211156143cb576143cb613f8a565b8160051b6143da828201613fa0565b92835284810182019282810190878511156143f457600080fd5b83870192505b84831015613f07578235825291830191908301906143fa565b600080600080600060a0868803121561442b57600080fd5b853561443681613f75565b9450602086013561444681613f75565b9350604086013567ffffffffffffffff8082111561446357600080fd5b61446f89838a0161439e565b9450606088013591508082111561448557600080fd5b61449189838a0161439e565b935060808801359150808211156144a757600080fd5b506144b488828901613fd1565b9150509295509295909350565b6000602082840312156144d357600080fd5b8135613dcc81613f75565b600080600080600060a086880312156144f657600080fd5b853561450181613f75565b9450602086013561451181613f75565b93506040860135925060608601359150608086013567ffffffffffffffff81111561453b57600080fd5b6144b488828901613fd1565b60006020828403121561455957600080fd5b8151613dcc81613f75565b60006020828403121561457657600080fd5b81518015158114613dcc57600080fd5b634e487b7160e01b600052601160045260246000fd5b600082198211156145af576145af614586565b500190565b8183526000602080850194508260005b858110156145f25781356145d781613f75565b6001600160a01b0316875295820195908201906001016145c4565b509495945050505050565b81835260007f07ffffffffffffffffffffffffffffffffffffffffffffffffffffffffffffff83111561462f57600080fd5b8260051b8083602087013760009401602001938452509192915050565b6001600160a01b038616815260606020820152600061466f6060830186886145b4565b82810360408401526146828185876145fd565b98975050505050505050565b634e487b7160e01b600052603260045260246000fd5b6000828210156146b6576146b6614586565b500390565b60006000198214156146cf576146cf614586565b5060010190565b60005b838110156146f15781810151838201526020016146d9565b83811115612f0c5750506000910152565b6000815180845261471a8160208601602086016146d6565b601f01601f19169290920160200192915050565b60006001600160a01b03808816835280871660208401525084604083015283606083015260a06080830152613f0760a0830184614702565b6001600160a01b038916815260a06020820152600061478960a08301898b6145b4565b87604084015282810360608401526147a28187896145fd565b905082810360808401526147b78185876145fd565b9b9a5050505050505050505050565b6000602082840312156147d857600080fd5b5051919050565b60006001600160a01b03808a16835280891660208401525060a0604083015261480c60a0830187896145fd565b828103606084015261481f8186886145fd565b905082810360808401526148338185614702565b9a9950505050505050505050565b60006001600160a01b03808a16835280891660208401525086604083015260a0606083015261487460a0830186886145fd565b82810360808401526148338185876145fd565b60008160001904831182151516156148a1576148a1614586565b500290565b6000826148c357634e487b7160e01b600052601260045260246000fd5b500490565b600082516148da8184602087016146d6565b9190910192915050565b602081526000613dcc602083018461470256fe496e697469616c697a61626c653a20636f6e747261637420697320616c726561a2646970667358221220a845842a01453fa90f88964184fa7e3e920c42c501a38c0277195afbd9d6fbb564736f6c634300080b0033",
  "devdoc": {
    "author": "David Lee",
    "kind": "dev",
    "methods": {
      "deposit(uint256,uint256,address)": {
        "details": "Only tokens registered in GameRegistry with an amount greater than zero is valid for the deposit",
        "params": {
          "_gid": "Game ID",
          "_tid": "Tournament ID",
          "_token": "Token address to deposit"
        }
      },
      "depositNFTPrize(address,uint256,uint256,address,uint256,uint256[],uint256[])": {
        "details": "NFT type should be either 721 or 1155",
        "params": {
          "_amounts": "Token amount list",
          "_from": "NFT owner address",
          "_gid": "Game ID",
          "_nftAddress": "NFT address",
          "_nftType": "NFT type (721/1155)",
          "_tid": "Tournament ID",
          "_tokenIds": "Token Id list"
        }
      },
      "depositPrize(address,uint256,uint256,address,uint256)": {
        "details": "Only tokens which are allowed as a distributable token can be depositedPrize is transferred from _depositor address to this contract",
        "params": {
          "_amount": "Prize amount to deposit",
          "_depositor": "Depositor address",
          "_gid": "Game ID",
          "_tid": "Tournament ID",
          "_token": "Prize token address"
        }
      },
      "distributeNFTPrize(uint256,uint256,address[],address,uint256,uint256[],uint256[])": {
        "details": "Only maintainerNFT type should be either 721 or 1155",
        "params": {
          "_amounts": "Token amount list",
          "_gid": "Game ID",
          "_nftAddress": "NFT address",
          "_nftType": "NFT type (721/1155)",
          "_tid": "Tournament ID",
          "_tokenIds": "Token Id list",
          "_winners": "Winners list"
        }
      },
      "distributePrize(uint256,uint256,address[],address,uint256[])": {
        "details": "Only maintainerThe maximum distributable prize amount is the sum of the users' deposit and the prize that the owner deposited",
        "params": {
          "_amounts": "Prize list",
          "_gid": "Game ID",
          "_tid": "Tournament ID",
          "_token": "Prize token address",
          "_winners": "Winners list"
        }
      },
      "onERC721Received(address,address,uint256,bytes)": {
        "details": "See {IERC721Receiver-onERC721Received}. Always returns `IERC721Receiver.onERC721Received.selector`."
      },
      "owner()": {
        "details": "Returns the address of the current owner."
      },
      "pause()": {
        "details": "Only owner"
      },
      "paused()": {
        "details": "Returns true if the contract is paused, and false otherwise."
      },
      "renounceOwnership()": {
        "details": "Leaves the contract without owner. It will not be possible to call `onlyOwner` functions anymore. Can only be called by the current owner. NOTE: Renouncing ownership will leave the contract without an owner, thereby removing any functionality that is only available to the owner."
      },
      "supportsInterface(bytes4)": {
        "details": "See {IERC165-supportsInterface}."
      },
      "transferOwnership(address)": {
        "details": "Transfers ownership of the contract to a new account (`newOwner`). Can only be called by the current owner."
      },
      "unpause()": {
        "details": "Only owner"
      },
      "withdrawNFTPrize(address,uint256,uint256,address,uint256,uint256[],uint256[])": {
        "details": "Only ownerNFT type should be either 721 or 1155",
        "params": {
          "_amounts": "Token amount list",
          "_gid": "Game ID",
          "_nftAddress": "NFT address",
          "_nftType": "NFT type (721/1155)",
          "_tid": "Tournament ID",
          "_to": "NFT receiver address",
          "_tokenIds": "Token Id list"
        }
      },
      "withdrawPrize(address,uint256,uint256,address,uint256)": {
        "details": "Only owner",
        "params": {
          "_amount": "Prize amount to withdraw",
          "_gid": "Game ID",
          "_tid": "Tournament ID",
          "_to": "Beneficiary address",
          "_token": "Prize token address"
        }
      }
    },
    "stateVariables": {
      "addressRegistry": {
        "details": "AddressRegistry"
      },
      "tournamentNftPrizes": {
        "details": "Game ID -> Tournament ID -> NFT Address -> Token ID -> Tournament NFT prizes"
      },
      "tournamentTokens": {
        "details": "Game ID -> Tournament ID -> Token Address -> Tournament tokens"
      }
    },
    "title": "Oparcade",
    "version": 1
  },
  "userdoc": {
    "kind": "user",
    "methods": {
      "deposit(uint256,uint256,address)": {
        "notice": "Deposit ERC20 tokens from user"
      },
      "depositNFTPrize(address,uint256,uint256,address,uint256,uint256[],uint256[])": {
        "notice": "Deposit NFT prize for the specific game/tournament"
      },
      "depositPrize(address,uint256,uint256,address,uint256)": {
        "notice": "Deposit the prize tokens for the specific game/tournament"
      },
      "distributeNFTPrize(uint256,uint256,address[],address,uint256,uint256[],uint256[])": {
        "notice": "Distribute winners' NFT prizes"
      },
      "distributePrize(uint256,uint256,address[],address,uint256[])": {
        "notice": "Distribute winners their prizes"
      },
      "pause()": {
        "notice": "Pause Oparcade"
      },
      "unpause()": {
        "notice": "Resume Oparcade"
      },
      "withdrawNFTPrize(address,uint256,uint256,address,uint256,uint256[],uint256[])": {
        "notice": "Withdraw NFT prize for the specific game/tournament"
      },
      "withdrawPrize(address,uint256,uint256,address,uint256)": {
        "notice": "Withdraw the prize tokens from the specific game/tournament"
      }
    },
    "notice": "This contract manages token deposit/distribution from/to the users playing the game/tournament",
    "version": 1
  },
  "storageLayout": {
    "storage": [
      {
        "astId": 130,
        "contract": "contracts/Oparcade.sol:Oparcade",
        "label": "_initialized",
        "offset": 0,
        "slot": "0",
        "type": "t_bool"
      },
      {
        "astId": 133,
        "contract": "contracts/Oparcade.sol:Oparcade",
        "label": "_initializing",
        "offset": 1,
        "slot": "0",
        "type": "t_bool"
      },
      {
        "astId": 1413,
        "contract": "contracts/Oparcade.sol:Oparcade",
        "label": "__gap",
        "offset": 0,
        "slot": "1",
        "type": "t_array(t_uint256)50_storage"
      },
      {
        "astId": 10,
        "contract": "contracts/Oparcade.sol:Oparcade",
        "label": "_owner",
        "offset": 0,
        "slot": "51",
        "type": "t_address"
      },
      {
        "astId": 123,
        "contract": "contracts/Oparcade.sol:Oparcade",
        "label": "__gap",
        "offset": 0,
        "slot": "52",
        "type": "t_array(t_uint256)49_storage"
      },
      {
        "astId": 297,
        "contract": "contracts/Oparcade.sol:Oparcade",
        "label": "_status",
        "offset": 0,
        "slot": "101",
        "type": "t_uint256"
      },
      {
        "astId": 340,
        "contract": "contracts/Oparcade.sol:Oparcade",
        "label": "__gap",
        "offset": 0,
        "slot": "102",
        "type": "t_array(t_uint256)49_storage"
      },
      {
        "astId": 191,
        "contract": "contracts/Oparcade.sol:Oparcade",
        "label": "_paused",
        "offset": 0,
        "slot": "151",
        "type": "t_bool"
      },
      {
        "astId": 282,
        "contract": "contracts/Oparcade.sol:Oparcade",
        "label": "__gap",
        "offset": 0,
        "slot": "152",
        "type": "t_array(t_uint256)49_storage"
      },
      {
        "astId": 1126,
        "contract": "contracts/Oparcade.sol:Oparcade",
        "label": "__gap",
        "offset": 0,
        "slot": "201",
        "type": "t_array(t_uint256)50_storage"
      },
      {
        "astId": 1459,
        "contract": "contracts/Oparcade.sol:Oparcade",
        "label": "__gap",
        "offset": 0,
        "slot": "251",
        "type": "t_array(t_uint256)50_storage"
      },
      {
        "astId": 641,
        "contract": "contracts/Oparcade.sol:Oparcade",
        "label": "__gap",
        "offset": 0,
        "slot": "301",
        "type": "t_array(t_uint256)50_storage"
      },
      {
        "astId": 582,
        "contract": "contracts/Oparcade.sol:Oparcade",
        "label": "__gap",
        "offset": 0,
        "slot": "351",
        "type": "t_array(t_uint256)50_storage"
      },
      {
        "astId": 7980,
        "contract": "contracts/Oparcade.sol:Oparcade",
        "label": "tournamentTokens",
        "offset": 0,
        "slot": "401",
        "type": "t_mapping(t_uint256,t_mapping(t_uint256,t_mapping(t_address,t_struct(TournamentToken)7970_storage)))"
      },
      {
        "astId": 7997,
        "contract": "contracts/Oparcade.sol:Oparcade",
        "label": "tournamentNftPrizes",
        "offset": 0,
        "slot": "402",
        "type": "t_mapping(t_uint256,t_mapping(t_uint256,t_mapping(t_address,t_mapping(t_uint256,t_struct(TournamentNftPrize)7985_storage))))"
      },
      {
        "astId": 8001,
        "contract": "contracts/Oparcade.sol:Oparcade",
        "label": "addressRegistry",
        "offset": 0,
        "slot": "403",
        "type": "t_contract(IAddressRegistry)9529"
      }
    ],
    "types": {
      "t_address": {
        "encoding": "inplace",
        "label": "address",
        "numberOfBytes": "20"
      },
      "t_array(t_uint256)49_storage": {
        "base": "t_uint256",
        "encoding": "inplace",
        "label": "uint256[49]",
        "numberOfBytes": "1568"
      },
      "t_array(t_uint256)50_storage": {
        "base": "t_uint256",
        "encoding": "inplace",
        "label": "uint256[50]",
        "numberOfBytes": "1600"
      },
      "t_bool": {
        "encoding": "inplace",
        "label": "bool",
        "numberOfBytes": "1"
      },
      "t_contract(IAddressRegistry)9529": {
        "encoding": "inplace",
        "label": "contract IAddressRegistry",
        "numberOfBytes": "20"
      },
      "t_mapping(t_address,t_mapping(t_uint256,t_struct(TournamentNftPrize)7985_storage))": {
        "encoding": "mapping",
        "key": "t_address",
        "label": "mapping(address => mapping(uint256 => struct Oparcade.TournamentNftPrize))",
        "numberOfBytes": "32",
        "value": "t_mapping(t_uint256,t_struct(TournamentNftPrize)7985_storage)"
      },
      "t_mapping(t_address,t_struct(TournamentToken)7970_storage)": {
        "encoding": "mapping",
        "key": "t_address",
        "label": "mapping(address => struct Oparcade.TournamentToken)",
        "numberOfBytes": "32",
        "value": "t_struct(TournamentToken)7970_storage"
      },
      "t_mapping(t_uint256,t_mapping(t_address,t_mapping(t_uint256,t_struct(TournamentNftPrize)7985_storage)))": {
        "encoding": "mapping",
        "key": "t_uint256",
        "label": "mapping(uint256 => mapping(address => mapping(uint256 => struct Oparcade.TournamentNftPrize)))",
        "numberOfBytes": "32",
        "value": "t_mapping(t_address,t_mapping(t_uint256,t_struct(TournamentNftPrize)7985_storage))"
      },
      "t_mapping(t_uint256,t_mapping(t_address,t_struct(TournamentToken)7970_storage))": {
        "encoding": "mapping",
        "key": "t_uint256",
        "label": "mapping(uint256 => mapping(address => struct Oparcade.TournamentToken))",
        "numberOfBytes": "32",
        "value": "t_mapping(t_address,t_struct(TournamentToken)7970_storage)"
      },
      "t_mapping(t_uint256,t_mapping(t_uint256,t_mapping(t_address,t_mapping(t_uint256,t_struct(TournamentNftPrize)7985_storage))))": {
        "encoding": "mapping",
        "key": "t_uint256",
        "label": "mapping(uint256 => mapping(uint256 => mapping(address => mapping(uint256 => struct Oparcade.TournamentNftPrize))))",
        "numberOfBytes": "32",
        "value": "t_mapping(t_uint256,t_mapping(t_address,t_mapping(t_uint256,t_struct(TournamentNftPrize)7985_storage)))"
      },
      "t_mapping(t_uint256,t_mapping(t_uint256,t_mapping(t_address,t_struct(TournamentToken)7970_storage)))": {
        "encoding": "mapping",
        "key": "t_uint256",
        "label": "mapping(uint256 => mapping(uint256 => mapping(address => struct Oparcade.TournamentToken)))",
        "numberOfBytes": "32",
        "value": "t_mapping(t_uint256,t_mapping(t_address,t_struct(TournamentToken)7970_storage))"
      },
      "t_mapping(t_uint256,t_struct(TournamentNftPrize)7985_storage)": {
        "encoding": "mapping",
        "key": "t_uint256",
        "label": "mapping(uint256 => struct Oparcade.TournamentNftPrize)",
        "numberOfBytes": "32",
        "value": "t_struct(TournamentNftPrize)7985_storage"
      },
      "t_struct(TournamentNftPrize)7985_storage": {
        "encoding": "inplace",
        "label": "struct Oparcade.TournamentNftPrize",
        "members": [
          {
            "astId": 7982,
            "contract": "contracts/Oparcade.sol:Oparcade",
            "label": "totalDistribution",
            "offset": 0,
            "slot": "0",
            "type": "t_uint256"
          },
          {
            "astId": 7984,
            "contract": "contracts/Oparcade.sol:Oparcade",
            "label": "totalDeposit",
            "offset": 0,
            "slot": "1",
            "type": "t_uint256"
          }
        ],
        "numberOfBytes": "64"
      },
      "t_struct(TournamentToken)7970_storage": {
        "encoding": "inplace",
        "label": "struct Oparcade.TournamentToken",
        "members": [
          {
            "astId": 7963,
            "contract": "contracts/Oparcade.sol:Oparcade",
            "label": "totalUserDeposit",
            "offset": 0,
            "slot": "0",
            "type": "t_uint256"
          },
          {
            "astId": 7965,
            "contract": "contracts/Oparcade.sol:Oparcade",
            "label": "totalPrizeDistribution",
            "offset": 0,
            "slot": "1",
            "type": "t_uint256"
          },
          {
            "astId": 7967,
            "contract": "contracts/Oparcade.sol:Oparcade",
            "label": "totalPrizeFee",
            "offset": 0,
            "slot": "2",
            "type": "t_uint256"
          },
          {
            "astId": 7969,
            "contract": "contracts/Oparcade.sol:Oparcade",
            "label": "totalPrizeDeposit",
            "offset": 0,
            "slot": "3",
            "type": "t_uint256"
          }
        ],
        "numberOfBytes": "128"
      },
      "t_uint256": {
        "encoding": "inplace",
        "label": "uint256",
        "numberOfBytes": "32"
      }
    }
  }
}