{
  "address": "0x8276836fDF5c44E489AE994F42B58c3f22ADE7Eb",
  "abi": [
    {
      "inputs": [
        {
          "internalType": "uint256",
          "name": "minDelay",
          "type": "uint256"
        },
        {
          "internalType": "address",
          "name": "admin",
          "type": "address"
        },
        {
          "internalType": "address[]",
          "name": "proposers",
          "type": "address[]"
        },
        {
          "internalType": "address[]",
          "name": "executors",
          "type": "address[]"
        }
      ],
      "stateMutability": "nonpayable",
      "type": "constructor"
    },
    {
      "anonymous": false,
      "inputs": [
        {
          "indexed": true,
          "internalType": "bytes32",
          "name": "id",
          "type": "bytes32"
        },
        {
          "indexed": true,
          "internalType": "uint256",
          "name": "index",
          "type": "uint256"
        },
        {
          "indexed": false,
          "internalType": "address",
          "name": "target",
          "type": "address"
        },
        {
          "indexed": false,
          "internalType": "uint256",
          "name": "value",
          "type": "uint256"
        },
        {
          "indexed": false,
          "internalType": "bytes",
          "name": "data",
          "type": "bytes"
        }
      ],
      "name": "CallExecuted",
      "type": "event"
    },
    {
      "anonymous": false,
      "inputs": [
        {
          "indexed": true,
          "internalType": "bytes32",
          "name": "id",
          "type": "bytes32"
        },
        {
          "indexed": true,
          "internalType": "uint256",
          "name": "index",
          "type": "uint256"
        },
        {
          "indexed": false,
          "internalType": "address",
          "name": "target",
          "type": "address"
        },
        {
          "indexed": false,
          "internalType": "uint256",
          "name": "value",
          "type": "uint256"
        },
        {
          "indexed": false,
          "internalType": "bytes",
          "name": "data",
          "type": "bytes"
        },
        {
          "indexed": false,
          "internalType": "bytes32",
          "name": "predecessor",
          "type": "bytes32"
        },
        {
          "indexed": false,
          "internalType": "uint256",
          "name": "delay",
          "type": "uint256"
        }
      ],
      "name": "CallScheduled",
      "type": "event"
    },
    {
      "anonymous": false,
      "inputs": [
        {
          "indexed": true,
          "internalType": "bytes32",
          "name": "id",
          "type": "bytes32"
        }
      ],
      "name": "Cancelled",
      "type": "event"
    },
    {
      "anonymous": false,
      "inputs": [
        {
          "indexed": false,
          "internalType": "uint256",
          "name": "oldDuration",
          "type": "uint256"
        },
        {
          "indexed": false,
          "internalType": "uint256",
          "name": "newDuration",
          "type": "uint256"
        }
      ],
      "name": "MinDelayChange",
      "type": "event"
    },
    {
      "anonymous": false,
      "inputs": [
        {
          "indexed": true,
          "internalType": "bytes32",
          "name": "role",
          "type": "bytes32"
        },
        {
          "indexed": true,
          "internalType": "bytes32",
          "name": "previousAdminRole",
          "type": "bytes32"
        },
        {
          "indexed": true,
          "internalType": "bytes32",
          "name": "newAdminRole",
          "type": "bytes32"
        }
      ],
      "name": "RoleAdminChanged",
      "type": "event"
    },
    {
      "anonymous": false,
      "inputs": [
        {
          "indexed": true,
          "internalType": "bytes32",
          "name": "role",
          "type": "bytes32"
        },
        {
          "indexed": true,
          "internalType": "address",
          "name": "account",
          "type": "address"
        },
        {
          "indexed": true,
          "internalType": "address",
          "name": "sender",
          "type": "address"
        }
      ],
      "name": "RoleGranted",
      "type": "event"
    },
    {
      "anonymous": false,
      "inputs": [
        {
          "indexed": true,
          "internalType": "bytes32",
          "name": "role",
          "type": "bytes32"
        },
        {
          "indexed": true,
          "internalType": "address",
          "name": "account",
          "type": "address"
        },
        {
          "indexed": true,
          "internalType": "address",
          "name": "sender",
          "type": "address"
        }
      ],
      "name": "RoleRevoked",
      "type": "event"
    },
    {
      "inputs": [],
      "name": "DEFAULT_ADMIN_ROLE",
      "outputs": [
        {
          "internalType": "bytes32",
          "name": "",
          "type": "bytes32"
        }
      ],
      "stateMutability": "view",
      "type": "function"
    },
    {
      "inputs": [],
      "name": "EXECUTOR_ROLE",
      "outputs": [
        {
          "internalType": "bytes32",
          "name": "",
          "type": "bytes32"
        }
      ],
      "stateMutability": "view",
      "type": "function"
    },
    {
      "inputs": [],
      "name": "PROPOSER_ROLE",
      "outputs": [
        {
          "internalType": "bytes32",
          "name": "",
          "type": "bytes32"
        }
      ],
      "stateMutability": "view",
      "type": "function"
    },
    {
      "inputs": [],
      "name": "TIMELOCK_ADMIN_ROLE",
      "outputs": [
        {
          "internalType": "bytes32",
          "name": "",
          "type": "bytes32"
        }
      ],
      "stateMutability": "view",
      "type": "function"
    },
    {
      "inputs": [
        {
          "internalType": "bytes32",
          "name": "id",
          "type": "bytes32"
        }
      ],
      "name": "cancel",
      "outputs": [],
      "stateMutability": "nonpayable",
      "type": "function"
    },
    {
      "inputs": [
        {
          "internalType": "address",
          "name": "target",
          "type": "address"
        },
        {
          "internalType": "uint256",
          "name": "value",
          "type": "uint256"
        },
        {
          "internalType": "bytes",
          "name": "data",
          "type": "bytes"
        },
        {
          "internalType": "bytes32",
          "name": "predecessor",
          "type": "bytes32"
        },
        {
          "internalType": "bytes32",
          "name": "salt",
          "type": "bytes32"
        }
      ],
      "name": "execute",
      "outputs": [],
      "stateMutability": "payable",
      "type": "function"
    },
    {
      "inputs": [
        {
          "internalType": "address[]",
          "name": "targets",
          "type": "address[]"
        },
        {
          "internalType": "uint256[]",
          "name": "values",
          "type": "uint256[]"
        },
        {
          "internalType": "bytes[]",
          "name": "datas",
          "type": "bytes[]"
        },
        {
          "internalType": "bytes32",
          "name": "predecessor",
          "type": "bytes32"
        },
        {
          "internalType": "bytes32",
          "name": "salt",
          "type": "bytes32"
        }
      ],
      "name": "executeBatch",
      "outputs": [],
      "stateMutability": "payable",
      "type": "function"
    },
    {
      "inputs": [],
      "name": "getMinDelay",
      "outputs": [
        {
          "internalType": "uint256",
          "name": "duration",
          "type": "uint256"
        }
      ],
      "stateMutability": "view",
      "type": "function"
    },
    {
      "inputs": [
        {
          "internalType": "bytes32",
          "name": "role",
          "type": "bytes32"
        }
      ],
      "name": "getRoleAdmin",
      "outputs": [
        {
          "internalType": "bytes32",
          "name": "",
          "type": "bytes32"
        }
      ],
      "stateMutability": "view",
      "type": "function"
    },
    {
      "inputs": [
        {
          "internalType": "bytes32",
          "name": "id",
          "type": "bytes32"
        }
      ],
      "name": "getTimestamp",
      "outputs": [
        {
          "internalType": "uint256",
          "name": "timestamp",
          "type": "uint256"
        }
      ],
      "stateMutability": "view",
      "type": "function"
    },
    {
      "inputs": [
        {
          "internalType": "bytes32",
          "name": "role",
          "type": "bytes32"
        },
        {
          "internalType": "address",
          "name": "account",
          "type": "address"
        }
      ],
      "name": "grantRole",
      "outputs": [],
      "stateMutability": "nonpayable",
      "type": "function"
    },
    {
      "inputs": [
        {
          "internalType": "bytes32",
          "name": "role",
          "type": "bytes32"
        },
        {
          "internalType": "address",
          "name": "account",
          "type": "address"
        }
      ],
      "name": "hasRole",
      "outputs": [
        {
          "internalType": "bool",
          "name": "",
          "type": "bool"
        }
      ],
      "stateMutability": "view",
      "type": "function"
    },
    {
      "inputs": [
        {
          "internalType": "address",
          "name": "target",
          "type": "address"
        },
        {
          "internalType": "uint256",
          "name": "value",
          "type": "uint256"
        },
        {
          "internalType": "bytes",
          "name": "data",
          "type": "bytes"
        },
        {
          "internalType": "bytes32",
          "name": "predecessor",
          "type": "bytes32"
        },
        {
          "internalType": "bytes32",
          "name": "salt",
          "type": "bytes32"
        }
      ],
      "name": "hashOperation",
      "outputs": [
        {
          "internalType": "bytes32",
          "name": "hash",
          "type": "bytes32"
        }
      ],
      "stateMutability": "pure",
      "type": "function"
    },
    {
      "inputs": [
        {
          "internalType": "address[]",
          "name": "targets",
          "type": "address[]"
        },
        {
          "internalType": "uint256[]",
          "name": "values",
          "type": "uint256[]"
        },
        {
          "internalType": "bytes[]",
          "name": "datas",
          "type": "bytes[]"
        },
        {
          "internalType": "bytes32",
          "name": "predecessor",
          "type": "bytes32"
        },
        {
          "internalType": "bytes32",
          "name": "salt",
          "type": "bytes32"
        }
      ],
      "name": "hashOperationBatch",
      "outputs": [
        {
          "internalType": "bytes32",
          "name": "hash",
          "type": "bytes32"
        }
      ],
      "stateMutability": "pure",
      "type": "function"
    },
    {
      "inputs": [
        {
          "internalType": "bytes32",
          "name": "id",
          "type": "bytes32"
        }
      ],
      "name": "isOperation",
      "outputs": [
        {
          "internalType": "bool",
          "name": "pending",
          "type": "bool"
        }
      ],
      "stateMutability": "view",
      "type": "function"
    },
    {
      "inputs": [
        {
          "internalType": "bytes32",
          "name": "id",
          "type": "bytes32"
        }
      ],
      "name": "isOperationDone",
      "outputs": [
        {
          "internalType": "bool",
          "name": "done",
          "type": "bool"
        }
      ],
      "stateMutability": "view",
      "type": "function"
    },
    {
      "inputs": [
        {
          "internalType": "bytes32",
          "name": "id",
          "type": "bytes32"
        }
      ],
      "name": "isOperationPending",
      "outputs": [
        {
          "internalType": "bool",
          "name": "pending",
          "type": "bool"
        }
      ],
      "stateMutability": "view",
      "type": "function"
    },
    {
      "inputs": [
        {
          "internalType": "bytes32",
          "name": "id",
          "type": "bytes32"
        }
      ],
      "name": "isOperationReady",
      "outputs": [
        {
          "internalType": "bool",
          "name": "ready",
          "type": "bool"
        }
      ],
      "stateMutability": "view",
      "type": "function"
    },
    {
      "inputs": [
        {
          "internalType": "bytes32",
          "name": "role",
          "type": "bytes32"
        },
        {
          "internalType": "address",
          "name": "account",
          "type": "address"
        }
      ],
      "name": "renounceRole",
      "outputs": [],
      "stateMutability": "nonpayable",
      "type": "function"
    },
    {
      "inputs": [
        {
          "internalType": "bytes32",
          "name": "role",
          "type": "bytes32"
        },
        {
          "internalType": "address",
          "name": "account",
          "type": "address"
        }
      ],
      "name": "revokeRole",
      "outputs": [],
      "stateMutability": "nonpayable",
      "type": "function"
    },
    {
      "inputs": [
        {
          "internalType": "address",
          "name": "target",
          "type": "address"
        },
        {
          "internalType": "uint256",
          "name": "value",
          "type": "uint256"
        },
        {
          "internalType": "bytes",
          "name": "data",
          "type": "bytes"
        },
        {
          "internalType": "bytes32",
          "name": "predecessor",
          "type": "bytes32"
        },
        {
          "internalType": "bytes32",
          "name": "salt",
          "type": "bytes32"
        },
        {
          "internalType": "uint256",
          "name": "delay",
          "type": "uint256"
        }
      ],
      "name": "schedule",
      "outputs": [],
      "stateMutability": "nonpayable",
      "type": "function"
    },
    {
      "inputs": [
        {
          "internalType": "address[]",
          "name": "targets",
          "type": "address[]"
        },
        {
          "internalType": "uint256[]",
          "name": "values",
          "type": "uint256[]"
        },
        {
          "internalType": "bytes[]",
          "name": "datas",
          "type": "bytes[]"
        },
        {
          "internalType": "bytes32",
          "name": "predecessor",
          "type": "bytes32"
        },
        {
          "internalType": "bytes32",
          "name": "salt",
          "type": "bytes32"
        },
        {
          "internalType": "uint256",
          "name": "delay",
          "type": "uint256"
        }
      ],
      "name": "scheduleBatch",
      "outputs": [],
      "stateMutability": "nonpayable",
      "type": "function"
    },
    {
      "inputs": [
        {
          "internalType": "bytes4",
          "name": "interfaceId",
          "type": "bytes4"
        }
      ],
      "name": "supportsInterface",
      "outputs": [
        {
          "internalType": "bool",
          "name": "",
          "type": "bool"
        }
      ],
      "stateMutability": "view",
      "type": "function"
    },
    {
      "inputs": [
        {
          "internalType": "uint256",
          "name": "newDelay",
          "type": "uint256"
        }
      ],
      "name": "updateDelay",
      "outputs": [],
      "stateMutability": "nonpayable",
      "type": "function"
    },
    {
      "stateMutability": "payable",
      "type": "receive"
    }
  ],
  "transactionHash": "0x794d69c71d895077d26e99d737f6770f9347baed2f76ba8ddabfdbd2eb566685",
  "args": [
    "259200",
    "0xaD733B7055eCAebFb3B38626f0148c5d12158F03",
    [
      "0xaD733B7055eCAebFb3B38626f0148c5d12158F03"
    ],
    [
      "0xaD733B7055eCAebFb3B38626f0148c5d12158F03"
    ]
  ],
  "numDeployments": 1,
  "solcInputHash": "31b6f9dfa0f1d52218af034e75467bb9",
  "bytecode": "0x60806040523480156200001157600080fd5b506040516200254338038062002543833981016040819052620000349162000703565b83828262000052600080516020620024e3833981519152806200020c565b6200007c60008051602062002503833981519152600080516020620024e38339815191526200020c565b620000a660008051602062002523833981519152600080516020620024e38339815191526200020c565b620000c1600080516020620024e38339815191523362000260565b620000dc600080516020620024e38339815191523062000260565b60005b8251811015620001395762000126600080516020620025038339815191528483815181106200011257620001126200078a565b60200260200101516200026060201b60201c565b6200013181620007b6565b9050620000df565b5060005b8151811015620001835762000170600080516020620025238339815191528383815181106200011257620001126200078a565b6200017b81620007b6565b90506200013d565b5060028390556040805160008152602081018590527f11c24f4ead16507c69ac467fbd5e4eed5fb5c699626d2cc6d66421df253886d5910160405180910390a1505050620001e7600080516020620024e3833981519152336200027060201b60201c565b62000202600080516020620024e38339815191528462000260565b505050506200090c565b600082815260208190526040902060010154819060405184907fbd79b86ffe0ab8e8776151514217cd7cacd52c909f66475c3af44e129f0b00ff90600090a460009182526020829052604090912060010155565b6200026c82826200029f565b5050565b6000828152602081905260409020600101546200028e81336200033f565b6200029a8383620003e3565b505050565b6000828152602081815260408083206001600160a01b038516845290915290205460ff166200026c576000828152602081815260408083206001600160a01b03851684529091529020805460ff19166001179055620002fb3390565b6001600160a01b0316816001600160a01b0316837f2f8788117e7eff1d82e926ec794901d17c78024a50270940304540a733656f0d60405160405180910390a45050565b6000828152602081815260408083206001600160a01b038516845290915290205460ff166200026c5762000389816001600160a01b031660146200046360201b62000db21760201c565b6200039f83602062000db262000463821b17811c565b604051602001620003b292919062000807565b60408051601f198184030181529082905262461bcd60e51b8252620003da9160040162000880565b60405180910390fd5b6000828152602081815260408083206001600160a01b038516845290915290205460ff16156200026c576000828152602081815260408083206001600160a01b0385168085529252808320805460ff1916905551339285917ff6391f5c32d9c69d2a47ea670b442974b53935d1edc7fd64eb21e047a839171b9190a45050565b6060600062000474836002620008b5565b62000481906002620008d7565b6001600160401b038111156200049b576200049b62000640565b6040519080825280601f01601f191660200182016040528015620004c6576020820181803683370190505b509050600360fc1b81600081518110620004e457620004e46200078a565b60200101906001600160f81b031916908160001a905350600f60fb1b816001815181106200051657620005166200078a565b60200101906001600160f81b031916908160001a90535060006200053c846002620008b5565b62000549906001620008d7565b90505b6001811115620005cb576f181899199a1a9b1b9c1cb0b131b232b360811b85600f16601081106200058157620005816200078a565b1a60f81b8282815181106200059a576200059a6200078a565b60200101906001600160f81b031916908160001a90535060049490941c93620005c381620008f2565b90506200054c565b5083156200061c5760405162461bcd60e51b815260206004820181905260248201527f537472696e67733a20686578206c656e67746820696e73756666696369656e746044820152606401620003da565b9392505050565b80516001600160a01b03811681146200063b57600080fd5b919050565b634e487b7160e01b600052604160045260246000fd5b600082601f8301126200066857600080fd5b815160206001600160401b038083111562000687576200068762000640565b8260051b604051601f19603f83011681018181108482111715620006af57620006af62000640565b604052938452858101830193838101925087851115620006ce57600080fd5b83870191505b84821015620006f857620006e88262000623565b83529183019190830190620006d4565b979650505050505050565b600080600080608085870312156200071a57600080fd5b845193506200072c6020860162000623565b60408601519093506001600160401b03808211156200074a57600080fd5b620007588883890162000656565b935060608701519150808211156200076f57600080fd5b506200077e8782880162000656565b91505092959194509250565b634e487b7160e01b600052603260045260246000fd5b634e487b7160e01b600052601160045260246000fd5b6000600019821415620007cd57620007cd620007a0565b5060010190565b60005b83811015620007f1578181015183820152602001620007d7565b8381111562000801576000848401525b50505050565b7f416363657373436f6e74726f6c3a206163636f756e742000000000000000000081526000835162000841816017850160208801620007d4565b7001034b99036b4b9b9b4b733903937b6329607d1b601791840191820152835162000874816028840160208801620007d4565b01602801949350505050565b6020815260008251806020840152620008a1816040850160208701620007d4565b601f01601f19169190910160400192915050565b6000816000190483118215151615620008d257620008d2620007a0565b500290565b60008219821115620008ed57620008ed620007a0565b500190565b600081620009045762000904620007a0565b506000190190565b611bc7806200091c6000396000f3fe60806040526004361061018f5760003560e01c806364d62353116100d6578063b1c5f4271161007f578063d547741f11610059578063d547741f146104d6578063e38335e5146104f6578063f27a0c921461050957600080fd5b8063b1c5f42714610469578063c4d252f514610489578063d45c4435146104a957600080fd5b80638f61f4f5116100b05780638f61f4f5146103dc57806391d1485414610410578063a217fddf1461045457600080fd5b806364d623531461037c5780638065657f1461039c5780638f2a0bb0146103bc57600080fd5b8063248a9ca31161013857806331d507501161011257806331d507501461031c57806336568abe1461033c578063584b153e1461035c57600080fd5b8063248a9ca31461029b5780632ab0f529146102cb5780632f2ff15d146102fc57600080fd5b80630d3cf6fc116101695780630d3cf6fc14610234578063134008d31461026857806313bc9f201461027b57600080fd5b806301d5062a1461019b57806301ffc9a7146101bd57806307bd0265146101f257600080fd5b3661019657005b600080fd5b3480156101a757600080fd5b506101bb6101b63660046114ad565b61051e565b005b3480156101c957600080fd5b506101dd6101d8366004611522565b6105b4565b60405190151581526020015b60405180910390f35b3480156101fe57600080fd5b506102267fd8aa0f3194971a2a116679f7c2090f6939c8d4e01a2a8d7e41d55e5351469e6381565b6040519081526020016101e9565b34801561024057600080fd5b506102267f5f58e3a2316349923ce3780f8d587db2d72378aed66a8261c916544fa6846ca581565b6101bb61027636600461154c565b6105eb565b34801561028757600080fd5b506101dd6102963660046115b8565b6106a5565b3480156102a757600080fd5b506102266102b63660046115b8565b60009081526020819052604090206001015490565b3480156102d757600080fd5b506101dd6102e63660046115b8565b6000908152600160208190526040909120541490565b34801561030857600080fd5b506101bb6103173660046115d1565b6106cb565b34801561032857600080fd5b506101dd6103373660046115b8565b6106f6565b34801561034857600080fd5b506101bb6103573660046115d1565b61070f565b34801561036857600080fd5b506101dd6103773660046115b8565b6107a0565b34801561038857600080fd5b506101bb6103973660046115b8565b6107b6565b3480156103a857600080fd5b506102266103b736600461154c565b61086c565b3480156103c857600080fd5b506101bb6103d7366004611642565b6108ab565b3480156103e857600080fd5b506102267fb09aa5aeb3702cfd50b6b62bc4532604938f21248a27a1d5ca736082b6819cc181565b34801561041c57600080fd5b506101dd61042b3660046115d1565b6000918252602082815260408084206001600160a01b0393909316845291905290205460ff1690565b34801561046057600080fd5b50610226600081565b34801561047557600080fd5b506102266104843660046116f4565b610a76565b34801561049557600080fd5b506101bb6104a43660046115b8565b610abb565b3480156104b557600080fd5b506102266104c43660046115b8565b60009081526001602052604090205490565b3480156104e257600080fd5b506101bb6104f13660046115d1565b610b9d565b6101bb6105043660046116f4565b610bc3565b34801561051557600080fd5b50600254610226565b7fb09aa5aeb3702cfd50b6b62bc4532604938f21248a27a1d5ca736082b6819cc16105498133610f5b565b600061055989898989898961086c565b90506105658184610fd9565b6000817f4cf4410cc57040e44862ef0f45f3dd5a5e02db8eb8add648d4b0e236f1d07dca8b8b8b8b8b8a6040516105a1969594939291906117c6565b60405180910390a3505050505050505050565b60006001600160e01b03198216637965db0b60e01b14806105e557506301ffc9a760e01b6001600160e01b03198316145b92915050565b600080527fdae2aa361dfd1ca020a396615627d436107c35eff9fe7738a3512819782d70696020527f5ba6852781629bcdcd4bdaa6de76d786f1c64b16acdac474e55bebc0ea157951547fd8aa0f3194971a2a116679f7c2090f6939c8d4e01a2a8d7e41d55e5351469e639060ff16610668576106688133610f5b565b600061067888888888888861086c565b9050610683846110ed565b6106928160008a8a8a8a61117e565b61069b8161129c565b5050505050505050565b6000818152600160205260408120546001811180156106c45750428111155b9392505050565b6000828152602081905260409020600101546106e78133610f5b565b6106f1838361132b565b505050565b60008181526001602052604081205481905b1192915050565b6001600160a01b03811633146107925760405162461bcd60e51b815260206004820152602f60248201527f416363657373436f6e74726f6c3a2063616e206f6e6c792072656e6f756e636560448201527f20726f6c657320666f722073656c66000000000000000000000000000000000060648201526084015b60405180910390fd5b61079c82826113c9565b5050565b6000818152600160208190526040822054610708565b33301461082b5760405162461bcd60e51b815260206004820152602b60248201527f54696d656c6f636b436f6e74726f6c6c65723a2063616c6c6572206d7573742060448201527f62652074696d656c6f636b0000000000000000000000000000000000000000006064820152608401610789565b60025460408051918252602082018390527f11c24f4ead16507c69ac467fbd5e4eed5fb5c699626d2cc6d66421df253886d5910160405180910390a1600255565b6000868686868686604051602001610889969594939291906117c6565b6040516020818303038152906040528051906020012090509695505050505050565b7fb09aa5aeb3702cfd50b6b62bc4532604938f21248a27a1d5ca736082b6819cc16108d68133610f5b565b8887146109315760405162461bcd60e51b815260206004820152602360248201527f54696d656c6f636b436f6e74726f6c6c65723a206c656e677468206d69736d616044820152620e8c6d60eb1b6064820152608401610789565b88851461098c5760405162461bcd60e51b815260206004820152602360248201527f54696d656c6f636b436f6e74726f6c6c65723a206c656e677468206d69736d616044820152620e8c6d60eb1b6064820152608401610789565b600061099e8b8b8b8b8b8b8b8b610a76565b90506109aa8184610fd9565b60005b8a811015610a685780827f4cf4410cc57040e44862ef0f45f3dd5a5e02db8eb8add648d4b0e236f1d07dca8e8e858181106109ea576109ea611804565b90506020020160208101906109ff919061181a565b8d8d86818110610a1157610a11611804565b905060200201358c8c87818110610a2a57610a2a611804565b9050602002810190610a3c9190611835565b8c8b604051610a50969594939291906117c6565b60405180910390a3610a6181611892565b90506109ad565b505050505050505050505050565b60008888888888888888604051602001610a97989796959493929190611942565b60405160208183030381529060405280519060200120905098975050505050505050565b7fb09aa5aeb3702cfd50b6b62bc4532604938f21248a27a1d5ca736082b6819cc1610ae68133610f5b565b610aef826107a0565b610b615760405162461bcd60e51b815260206004820152603160248201527f54696d656c6f636b436f6e74726f6c6c65723a206f7065726174696f6e20636160448201527f6e6e6f742062652063616e63656c6c65640000000000000000000000000000006064820152608401610789565b6000828152600160205260408082208290555183917fbaa1eb22f2a492ba1a5fea61b8df4d27c6c8b5f3971e63bb58fa14ff72eedb7091a25050565b600082815260208190526040902060010154610bb98133610f5b565b6106f183836113c9565b600080527fdae2aa361dfd1ca020a396615627d436107c35eff9fe7738a3512819782d70696020527f5ba6852781629bcdcd4bdaa6de76d786f1c64b16acdac474e55bebc0ea157951547fd8aa0f3194971a2a116679f7c2090f6939c8d4e01a2a8d7e41d55e5351469e639060ff16610c4057610c408133610f5b565b878614610c9b5760405162461bcd60e51b815260206004820152602360248201527f54696d656c6f636b436f6e74726f6c6c65723a206c656e677468206d69736d616044820152620e8c6d60eb1b6064820152608401610789565b878414610cf65760405162461bcd60e51b815260206004820152602360248201527f54696d656c6f636b436f6e74726f6c6c65723a206c656e677468206d69736d616044820152620e8c6d60eb1b6064820152608401610789565b6000610d088a8a8a8a8a8a8a8a610a76565b9050610d13846110ed565b60005b89811015610d9c57610d8c82828d8d85818110610d3557610d35611804565b9050602002016020810190610d4a919061181a565b8c8c86818110610d5c57610d5c611804565b905060200201358b8b87818110610d7557610d75611804565b9050602002810190610d879190611835565b61117e565b610d9581611892565b9050610d16565b50610da68161129c565b50505050505050505050565b60606000610dc1836002611a06565b610dcc906002611a25565b67ffffffffffffffff811115610de457610de4611a3d565b6040519080825280601f01601f191660200182016040528015610e0e576020820181803683370190505b509050600360fc1b81600081518110610e2957610e29611804565b60200101906001600160f81b031916908160001a905350600f60fb1b81600181518110610e5857610e58611804565b60200101906001600160f81b031916908160001a9053506000610e7c846002611a06565b610e87906001611a25565b90505b6001811115610f0c577f303132333435363738396162636465660000000000000000000000000000000085600f1660108110610ec857610ec8611804565b1a60f81b828281518110610ede57610ede611804565b60200101906001600160f81b031916908160001a90535060049490941c93610f0581611a53565b9050610e8a565b5083156106c45760405162461bcd60e51b815260206004820181905260248201527f537472696e67733a20686578206c656e67746820696e73756666696369656e746044820152606401610789565b6000828152602081815260408083206001600160a01b038516845290915290205460ff1661079c57610f97816001600160a01b03166014610db2565b610fa2836020610db2565b604051602001610fb3929190611a9a565b60408051601f198184030181529082905262461bcd60e51b825261078991600401611b1b565b610fe2826106f6565b156110555760405162461bcd60e51b815260206004820152602f60248201527f54696d656c6f636b436f6e74726f6c6c65723a206f7065726174696f6e20616c60448201527f7265616479207363686564756c656400000000000000000000000000000000006064820152608401610789565b6002548110156110cd5760405162461bcd60e51b815260206004820152602660248201527f54696d656c6f636b436f6e74726f6c6c65723a20696e73756666696369656e7460448201527f2064656c617900000000000000000000000000000000000000000000000000006064820152608401610789565b6110d78142611a25565b6000928352600160205260409092209190915550565b8015806111095750600081815260016020819052604090912054145b61117b5760405162461bcd60e51b815260206004820152602660248201527f54696d656c6f636b436f6e74726f6c6c65723a206d697373696e67206465706560448201527f6e64656e637900000000000000000000000000000000000000000000000000006064820152608401610789565b50565b6000846001600160a01b031684848460405161119b929190611b4e565b60006040518083038185875af1925050503d80600081146111d8576040519150601f19603f3d011682016040523d82523d6000602084013e6111dd565b606091505b50509050806112545760405162461bcd60e51b815260206004820152603360248201527f54696d656c6f636b436f6e74726f6c6c65723a20756e6465726c79696e67207460448201527f72616e73616374696f6e207265766572746564000000000000000000000000006064820152608401610789565b85877fc2617efa69bab66782fa219543714338489c4e9e178271560a91b82c3f612b588787878760405161128b9493929190611b5e565b60405180910390a350505050505050565b6112a5816106a5565b6113175760405162461bcd60e51b815260206004820152602a60248201527f54696d656c6f636b436f6e74726f6c6c65723a206f7065726174696f6e20697360448201527f206e6f74207265616479000000000000000000000000000000000000000000006064820152608401610789565b600090815260016020819052604090912055565b6000828152602081815260408083206001600160a01b038516845290915290205460ff1661079c576000828152602081815260408083206001600160a01b03851684529091529020805460ff191660011790556113853390565b6001600160a01b0316816001600160a01b0316837f2f8788117e7eff1d82e926ec794901d17c78024a50270940304540a733656f0d60405160405180910390a45050565b6000828152602081815260408083206001600160a01b038516845290915290205460ff161561079c576000828152602081815260408083206001600160a01b0385168085529252808320805460ff1916905551339285917ff6391f5c32d9c69d2a47ea670b442974b53935d1edc7fd64eb21e047a839171b9190a45050565b80356001600160a01b038116811461145f57600080fd5b919050565b60008083601f84011261147657600080fd5b50813567ffffffffffffffff81111561148e57600080fd5b6020830191508360208285010111156114a657600080fd5b9250929050565b600080600080600080600060c0888a0312156114c857600080fd5b6114d188611448565b965060208801359550604088013567ffffffffffffffff8111156114f457600080fd5b6115008a828b01611464565b989b979a50986060810135976080820135975060a09091013595509350505050565b60006020828403121561153457600080fd5b81356001600160e01b0319811681146106c457600080fd5b60008060008060008060a0878903121561156557600080fd5b61156e87611448565b955060208701359450604087013567ffffffffffffffff81111561159157600080fd5b61159d89828a01611464565b979a9699509760608101359660809091013595509350505050565b6000602082840312156115ca57600080fd5b5035919050565b600080604083850312156115e457600080fd5b823591506115f460208401611448565b90509250929050565b60008083601f84011261160f57600080fd5b50813567ffffffffffffffff81111561162757600080fd5b6020830191508360208260051b85010111156114a657600080fd5b600080600080600080600080600060c08a8c03121561166057600080fd5b893567ffffffffffffffff8082111561167857600080fd5b6116848d838e016115fd565b909b50995060208c013591508082111561169d57600080fd5b6116a98d838e016115fd565b909950975060408c01359150808211156116c257600080fd5b506116cf8c828d016115fd565b9a9d999c50979a969997986060880135976080810135975060a0013595509350505050565b60008060008060008060008060a0898b03121561171057600080fd5b883567ffffffffffffffff8082111561172857600080fd5b6117348c838d016115fd565b909a50985060208b013591508082111561174d57600080fd5b6117598c838d016115fd565b909850965060408b013591508082111561177257600080fd5b5061177f8b828c016115fd565b999c989b509699959896976060870135966080013595509350505050565b81835281816020850137506000828201602090810191909152601f909101601f19169091010190565b6001600160a01b038716815285602082015260a0604082015260006117ef60a08301868861179d565b60608301949094525060800152949350505050565b634e487b7160e01b600052603260045260246000fd5b60006020828403121561182c57600080fd5b6106c482611448565b6000808335601e1984360301811261184c57600080fd5b83018035915067ffffffffffffffff82111561186757600080fd5b6020019150368190038213156114a657600080fd5b634e487b7160e01b600052601160045260246000fd5b60006000198214156118a6576118a661187c565b5060010190565b60008383855260208086019550808560051b8301018460005b8781101561193557848303601f19018952813536889003601e190181126118ec57600080fd5b8701803567ffffffffffffffff81111561190557600080fd5b80360389131561191457600080fd5b611921858288850161179d565b9a86019a94505050908301906001016118c6565b5090979650505050505050565b60a0808252810188905260008960c08301825b8b811015611983576001600160a01b0361196e84611448565b16825260209283019290910190600101611955565b5083810360208501528881527f07ffffffffffffffffffffffffffffffffffffffffffffffffffffffffffffff8911156119bc57600080fd5b8860051b9150818a6020830137818101915050602081016000815260208483030160408501526119ed81888a6118ad565b6060850196909652505050608001529695505050505050565b6000816000190483118215151615611a2057611a2061187c565b500290565b60008219821115611a3857611a3861187c565b500190565b634e487b7160e01b600052604160045260246000fd5b600081611a6257611a6261187c565b506000190190565b60005b83811015611a85578181015183820152602001611a6d565b83811115611a94576000848401525b50505050565b7f416363657373436f6e74726f6c3a206163636f756e7420000000000000000000815260008351611ad2816017850160208801611a6a565b7f206973206d697373696e6720726f6c65200000000000000000000000000000006017918401918201528351611b0f816028840160208801611a6a565b01602801949350505050565b6020815260008251806020840152611b3a816040850160208701611a6a565b601f01601f19169190910160400192915050565b8183823760009101908152919050565b6001600160a01b0385168152836020820152606060408201526000611b8760608301848661179d565b969550505050505056fea26469706673582212209e34c5a36a04a0fd3cc7970851e3d6f85f8b706be7dfb6fbdc77d46887ce119e64736f6c634300080b00335f58e3a2316349923ce3780f8d587db2d72378aed66a8261c916544fa6846ca5b09aa5aeb3702cfd50b6b62bc4532604938f21248a27a1d5ca736082b6819cc1d8aa0f3194971a2a116679f7c2090f6939c8d4e01a2a8d7e41d55e5351469e63",
  "devdoc": {
    "kind": "dev",
    "methods": {
      "cancel(bytes32)": {
        "details": "Cancel an operation. Requirements: - the caller must have the 'proposer' role."
      },
      "execute(address,uint256,bytes,bytes32,bytes32)": {
        "details": "Execute an (ready) operation containing a single transaction. Emits a {CallExecuted} event. Requirements: - the caller must have the 'executor' role."
      },
      "executeBatch(address[],uint256[],bytes[],bytes32,bytes32)": {
        "details": "Execute an (ready) operation containing a batch of transactions. Emits one {CallExecuted} event per transaction in the batch. Requirements: - the caller must have the 'executor' role."
      },
      "getMinDelay()": {
        "details": "Returns the minimum delay for an operation to become valid. This value can be changed by executing an operation that calls `updateDelay`."
      },
      "getRoleAdmin(bytes32)": {
        "details": "Returns the admin role that controls `role`. See {grantRole} and {revokeRole}. To change a role's admin, use {_setRoleAdmin}."
      },
      "getTimestamp(bytes32)": {
        "details": "Returns the timestamp at with an operation becomes ready (0 for unset operations, 1 for done operations)."
      },
      "grantRole(bytes32,address)": {
        "details": "Grants `role` to `account`. If `account` had not been already granted `role`, emits a {RoleGranted} event. Requirements: - the caller must have ``role``'s admin role."
      },
      "hasRole(bytes32,address)": {
        "details": "Returns `true` if `account` has been granted `role`."
      },
      "hashOperation(address,uint256,bytes,bytes32,bytes32)": {
        "details": "Returns the identifier of an operation containing a single transaction."
      },
      "hashOperationBatch(address[],uint256[],bytes[],bytes32,bytes32)": {
        "details": "Returns the identifier of an operation containing a batch of transactions."
      },
      "isOperation(bytes32)": {
        "details": "Returns whether an id correspond to a registered operation. This includes both Pending, Ready and Done operations."
      },
      "isOperationDone(bytes32)": {
        "details": "Returns whether an operation is done or not."
      },
      "isOperationPending(bytes32)": {
        "details": "Returns whether an operation is pending or not."
      },
      "isOperationReady(bytes32)": {
        "details": "Returns whether an operation is ready or not."
      },
      "renounceRole(bytes32,address)": {
        "details": "Revokes `role` from the calling account. Roles are often managed via {grantRole} and {revokeRole}: this function's purpose is to provide a mechanism for accounts to lose their privileges if they are compromised (such as when a trusted device is misplaced). If the calling account had been granted `role`, emits a {RoleRevoked} event. Requirements: - the caller must be `account`."
      },
      "revokeRole(bytes32,address)": {
        "details": "Revokes `role` from `account`. If `account` had been granted `role`, emits a {RoleRevoked} event. Requirements: - the caller must have ``role``'s admin role."
      },
      "schedule(address,uint256,bytes,bytes32,bytes32,uint256)": {
        "details": "Schedule an operation containing a single transaction. Emits a {CallScheduled} event. Requirements: - the caller must have the 'proposer' role."
      },
      "scheduleBatch(address[],uint256[],bytes[],bytes32,bytes32,uint256)": {
        "details": "Schedule an operation containing a batch of transactions. Emits one {CallScheduled} event per transaction in the batch. Requirements: - the caller must have the 'proposer' role."
      },
      "supportsInterface(bytes4)": {
        "details": "See {IERC165-supportsInterface}."
      },
      "updateDelay(uint256)": {
        "details": "Changes the minimum timelock duration for future operations. Emits a {MinDelayChange} event. Requirements: - the caller must be the timelock itself. This can only be achieved by scheduling and later executing an operation where the timelock is the target and the data is the ABI-encoded call to this function."
      }
    },
    "version": 1
  },
  "userdoc": {
    "kind": "user",
    "methods": {},
    "version": 1
  },
  "storageLayout": {
    "storage": [
      {
        "astId": 1535,
        "contract": "contracts/Timelock.sol:Timelock",
        "label": "_roles",
        "offset": 0,
        "slot": "0",
        "type": "t_mapping(t_bytes32,t_struct(RoleData)1530_storage)"
      },
      {
        "astId": 1871,
        "contract": "contracts/Timelock.sol:Timelock",
        "label": "_timestamps",
        "offset": 0,
        "slot": "1",
        "type": "t_mapping(t_bytes32,t_uint256)"
      },
      {
        "astId": 1873,
        "contract": "contracts/Timelock.sol:Timelock",
        "label": "_minDelay",
        "offset": 0,
        "slot": "2",
        "type": "t_uint256"
      }
    ],
    "types": {
      "t_address": {
        "encoding": "inplace",
        "label": "address",
        "numberOfBytes": "20"
      },
      "t_bool": {
        "encoding": "inplace",
        "label": "bool",
        "numberOfBytes": "1"
      },
      "t_bytes32": {
        "encoding": "inplace",
        "label": "bytes32",
        "numberOfBytes": "32"
      },
      "t_mapping(t_address,t_bool)": {
        "encoding": "mapping",
        "key": "t_address",
        "label": "mapping(address => bool)",
        "numberOfBytes": "32",
        "value": "t_bool"
      },
      "t_mapping(t_bytes32,t_struct(RoleData)1530_storage)": {
        "encoding": "mapping",
        "key": "t_bytes32",
        "label": "mapping(bytes32 => struct AccessControl.RoleData)",
        "numberOfBytes": "32",
        "value": "t_struct(RoleData)1530_storage"
      },
      "t_mapping(t_bytes32,t_uint256)": {
        "encoding": "mapping",
        "key": "t_bytes32",
        "label": "mapping(bytes32 => uint256)",
        "numberOfBytes": "32",
        "value": "t_uint256"
      },
      "t_struct(RoleData)1530_storage": {
        "encoding": "inplace",
        "label": "struct AccessControl.RoleData",
        "members": [
          {
            "astId": 1527,
            "contract": "contracts/Timelock.sol:Timelock",
            "label": "members",
            "offset": 0,
            "slot": "0",
            "type": "t_mapping(t_address,t_bool)"
          },
          {
            "astId": 1529,
            "contract": "contracts/Timelock.sol:Timelock",
            "label": "adminRole",
            "offset": 0,
            "slot": "1",
            "type": "t_bytes32"
          }
        ],
        "numberOfBytes": "64"
      },
      "t_uint256": {
        "encoding": "inplace",
        "label": "uint256",
        "numberOfBytes": "32"
      }
    }
  }
}