{
  "address": "0xB32A95f68DebAE58e7FA2B301F923354294077E3",
  "abi": [
    {
      "anonymous": false,
      "inputs": [
        {
          "indexed": true,
          "internalType": "address",
          "name": "oldGameRegistry",
          "type": "address"
        },
        {
          "indexed": true,
          "internalType": "address",
          "name": "newGameRegistry",
          "type": "address"
        }
      ],
      "name": "GameRegistryUpdated",
      "type": "event"
    },
    {
      "anonymous": false,
      "inputs": [
        {
          "indexed": false,
          "internalType": "uint8",
          "name": "version",
          "type": "uint8"
        }
      ],
      "name": "Initialized",
      "type": "event"
    },
    {
      "anonymous": false,
      "inputs": [
        {
          "indexed": true,
          "internalType": "address",
          "name": "oldMaintainer",
          "type": "address"
        },
        {
          "indexed": true,
          "internalType": "address",
          "name": "newMaintainer",
          "type": "address"
        }
      ],
      "name": "MaintainerUpdated",
      "type": "event"
    },
    {
      "anonymous": false,
      "inputs": [
        {
          "indexed": true,
          "internalType": "address",
          "name": "oldOparcade",
          "type": "address"
        },
        {
          "indexed": true,
          "internalType": "address",
          "name": "newOparcade",
          "type": "address"
        }
      ],
      "name": "OparcadeUpdated",
      "type": "event"
    },
    {
      "anonymous": false,
      "inputs": [
        {
          "indexed": true,
          "internalType": "address",
          "name": "previousOwner",
          "type": "address"
        },
        {
          "indexed": true,
          "internalType": "address",
          "name": "newOwner",
          "type": "address"
        }
      ],
      "name": "OwnershipTransferred",
      "type": "event"
    },
    {
      "anonymous": false,
      "inputs": [
        {
          "indexed": true,
          "internalType": "address",
          "name": "oldTimelock",
          "type": "address"
        },
        {
          "indexed": true,
          "internalType": "address",
          "name": "newTimelock",
          "type": "address"
        }
      ],
      "name": "TimelockUpdated",
      "type": "event"
    },
    {
      "inputs": [],
      "name": "gameRegistry",
      "outputs": [
        {
          "internalType": "address",
          "name": "",
          "type": "address"
        }
      ],
      "stateMutability": "view",
      "type": "function"
    },
    {
      "inputs": [],
      "name": "initialize",
      "outputs": [],
      "stateMutability": "nonpayable",
      "type": "function"
    },
    {
      "inputs": [],
      "name": "maintainer",
      "outputs": [
        {
          "internalType": "address",
          "name": "",
          "type": "address"
        }
      ],
      "stateMutability": "view",
      "type": "function"
    },
    {
      "inputs": [],
      "name": "oparcade",
      "outputs": [
        {
          "internalType": "address",
          "name": "",
          "type": "address"
        }
      ],
      "stateMutability": "view",
      "type": "function"
    },
    {
      "inputs": [],
      "name": "owner",
      "outputs": [
        {
          "internalType": "address",
          "name": "",
          "type": "address"
        }
      ],
      "stateMutability": "view",
      "type": "function"
    },
    {
      "inputs": [],
      "name": "renounceOwnership",
      "outputs": [],
      "stateMutability": "nonpayable",
      "type": "function"
    },
    {
      "inputs": [],
      "name": "timelock",
      "outputs": [
        {
          "internalType": "address",
          "name": "",
          "type": "address"
        }
      ],
      "stateMutability": "view",
      "type": "function"
    },
    {
      "inputs": [
        {
          "internalType": "address",
          "name": "newOwner",
          "type": "address"
        }
      ],
      "name": "transferOwnership",
      "outputs": [],
      "stateMutability": "nonpayable",
      "type": "function"
    },
    {
      "inputs": [
        {
          "internalType": "address",
          "name": "_gameRegistry",
          "type": "address"
        }
      ],
      "name": "updateGameRegistry",
      "outputs": [],
      "stateMutability": "nonpayable",
      "type": "function"
    },
    {
      "inputs": [
        {
          "internalType": "address",
          "name": "_maintainer",
          "type": "address"
        }
      ],
      "name": "updateMaintainer",
      "outputs": [],
      "stateMutability": "nonpayable",
      "type": "function"
    },
    {
      "inputs": [
        {
          "internalType": "address",
          "name": "_oparcade",
          "type": "address"
        }
      ],
      "name": "updateOparcade",
      "outputs": [],
      "stateMutability": "nonpayable",
      "type": "function"
    },
    {
      "inputs": [
        {
          "internalType": "address",
          "name": "_timelock",
          "type": "address"
        }
      ],
      "name": "updateTimelock",
      "outputs": [],
      "stateMutability": "nonpayable",
      "type": "function"
    }
  ],
  "transactionHash": "0x3b97d7c081f774f86575871c094b6ba018622574df1e42f3efc44905ba4cbcf4",
  "args": [],
  "numDeployments": 1,
  "solcInputHash": "1f056055441669d784e7e6671908d28c",
  "bytecode": "0x608060405234801561001057600080fd5b50610865806100206000396000f3fe608060405234801561001057600080fd5b50600436106100d45760003560e01c8063a890c91011610081578063d81620251161005b578063d81620251461018a578063da0907551461019d578063f2fde38b146101b057600080fd5b8063a890c91014610151578063c6e628e314610164578063d33219b41461017757600080fd5b80638d374f25116100b25780638d374f25146100fe5780638da5cb5b1461012d5780639850d32b1461013e57600080fd5b8063205f9b5d146100d9578063715018a6146100ee5780638129fc1c146100f6575b600080fd5b6100ec6100e73660046107ff565b6101c3565b005b6100ec610282565b6100ec610296565b606554610111906001600160a01b031681565b6040516001600160a01b03909116815260200160405180910390f35b6033546001600160a01b0316610111565b606754610111906001600160a01b031681565b6100ec61015f3660046107ff565b6103b6565b6100ec6101723660046107ff565b610470565b606854610111906001600160a01b031681565b6100ec6101983660046107ff565b61052a565b606654610111906001600160a01b031681565b6100ec6101be3660046107ff565b6105e4565b6101cb610671565b6001600160a01b0381166102265760405162461bcd60e51b815260206004820152600960248201527f214f70617263616465000000000000000000000000000000000000000000000060448201526064015b60405180910390fd5b6065546040516001600160a01b038084169216907f7dc533a049cdd6f8ea9ca2c50750e4603fd8ffbaf136757bdebd45485f74974190600090a3606580546001600160a01b0319166001600160a01b0392909216919091179055565b61028a610671565b61029460006106cb565b565b600054610100900460ff16158080156102b65750600054600160ff909116105b806102d05750303b1580156102d0575060005460ff166001145b6103425760405162461bcd60e51b815260206004820152602e60248201527f496e697469616c697a61626c653a20636f6e747261637420697320616c72656160448201527f647920696e697469616c697a6564000000000000000000000000000000000000606482015260840161021d565b6000805460ff191660011790558015610365576000805461ff0019166101001790555b61036d61071d565b80156103b3576000805461ff0019169055604051600181527f7f26b83ff96e1f2b6a682f133852f6798a09c465da95921460cefb38474024989060200160405180910390a15b50565b6103be610671565b6001600160a01b0381166104145760405162461bcd60e51b815260206004820152600960248201527f2154696d656c6f636b0000000000000000000000000000000000000000000000604482015260640161021d565b6068546040516001600160a01b038084169216907fae97011a27b5efe7b1d76fe38e75cc498fd64cc24e407a9c6b2185d27f611f7e90600090a3606880546001600160a01b0319166001600160a01b0392909216919091179055565b610478610671565b6001600160a01b0381166104ce5760405162461bcd60e51b815260206004820152600b60248201527f214d61696e7461696e6572000000000000000000000000000000000000000000604482015260640161021d565b6067546040516001600160a01b038084169216907f174fc41b7a8efa2e31922f56f59a2078d31cd34cfda6d34ccd7b99851e5eabc590600090a3606780546001600160a01b0319166001600160a01b0392909216919091179055565b610532610671565b6001600160a01b0381166105885760405162461bcd60e51b815260206004820152600d60248201527f2147616d65526567697374727900000000000000000000000000000000000000604482015260640161021d565b6066546040516001600160a01b038084169216907fbb1de5dfc6435683c75ae6ec02278b3a07398fa972883e6fc45072e867e9ca4090600090a3606680546001600160a01b0319166001600160a01b0392909216919091179055565b6105ec610671565b6001600160a01b0381166106685760405162461bcd60e51b815260206004820152602660248201527f4f776e61626c653a206e6577206f776e657220697320746865207a65726f206160448201527f6464726573730000000000000000000000000000000000000000000000000000606482015260840161021d565b6103b3816106cb565b6033546001600160a01b031633146102945760405162461bcd60e51b815260206004820181905260248201527f4f776e61626c653a2063616c6c6572206973206e6f7420746865206f776e6572604482015260640161021d565b603380546001600160a01b038381166001600160a01b0319831681179093556040519116919082907f8be0079c531659141344cd1fd0a4f28419497f9722a3daafe3b4186f6b6457e090600090a35050565b600054610100900460ff166107885760405162461bcd60e51b815260206004820152602b60248201527f496e697469616c697a61626c653a20636f6e7472616374206973206e6f74206960448201526a6e697469616c697a696e6760a81b606482015260840161021d565b610294600054610100900460ff166107f65760405162461bcd60e51b815260206004820152602b60248201527f496e697469616c697a61626c653a20636f6e7472616374206973206e6f74206960448201526a6e697469616c697a696e6760a81b606482015260840161021d565b610294336106cb565b60006020828403121561081157600080fd5b81356001600160a01b038116811461082857600080fd5b939250505056fea264697066735822122058d114a41c89710555287fe3247e27c1a159cc0f08b64d0ffdf65ce21371b70f64736f6c634300080b0033",
  "devdoc": {
    "author": "David Lee",
    "kind": "dev",
    "methods": {
      "owner()": {
        "details": "Returns the address of the current owner."
      },
      "renounceOwnership()": {
        "details": "Leaves the contract without owner. It will not be possible to call `onlyOwner` functions anymore. Can only be called by the current owner. NOTE: Renouncing ownership will leave the contract without an owner, thereby removing any functionality that is only available to the owner."
      },
      "transferOwnership(address)": {
        "details": "Transfers ownership of the contract to a new account (`newOwner`). Can only be called by the current owner."
      },
      "updateGameRegistry(address)": {
        "details": "Only owner",
        "params": {
          "_gameRegistry": "TokenRegistry contract address"
        }
      },
      "updateMaintainer(address)": {
        "details": "Only owner",
        "params": {
          "_maintainer": "Maintainer address"
        }
      },
      "updateOparcade(address)": {
        "details": "Only owner",
        "params": {
          "_oparcade": "Oparcade contract address"
        }
      },
      "updateTimelock(address)": {
        "details": "Only owner",
        "params": {
          "_timelock": "Maintainer address"
        }
      }
    },
    "stateVariables": {
      "gameRegistry": {
        "details": "GameRegistry contract address, can be zero if not set"
      },
      "maintainer": {
        "details": "Maintainer address, can be zero if not set"
      },
      "oparcade": {
        "details": "Oparcade contract address, can be zero if not set"
      },
      "timelock": {
        "details": "Timelock contract address, can be zero if not set"
      }
    },
    "title": "AddressRegistry",
    "version": 1
  },
  "userdoc": {
    "kind": "user",
    "methods": {
      "updateGameRegistry(address)": {
        "notice": "Update GameRegistry contract address"
      },
      "updateMaintainer(address)": {
        "notice": "Update maintainer address"
      },
      "updateOparcade(address)": {
        "notice": "Update Oparcade contract address"
      },
      "updateTimelock(address)": {
        "notice": "Update Timelock contract address"
      }
    },
    "notice": "This stores all addresses in the Oparcade",
    "version": 1
  },
  "storageLayout": {
    "storage": [
      {
        "astId": 547,
        "contract": "contracts/AddressRegistry.sol:AddressRegistry",
        "label": "_initialized",
        "offset": 0,
        "slot": "0",
        "type": "t_uint8"
      },
      {
        "astId": 550,
        "contract": "contracts/AddressRegistry.sol:AddressRegistry",
        "label": "_initializing",
        "offset": 1,
        "slot": "0",
        "type": "t_bool"
      },
      {
        "astId": 2098,
        "contract": "contracts/AddressRegistry.sol:AddressRegistry",
        "label": "__gap",
        "offset": 0,
        "slot": "1",
        "type": "t_array(t_uint256)50_storage"
      },
      {
        "astId": 419,
        "contract": "contracts/AddressRegistry.sol:AddressRegistry",
        "label": "_owner",
        "offset": 0,
        "slot": "51",
        "type": "t_address"
      },
      {
        "astId": 539,
        "contract": "contracts/AddressRegistry.sol:AddressRegistry",
        "label": "__gap",
        "offset": 0,
        "slot": "52",
        "type": "t_array(t_uint256)49_storage"
      },
      {
        "astId": 9156,
        "contract": "contracts/AddressRegistry.sol:AddressRegistry",
        "label": "oparcade",
        "offset": 0,
        "slot": "101",
        "type": "t_address"
      },
      {
        "astId": 9159,
        "contract": "contracts/AddressRegistry.sol:AddressRegistry",
        "label": "gameRegistry",
        "offset": 0,
        "slot": "102",
        "type": "t_address"
      },
      {
        "astId": 9162,
        "contract": "contracts/AddressRegistry.sol:AddressRegistry",
        "label": "maintainer",
        "offset": 0,
        "slot": "103",
        "type": "t_address"
      },
      {
        "astId": 9165,
        "contract": "contracts/AddressRegistry.sol:AddressRegistry",
        "label": "timelock",
        "offset": 0,
        "slot": "104",
        "type": "t_address"
      }
    ],
    "types": {
      "t_address": {
        "encoding": "inplace",
        "label": "address",
        "numberOfBytes": "20"
      },
      "t_array(t_uint256)49_storage": {
        "base": "t_uint256",
        "encoding": "inplace",
        "label": "uint256[49]",
        "numberOfBytes": "1568"
      },
      "t_array(t_uint256)50_storage": {
        "base": "t_uint256",
        "encoding": "inplace",
        "label": "uint256[50]",
        "numberOfBytes": "1600"
      },
      "t_bool": {
        "encoding": "inplace",
        "label": "bool",
        "numberOfBytes": "1"
      },
      "t_uint256": {
        "encoding": "inplace",
        "label": "uint256",
        "numberOfBytes": "32"
      },
      "t_uint8": {
        "encoding": "inplace",
        "label": "uint8",
        "numberOfBytes": "1"
      }
    }
  }
}