{
  "address": "0xE1Ce5e28dda4afa79DFA42EcFce8Ab7E60870883",
  "abi": [
    {
      "anonymous": false,
      "inputs": [
        {
          "indexed": true,
          "internalType": "address",
          "name": "by",
          "type": "address"
        },
        {
          "indexed": true,
          "internalType": "uint256",
          "name": "gid",
          "type": "uint256"
        },
        {
          "indexed": true,
          "internalType": "uint256",
          "name": "oldBaseGameCreatorFee",
          "type": "uint256"
        },
        {
          "indexed": false,
          "internalType": "uint256",
          "name": "newBaseGameCreatorFee",
          "type": "uint256"
        }
      ],
      "name": "BaseGameCreatorFeeUpdated",
      "type": "event"
    },
    {
      "anonymous": false,
      "inputs": [
        {
          "indexed": true,
          "internalType": "address",
          "name": "by",
          "type": "address"
        },
        {
          "indexed": true,
          "internalType": "uint256",
          "name": "gid",
          "type": "uint256"
        },
        {
          "indexed": true,
          "internalType": "uint256",
          "name": "tid",
          "type": "uint256"
        },
        {
          "indexed": false,
          "internalType": "string",
          "name": "tournamentName",
          "type": "string"
        },
        {
          "indexed": false,
          "internalType": "address",
          "name": "token",
          "type": "address"
        },
        {
          "indexed": false,
          "internalType": "uint256",
          "name": "oldAmount",
          "type": "uint256"
        },
        {
          "indexed": false,
          "internalType": "uint256",
          "name": "newAmount",
          "type": "uint256"
        }
      ],
      "name": "DepositAmountUpdated",
      "type": "event"
    },
    {
      "anonymous": false,
      "inputs": [
        {
          "indexed": true,
          "internalType": "address",
          "name": "by",
          "type": "address"
        },
        {
          "indexed": true,
          "internalType": "uint256",
          "name": "gid",
          "type": "uint256"
        },
        {
          "indexed": true,
          "internalType": "address",
          "name": "token",
          "type": "address"
        },
        {
          "indexed": false,
          "internalType": "bool",
          "name": "oldStatus",
          "type": "bool"
        },
        {
          "indexed": false,
          "internalType": "bool",
          "name": "newStatus",
          "type": "bool"
        }
      ],
      "name": "DistributableTokenAddressUpdated",
      "type": "event"
    },
    {
      "anonymous": false,
      "inputs": [
        {
          "indexed": true,
          "internalType": "address",
          "name": "by",
          "type": "address"
        },
        {
          "indexed": true,
          "internalType": "uint256",
          "name": "gid",
          "type": "uint256"
        },
        {
          "indexed": false,
          "internalType": "string",
          "name": "gameName",
          "type": "string"
        },
        {
          "indexed": true,
          "internalType": "address",
          "name": "gameCreator",
          "type": "address"
        },
        {
          "indexed": false,
          "internalType": "uint256",
          "name": "baseGameCreatorFee",
          "type": "uint256"
        }
      ],
      "name": "GameAdded",
      "type": "event"
    },
    {
      "anonymous": false,
      "inputs": [
        {
          "indexed": true,
          "internalType": "address",
          "name": "by",
          "type": "address"
        },
        {
          "indexed": true,
          "internalType": "uint256",
          "name": "gid",
          "type": "uint256"
        },
        {
          "indexed": true,
          "internalType": "address",
          "name": "oldGameCreator",
          "type": "address"
        },
        {
          "indexed": false,
          "internalType": "address",
          "name": "newGameCreator",
          "type": "address"
        }
      ],
      "name": "GameCreatorUpdated",
      "type": "event"
    },
    {
      "anonymous": false,
      "inputs": [
        {
          "indexed": true,
          "internalType": "address",
          "name": "by",
          "type": "address"
        },
        {
          "indexed": true,
          "internalType": "uint256",
          "name": "gid",
          "type": "uint256"
        },
        {
          "indexed": false,
          "internalType": "string",
          "name": "gameName",
          "type": "string"
        },
        {
          "indexed": true,
          "internalType": "address",
          "name": "gameCreator",
          "type": "address"
        },
        {
          "indexed": false,
          "internalType": "uint256",
          "name": "baseGameCreatorFee",
          "type": "uint256"
        }
      ],
      "name": "GameRemoved",
      "type": "event"
    },
    {
      "anonymous": false,
      "inputs": [
        {
          "indexed": false,
          "internalType": "uint8",
          "name": "version",
          "type": "uint8"
        }
      ],
      "name": "Initialized",
      "type": "event"
    },
    {
      "anonymous": false,
      "inputs": [
        {
          "indexed": true,
          "internalType": "address",
          "name": "by",
          "type": "address"
        },
        {
          "indexed": true,
          "internalType": "address",
          "name": "oldFeeRecipient",
          "type": "address"
        },
        {
          "indexed": false,
          "internalType": "uint256",
          "name": "oldPlatformFee",
          "type": "uint256"
        },
        {
          "indexed": true,
          "internalType": "address",
          "name": "newFeeRecipient",
          "type": "address"
        },
        {
          "indexed": false,
          "internalType": "uint256",
          "name": "newPlatformFee",
          "type": "uint256"
        }
      ],
      "name": "PlatformFeeUpdated",
      "type": "event"
    },
    {
      "anonymous": false,
      "inputs": [
        {
          "indexed": true,
          "internalType": "bytes32",
          "name": "role",
          "type": "bytes32"
        },
        {
          "indexed": true,
          "internalType": "bytes32",
          "name": "previousAdminRole",
          "type": "bytes32"
        },
        {
          "indexed": true,
          "internalType": "bytes32",
          "name": "newAdminRole",
          "type": "bytes32"
        }
      ],
      "name": "RoleAdminChanged",
      "type": "event"
    },
    {
      "anonymous": false,
      "inputs": [
        {
          "indexed": true,
          "internalType": "bytes32",
          "name": "role",
          "type": "bytes32"
        },
        {
          "indexed": true,
          "internalType": "address",
          "name": "account",
          "type": "address"
        },
        {
          "indexed": true,
          "internalType": "address",
          "name": "sender",
          "type": "address"
        }
      ],
      "name": "RoleGranted",
      "type": "event"
    },
    {
      "anonymous": false,
      "inputs": [
        {
          "indexed": true,
          "internalType": "bytes32",
          "name": "role",
          "type": "bytes32"
        },
        {
          "indexed": true,
          "internalType": "address",
          "name": "account",
          "type": "address"
        },
        {
          "indexed": true,
          "internalType": "address",
          "name": "sender",
          "type": "address"
        }
      ],
      "name": "RoleRevoked",
      "type": "event"
    },
    {
      "anonymous": false,
      "inputs": [
        {
          "indexed": true,
          "internalType": "address",
          "name": "by",
          "type": "address"
        },
        {
          "indexed": true,
          "internalType": "uint256",
          "name": "gid",
          "type": "uint256"
        },
        {
          "indexed": true,
          "internalType": "uint256",
          "name": "tid",
          "type": "uint256"
        },
        {
          "indexed": false,
          "internalType": "string",
          "name": "tournamentName",
          "type": "string"
        },
        {
          "indexed": false,
          "internalType": "uint256",
          "name": "appliedGameCreatorFee",
          "type": "uint256"
        },
        {
          "indexed": false,
          "internalType": "uint256",
          "name": "tournamentCreatorFee",
          "type": "uint256"
        }
      ],
      "name": "TournamentCreated",
      "type": "event"
    },
    {
      "anonymous": false,
      "inputs": [
        {
          "indexed": true,
          "internalType": "address",
          "name": "by",
          "type": "address"
        },
        {
          "indexed": true,
          "internalType": "address",
          "name": "oldTournamentCreationFeeToken",
          "type": "address"
        },
        {
          "indexed": false,
          "internalType": "uint256",
          "name": "oldTournamentCreationFeeAmount",
          "type": "uint256"
        },
        {
          "indexed": true,
          "internalType": "address",
          "name": "newTournamentCreationFeeToken",
          "type": "address"
        },
        {
          "indexed": false,
          "internalType": "uint256",
          "name": "newTournamentCreationFeeAmount",
          "type": "uint256"
        }
      ],
      "name": "TournamentCreationFeeUpdated",
      "type": "event"
    },
    {
      "inputs": [],
      "name": "DEFAULT_ADMIN_ROLE",
      "outputs": [
        {
          "internalType": "bytes32",
          "name": "",
          "type": "bytes32"
        }
      ],
      "stateMutability": "view",
      "type": "function"
    },
    {
      "inputs": [],
      "name": "GAME_MANAGER_ROLE",
      "outputs": [
        {
          "internalType": "bytes32",
          "name": "",
          "type": "bytes32"
        }
      ],
      "stateMutability": "view",
      "type": "function"
    },
    {
      "inputs": [],
      "name": "TOURNAMENT_MANAGER_ROLE",
      "outputs": [
        {
          "internalType": "bytes32",
          "name": "",
          "type": "bytes32"
        }
      ],
      "stateMutability": "view",
      "type": "function"
    },
    {
      "inputs": [
        {
          "internalType": "string",
          "name": "_gameName",
          "type": "string"
        },
        {
          "internalType": "address",
          "name": "_gameCreator",
          "type": "address"
        },
        {
          "internalType": "uint256",
          "name": "_baseGameCreatorFee",
          "type": "uint256"
        }
      ],
      "name": "addGame",
      "outputs": [
        {
          "internalType": "uint256",
          "name": "gid",
          "type": "uint256"
        }
      ],
      "stateMutability": "nonpayable",
      "type": "function"
    },
    {
      "inputs": [],
      "name": "addressRegistry",
      "outputs": [
        {
          "internalType": "contract IAddressRegistry",
          "name": "",
          "type": "address"
        }
      ],
      "stateMutability": "view",
      "type": "function"
    },
    {
      "inputs": [
        {
          "internalType": "uint256",
          "name": "_gid",
          "type": "uint256"
        },
        {
          "internalType": "string",
          "name": "_tournamentName",
          "type": "string"
        },
        {
          "internalType": "uint256",
          "name": "_proposedGameCreatorFee",
          "type": "uint256"
        },
        {
          "internalType": "uint256",
          "name": "_tournamentCreatorFee",
          "type": "uint256"
        }
      ],
      "name": "createTournamentByDAO",
      "outputs": [
        {
          "internalType": "uint256",
          "name": "tid",
          "type": "uint256"
        }
      ],
      "stateMutability": "nonpayable",
      "type": "function"
    },
    {
      "inputs": [
        {
          "internalType": "uint256",
          "name": "_gid",
          "type": "uint256"
        },
        {
          "internalType": "string",
          "name": "_tournamentName",
          "type": "string"
        },
        {
          "internalType": "uint256",
          "name": "_proposedGameCreatorFee",
          "type": "uint256"
        },
        {
          "internalType": "uint256",
          "name": "_tournamentCreatorFee",
          "type": "uint256"
        },
        {
          "components": [
            {
              "internalType": "address",
              "name": "tokenAddress",
              "type": "address"
            },
            {
              "internalType": "uint256",
              "name": "tokenAmount",
              "type": "uint256"
            }
          ],
          "internalType": "struct GameRegistry.Token",
          "name": "_depositToken",
          "type": "tuple"
        },
        {
          "internalType": "address",
          "name": "_distributionTokenAddress",
          "type": "address"
        }
      ],
      "name": "createTournamentByDAOWithTokens",
      "outputs": [
        {
          "internalType": "uint256",
          "name": "tid",
          "type": "uint256"
        }
      ],
      "stateMutability": "nonpayable",
      "type": "function"
    },
    {
      "inputs": [
        {
          "internalType": "uint256",
          "name": "_gid",
          "type": "uint256"
        },
        {
          "internalType": "string",
          "name": "_tournamentName",
          "type": "string"
        },
        {
          "internalType": "uint256",
          "name": "_proposedGameCreatorFee",
          "type": "uint256"
        },
        {
          "internalType": "uint256",
          "name": "_tournamentCreatorFee",
          "type": "uint256"
        },
        {
          "components": [
            {
              "internalType": "address",
              "name": "tokenAddress",
              "type": "address"
            },
            {
              "internalType": "uint256",
              "name": "tokenAmount",
              "type": "uint256"
            }
          ],
          "internalType": "struct GameRegistry.Token",
          "name": "_depositToken",
          "type": "tuple"
        },
        {
          "components": [
            {
              "internalType": "address",
              "name": "tokenAddress",
              "type": "address"
            },
            {
              "internalType": "uint256",
              "name": "tokenAmount",
              "type": "uint256"
            }
          ],
          "internalType": "struct GameRegistry.Token",
          "name": "_tokenToAddPrizePool",
          "type": "tuple"
        },
        {
          "internalType": "address",
          "name": "_nftAddressToAddPrizePool",
          "type": "address"
        },
        {
          "internalType": "uint256",
          "name": "_nftTypeToAddPrizePool",
          "type": "uint256"
        },
        {
          "internalType": "uint256[]",
          "name": "_tokenIdsToAddPrizePool",
          "type": "uint256[]"
        },
        {
          "internalType": "uint256[]",
          "name": "_amountsToAddPrizePool",
          "type": "uint256[]"
        }
      ],
      "name": "createTournamentByUser",
      "outputs": [
        {
          "internalType": "uint256",
          "name": "tid",
          "type": "uint256"
        }
      ],
      "stateMutability": "nonpayable",
      "type": "function"
    },
    {
      "inputs": [],
      "name": "feeRecipient",
      "outputs": [
        {
          "internalType": "address",
          "name": "",
          "type": "address"
        }
      ],
      "stateMutability": "view",
      "type": "function"
    },
    {
      "inputs": [],
      "name": "gameCount",
      "outputs": [
        {
          "internalType": "uint256",
          "name": "",
          "type": "uint256"
        }
      ],
      "stateMutability": "view",
      "type": "function"
    },
    {
      "inputs": [
        {
          "internalType": "uint256",
          "name": "",
          "type": "uint256"
        }
      ],
      "name": "games",
      "outputs": [
        {
          "internalType": "string",
          "name": "name",
          "type": "string"
        },
        {
          "internalType": "address",
          "name": "creatorAddress",
          "type": "address"
        },
        {
          "internalType": "uint256",
          "name": "baseCreatorFee",
          "type": "uint256"
        },
        {
          "internalType": "bool",
          "name": "isDeprecated",
          "type": "bool"
        },
        {
          "internalType": "uint256",
          "name": "tournamentsCount",
          "type": "uint256"
        }
      ],
      "stateMutability": "view",
      "type": "function"
    },
    {
      "inputs": [
        {
          "internalType": "uint256",
          "name": "_gid",
          "type": "uint256"
        },
        {
          "internalType": "uint256",
          "name": "_tid",
          "type": "uint256"
        }
      ],
      "name": "getAppliedGameCreatorFee",
      "outputs": [
        {
          "internalType": "uint256",
          "name": "",
          "type": "uint256"
        }
      ],
      "stateMutability": "view",
      "type": "function"
    },
    {
      "inputs": [
        {
          "internalType": "uint256",
          "name": "_gid",
          "type": "uint256"
        },
        {
          "internalType": "uint256",
          "name": "_tid",
          "type": "uint256"
        },
        {
          "internalType": "address",
          "name": "_tokenAddress",
          "type": "address"
        }
      ],
      "name": "getDepositTokenAmount",
      "outputs": [
        {
          "internalType": "uint256",
          "name": "",
          "type": "uint256"
        }
      ],
      "stateMutability": "view",
      "type": "function"
    },
    {
      "inputs": [
        {
          "internalType": "uint256",
          "name": "_gid",
          "type": "uint256"
        }
      ],
      "name": "getDepositTokenList",
      "outputs": [
        {
          "internalType": "address[]",
          "name": "",
          "type": "address[]"
        }
      ],
      "stateMutability": "view",
      "type": "function"
    },
    {
      "inputs": [
        {
          "internalType": "uint256",
          "name": "_gid",
          "type": "uint256"
        }
      ],
      "name": "getDistributableTokenList",
      "outputs": [
        {
          "internalType": "address[]",
          "name": "",
          "type": "address[]"
        }
      ],
      "stateMutability": "view",
      "type": "function"
    },
    {
      "inputs": [
        {
          "internalType": "uint256",
          "name": "_gid",
          "type": "uint256"
        }
      ],
      "name": "getGameBaseCreatorFee",
      "outputs": [
        {
          "internalType": "uint256",
          "name": "",
          "type": "uint256"
        }
      ],
      "stateMutability": "view",
      "type": "function"
    },
    {
      "inputs": [
        {
          "internalType": "uint256",
          "name": "_gid",
          "type": "uint256"
        }
      ],
      "name": "getGameCreatorAddress",
      "outputs": [
        {
          "internalType": "address",
          "name": "",
          "type": "address"
        }
      ],
      "stateMutability": "view",
      "type": "function"
    },
    {
      "inputs": [
        {
          "internalType": "uint256",
          "name": "_gid",
          "type": "uint256"
        }
      ],
      "name": "getGameName",
      "outputs": [
        {
          "internalType": "string",
          "name": "",
          "type": "string"
        }
      ],
      "stateMutability": "view",
      "type": "function"
    },
    {
      "inputs": [
        {
          "internalType": "bytes32",
          "name": "role",
          "type": "bytes32"
        }
      ],
      "name": "getRoleAdmin",
      "outputs": [
        {
          "internalType": "bytes32",
          "name": "",
          "type": "bytes32"
        }
      ],
      "stateMutability": "view",
      "type": "function"
    },
    {
      "inputs": [
        {
          "internalType": "uint256",
          "name": "_gid",
          "type": "uint256"
        }
      ],
      "name": "getTournamentCount",
      "outputs": [
        {
          "internalType": "uint256",
          "name": "",
          "type": "uint256"
        }
      ],
      "stateMutability": "view",
      "type": "function"
    },
    {
      "inputs": [
        {
          "internalType": "uint256",
          "name": "_gid",
          "type": "uint256"
        },
        {
          "internalType": "uint256",
          "name": "_tid",
          "type": "uint256"
        }
      ],
      "name": "getTournamentCreator",
      "outputs": [
        {
          "internalType": "address",
          "name": "",
          "type": "address"
        }
      ],
      "stateMutability": "view",
      "type": "function"
    },
    {
      "inputs": [
        {
          "internalType": "uint256",
          "name": "_gid",
          "type": "uint256"
        },
        {
          "internalType": "uint256",
          "name": "_tid",
          "type": "uint256"
        }
      ],
      "name": "getTournamentCreatorFee",
      "outputs": [
        {
          "internalType": "uint256",
          "name": "",
          "type": "uint256"
        }
      ],
      "stateMutability": "view",
      "type": "function"
    },
    {
      "inputs": [
        {
          "internalType": "uint256",
          "name": "_gid",
          "type": "uint256"
        },
        {
          "internalType": "uint256",
          "name": "_tid",
          "type": "uint256"
        }
      ],
      "name": "getTournamentName",
      "outputs": [
        {
          "internalType": "string",
          "name": "",
          "type": "string"
        }
      ],
      "stateMutability": "view",
      "type": "function"
    },
    {
      "inputs": [
        {
          "internalType": "bytes32",
          "name": "role",
          "type": "bytes32"
        },
        {
          "internalType": "address",
          "name": "account",
          "type": "address"
        }
      ],
      "name": "grantRole",
      "outputs": [],
      "stateMutability": "nonpayable",
      "type": "function"
    },
    {
      "inputs": [
        {
          "internalType": "bytes32",
          "name": "role",
          "type": "bytes32"
        },
        {
          "internalType": "address",
          "name": "account",
          "type": "address"
        }
      ],
      "name": "hasRole",
      "outputs": [
        {
          "internalType": "bool",
          "name": "",
          "type": "bool"
        }
      ],
      "stateMutability": "view",
      "type": "function"
    },
    {
      "inputs": [
        {
          "internalType": "address",
          "name": "_addressRegistry",
          "type": "address"
        },
        {
          "internalType": "address",
          "name": "_feeRecipient",
          "type": "address"
        },
        {
          "internalType": "uint256",
          "name": "_platformFee",
          "type": "uint256"
        },
        {
          "internalType": "address",
          "name": "_tournamentCreationFeeToken",
          "type": "address"
        },
        {
          "internalType": "uint256",
          "name": "_tournamentCreationFeeAmount",
          "type": "uint256"
        }
      ],
      "name": "initialize",
      "outputs": [],
      "stateMutability": "nonpayable",
      "type": "function"
    },
    {
      "inputs": [
        {
          "internalType": "uint256",
          "name": "_gid",
          "type": "uint256"
        },
        {
          "internalType": "address",
          "name": "_tokenAddress",
          "type": "address"
        }
      ],
      "name": "isDistributable",
      "outputs": [
        {
          "internalType": "bool",
          "name": "",
          "type": "bool"
        }
      ],
      "stateMutability": "view",
      "type": "function"
    },
    {
      "inputs": [
        {
          "internalType": "uint256",
          "name": "_gid",
          "type": "uint256"
        }
      ],
      "name": "isGameDeprecated",
      "outputs": [
        {
          "internalType": "bool",
          "name": "",
          "type": "bool"
        }
      ],
      "stateMutability": "view",
      "type": "function"
    },
    {
      "inputs": [],
      "name": "platformFee",
      "outputs": [
        {
          "internalType": "uint256",
          "name": "",
          "type": "uint256"
        }
      ],
      "stateMutability": "view",
      "type": "function"
    },
    {
      "inputs": [
        {
          "internalType": "uint256",
          "name": "_gid",
          "type": "uint256"
        }
      ],
      "name": "removeGame",
      "outputs": [],
      "stateMutability": "nonpayable",
      "type": "function"
    },
    {
      "inputs": [
        {
          "internalType": "bytes32",
          "name": "role",
          "type": "bytes32"
        },
        {
          "internalType": "address",
          "name": "account",
          "type": "address"
        }
      ],
      "name": "renounceRole",
      "outputs": [],
      "stateMutability": "nonpayable",
      "type": "function"
    },
    {
      "inputs": [
        {
          "internalType": "bytes32",
          "name": "role",
          "type": "bytes32"
        },
        {
          "internalType": "address",
          "name": "account",
          "type": "address"
        }
      ],
      "name": "revokeRole",
      "outputs": [],
      "stateMutability": "nonpayable",
      "type": "function"
    },
    {
      "inputs": [
        {
          "internalType": "bytes4",
          "name": "interfaceId",
          "type": "bytes4"
        }
      ],
      "name": "supportsInterface",
      "outputs": [
        {
          "internalType": "bool",
          "name": "",
          "type": "bool"
        }
      ],
      "stateMutability": "view",
      "type": "function"
    },
    {
      "inputs": [],
      "name": "tournamentCreationFeeAmount",
      "outputs": [
        {
          "internalType": "uint256",
          "name": "",
          "type": "uint256"
        }
      ],
      "stateMutability": "view",
      "type": "function"
    },
    {
      "inputs": [],
      "name": "tournamentCreationFeeToken",
      "outputs": [
        {
          "internalType": "address",
          "name": "",
          "type": "address"
        }
      ],
      "stateMutability": "view",
      "type": "function"
    },
    {
      "inputs": [
        {
          "internalType": "uint256",
          "name": "_gid",
          "type": "uint256"
        },
        {
          "internalType": "uint256",
          "name": "_baseGameCreatorFee",
          "type": "uint256"
        }
      ],
      "name": "updateBaseGameCreatorFee",
      "outputs": [],
      "stateMutability": "nonpayable",
      "type": "function"
    },
    {
      "inputs": [
        {
          "internalType": "uint256",
          "name": "_gid",
          "type": "uint256"
        },
        {
          "internalType": "uint256",
          "name": "_tid",
          "type": "uint256"
        },
        {
          "internalType": "address",
          "name": "_token",
          "type": "address"
        },
        {
          "internalType": "uint256",
          "name": "_amount",
          "type": "uint256"
        }
      ],
      "name": "updateDepositTokenAmount",
      "outputs": [],
      "stateMutability": "nonpayable",
      "type": "function"
    },
    {
      "inputs": [
        {
          "internalType": "uint256",
          "name": "_gid",
          "type": "uint256"
        },
        {
          "internalType": "address",
          "name": "_token",
          "type": "address"
        },
        {
          "internalType": "bool",
          "name": "_isDistributable",
          "type": "bool"
        }
      ],
      "name": "updateDistributableTokenAddress",
      "outputs": [],
      "stateMutability": "nonpayable",
      "type": "function"
    },
    {
      "inputs": [
        {
          "internalType": "uint256",
          "name": "_gid",
          "type": "uint256"
        },
        {
          "internalType": "address",
          "name": "_gameCreator",
          "type": "address"
        }
      ],
      "name": "updateGameCreator",
      "outputs": [],
      "stateMutability": "nonpayable",
      "type": "function"
    },
    {
      "inputs": [
        {
          "internalType": "address",
          "name": "_feeRecipient",
          "type": "address"
        },
        {
          "internalType": "uint256",
          "name": "_platformFee",
          "type": "uint256"
        }
      ],
      "name": "updatePlatformFee",
      "outputs": [],
      "stateMutability": "nonpayable",
      "type": "function"
    },
    {
      "inputs": [
        {
          "internalType": "address",
          "name": "_tournamentCreationFeeToken",
          "type": "address"
        },
        {
          "internalType": "uint256",
          "name": "_tournamentCreationFeeAmount",
          "type": "uint256"
        }
      ],
      "name": "updateTournamentCreationFee",
      "outputs": [],
      "stateMutability": "nonpayable",
      "type": "function"
    }
  ],
  "transactionHash": "0xdcddd8a111a6b1403533bd12a32e31a223c78c14eb84acf4c9b685a085fed33a",
  "args": [],
  "numDeployments": 1,
  "solcInputHash": "1f056055441669d784e7e6671908d28c",
  "bytecode": "0x608060405234801561001057600080fd5b506147a2806100206000396000f3fe608060405234801561001057600080fd5b50600436106102d35760003560e01c80638d2acf0e11610186578063cde8d10a116100e3578063f3ad65f411610097578063f7c00e6311610071578063f7c00e6314610632578063fbf60be414610645578063ff6fcdbd1461065857600080fd5b8063f3ad65f4146105ec578063f406c2d1146105ff578063f483a0ca1461061257600080fd5b8063ddeeec88116100c8578063ddeeec88146105b3578063edcd43ac146105c6578063f30818c1146105d957600080fd5b8063cde8d10a1461058d578063d547741f146105a057600080fd5b8063a7ab05491161013a578063aba869c51161011f578063aba869c514610554578063b6d3bc6414610567578063c94113b51461057a57600080fd5b8063a7ab05491461052e578063a7fbe6ba1461054157600080fd5b806391dd73f01161016b57806391dd73f014610500578063920a236b14610513578063a217fddf1461052657600080fd5b80638d2acf0e146104be57806391d14854146104c757600080fd5b806336568abe116102345780634d1975b4116101e857806364fe328e116101cd57806364fe328e1461048557806371a2304b1461049857806373d31240146104ab57600080fd5b80634d1975b41461046a5780636039197d1461047257600080fd5b806341c92c0a1161021957806341c92c0a146104245780634690484014610437578063478eedc81461044a57600080fd5b806336568abe146103fe5780634116b1ad1461041157600080fd5b8063248a9ca31161028b5780632a42b461116102705780632a42b461146103ad5780632f2ff15d146103d857806335865971146103eb57600080fd5b8063248a9ca31461038157806326232a2e146103a457600080fd5b80630fcf566e116102bc5780630fcf566e14610335578063117a5b901461034a57806322871dcd1461036e57600080fd5b806301ffc9a7146102d85780630b8ff6a914610300575b600080fd5b6102eb6102e6366004613d02565b61067f565b60405190151581526020015b60405180910390f35b6103277fa8c4d79ed8c483e024438d9d6fcb433eca78b35312f8be0ff85ea66aab126e4d81565b6040519081526020016102f7565b610348610343366004613d51565b6106b6565b005b61035d610358366004613d7d565b61083a565b6040516102f7959493929190613dee565b61032761037c366004613e2e565b610919565b61032761038f366004613d7d565b60009081526065602052604090206001015490565b610327609a5481565b609b546103c0906001600160a01b031681565b6040516001600160a01b0390911681526020016102f7565b6103486103e6366004613e50565b610a18565b6103276103f9366004613e80565b610a42565b61034861040c366004613e50565b610b51565b61034861041f366004613e50565b610bdd565b610327610432366004613d7d565b610de2565b6099546103c0906001600160a01b031681565b61045d610458366004613e2e565b610e5b565b6040516102f79190613eb9565b609754610327565b610327610480366004613f25565b610fdc565b610348610493366004613e2e565b611161565b6103486104a6366004613ff8565b611356565b6103486104b9366004613d7d565b6114da565b610327609c5481565b6102eb6104d5366004613e50565b60009182526065602090815260408084206001600160a01b0393909316845291905290205460ff1690565b61034861050e366004614045565b6116e6565b6102eb610521366004613d7d565b6117f6565b610327600081565b61032761053c366004613e2e565b611872565b61032761054f3660046140c5565b611971565b6102eb610562366004613e50565b611c09565b610327610575366004614122565b611c9c565b610348610588366004613d51565b611dec565b6103c061059b366004613d7d565b611f69565b6103486105ae366004613e50565b611feb565b6103276105c13660046141f5565b612010565b6103276105d4366004613d7d565b612492565b61045d6105e7366004613d7d565b61250a565b6098546103c0906001600160a01b031681565b6103c061060d366004613e2e565b61260a565b610625610620366004613d7d565b61270f565b6040516102f791906142e8565b610348610640366004614335565b612795565b610625610653366004613d7d565b612abf565b6103277fef17b1f3c5a412f9c8e887e3abd186802afec7dc657fd3b7002bf87b128dd0b181565b60006001600160e01b03198216637965db0b60e01b14806106b057506301ffc9a760e01b6001600160e01b03198316145b92915050565b6106c16000336104d5565b6107125760405162461bcd60e51b815260206004820152601260248201527f41646d696e20726f6c65206d697373696e67000000000000000000000000000060448201526064015b60405180910390fd5b6001600160a01b038216151580610727575080155b6107735760405162461bcd60e51b815260206004820152601560248201527f46656520726563697069656e74206e6f742073657400000000000000000000006044820152606401610709565b6103e88111156107c55760405162461bcd60e51b815260206004820152601560248201527f506c6174666f726d2066656520657863656564656400000000000000000000006044820152606401610709565b609954609a5460408051918252602082018490526001600160a01b0385811693169133917f41340b8520c039756fdade211d2fd26138ba0673031cebf9ae4ae32d38357062910160405180910390a4609980546001600160a01b0319166001600160a01b039390931692909217909155609a55565b6097818154811061084a57600080fd5b906000526020600020906009020160009150905080600001805461086d90614390565b80601f016020809104026020016040519081016040528092919081815260200182805461089990614390565b80156108e65780601f106108bb576101008083540402835291602001916108e6565b820191906000526020600020905b8154815290600101906020018083116108c957829003601f168201915b50505060018401546002850154600386015460079096015494956001600160a01b039092169490935060ff909116915085565b609754600090839081106109645760405162461bcd60e51b8152602060048201526012602482015271092dcecc2d8d2c840cec2daca40d2dcc8caf60731b6044820152606401610709565b838360978281548110610979576109796143c5565b90600052602060002090600902016007015481106109d45760405162461bcd60e51b8152602060048201526018602482015277092dcecc2d8d2c840e8deeae4dcc2dacadce840d2dcc8caf60431b6044820152606401610709565b609786815481106109e7576109e76143c5565b9060005260206000209060090201600601600086815260200190815260200160002060020154935050505092915050565b600082815260656020526040902060010154610a3381612b43565b610a3d8383612b50565b505050565b60975460009084908110610a8d5760405162461bcd60e51b8152602060048201526012602482015271092dcecc2d8d2c840cec2daca40d2dcc8caf60731b6044820152606401610709565b848460978281548110610aa257610aa26143c5565b9060005260206000209060090201600701548110610afd5760405162461bcd60e51b8152602060048201526018602482015277092dcecc2d8d2c840e8deeae4dcc2dacadce840d2dcc8caf60431b6044820152606401610709565b60978781548110610b1057610b106143c5565b60009182526020808320898452600660099093020191909101815260408083206001600160a01b038916845260040190915290205493505050509392505050565b6001600160a01b0381163314610bcf5760405162461bcd60e51b815260206004820152602f60248201527f416363657373436f6e74726f6c3a2063616e206f6e6c792072656e6f756e636560448201527f20726f6c657320666f722073656c6600000000000000000000000000000000006064820152608401610709565b610bd98282612bf2565b5050565b609754829081108015610c17575060978181548110610bfe57610bfe6143c5565b600091825260209091206003600990920201015460ff16155b610c555760405162461bcd60e51b815260206004820152600f60248201526e47616d65206e6f742061637469766560881b6044820152606401610709565b60978381548110610c6857610c686143c5565b60009182526020909120600990910201600101546001600160a01b03163314610cd35760405162461bcd60e51b815260206004820152601160248201527f4f6e6c792067616d652063726561746f720000000000000000000000000000006044820152606401610709565b6001600160a01b038216610d295760405162461bcd60e51b815260206004820152601960248201527f5a65726f2067616d652063726561746f722061646472657373000000000000006044820152606401610709565b60978381548110610d3c57610d3c6143c5565b6000918252602091829020600990910201600101546040516001600160a01b03858116825290911691859133917fc3ead6876b368fd5723f08611f2323ab6862a20398921fb4c5d8102183752686910160405180910390a48160978481548110610da857610da86143c5565b906000526020600020906009020160010160006101000a8154816001600160a01b0302191690836001600160a01b03160217905550505050565b60975460009082908110610e2d5760405162461bcd60e51b8152602060048201526012602482015271092dcecc2d8d2c840cec2daca40d2dcc8caf60731b6044820152606401610709565b60978381548110610e4057610e406143c5565b90600052602060002090600902016007015491505b50919050565b60975460609083908110610ea65760405162461bcd60e51b8152602060048201526012602482015271092dcecc2d8d2c840cec2daca40d2dcc8caf60731b6044820152606401610709565b838360978281548110610ebb57610ebb6143c5565b9060005260206000209060090201600701548110610f165760405162461bcd60e51b8152602060048201526018602482015277092dcecc2d8d2c840e8deeae4dcc2dacadce840d2dcc8caf60431b6044820152606401610709565b60978681548110610f2957610f296143c5565b600091825260208083208884526006600990930201919091019052604090208054610f5390614390565b80601f0160208091040260200160405190810160405280929190818152602001828054610f7f90614390565b8015610fcc5780601f10610fa157610100808354040283529160200191610fcc565b820191906000526020600020905b815481529060010190602001808311610faf57829003601f168201915b5050505050935050505092915050565b60006110087fa8c4d79ed8c483e024438d9d6fcb433eca78b35312f8be0ff85ea66aab126e4d336104d5565b8061101957506110196000336104d5565b6110655760405162461bcd60e51b815260206004820152601f60248201527f546f75726e616d656e74206d616e6167657220726f6c65206d697373696e67006044820152606401610709565b60975487908110801561109f575060978181548110611086576110866143c5565b600091825260209091206003600990920201015460ff16155b6110dd5760405162461bcd60e51b815260206004820152600f60248201526e47616d65206e6f742061637469766560881b6044820152606401610709565b6110e988888888612c75565b915061110788836110fd60208801886143db565b8760200135612f61565b6097888154811061111a5761111a6143c5565b600091825260208083206001600160a01b03871684526008600990930201919091019052604090205460ff1661115657611156888460016132fa565b509695505050505050565b61118b7fef17b1f3c5a412f9c8e887e3abd186802afec7dc657fd3b7002bf87b128dd0b1336104d5565b8061119c575061119c6000336104d5565b6111e85760405162461bcd60e51b815260206004820152601960248201527f47616d65206d616e6167657220726f6c65206d697373696e67000000000000006044820152606401610709565b609754829081108015611222575060978181548110611209576112096143c5565b600091825260209091206003600990920201015460ff16155b6112605760405162461bcd60e51b815260206004820152600f60248201526e47616d65206e6f742061637469766560881b6044820152606401610709565b6103e882609a54611271919061440e565b11156112bf5760405162461bcd60e51b815260206004820152601960248201527f45786365656465642067616d652063726561746f7220666565000000000000006044820152606401610709565b609783815481106112d2576112d26143c5565b90600052602060002090600902016002015483336001600160a01b03167f1368505f5ab324c064457c30f01846471732247325d44b676e806cc4cd884a708560405161132091815260200190565b60405180910390a4816097848154811061133c5761133c6143c5565b906000526020600020906009020160020181905550505050565b6113807fa8c4d79ed8c483e024438d9d6fcb433eca78b35312f8be0ff85ea66aab126e4d336104d5565b8061139157506113916000336104d5565b6113dd5760405162461bcd60e51b815260206004820152601f60248201527f546f75726e616d656e74206d616e6167657220726f6c65206d697373696e67006044820152606401610709565b6097548490811080156114175750609781815481106113fe576113fe6143c5565b600091825260209091206003600990920201015460ff16155b6114555760405162461bcd60e51b815260206004820152600f60248201526e47616d65206e6f742061637469766560881b6044820152606401610709565b84846097828154811061146a5761146a6143c5565b90600052602060002090600902016007015481106114c55760405162461bcd60e51b8152602060048201526018602482015277092dcecc2d8d2c840e8deeae4dcc2dacadce840d2dcc8caf60431b6044820152606401610709565b6114d187878787612f61565b50505050505050565b6115047fef17b1f3c5a412f9c8e887e3abd186802afec7dc657fd3b7002bf87b128dd0b1336104d5565b8061151557506115156000336104d5565b6115615760405162461bcd60e51b815260206004820152601960248201527f47616d65206d616e6167657220726f6c65206d697373696e67000000000000006044820152606401610709565b60975481908110801561159b575060978181548110611582576115826143c5565b600091825260209091206003600990920201015460ff16155b6115d95760405162461bcd60e51b815260206004820152600f60248201526e47616d65206e6f742061637469766560881b6044820152606401610709565b6001609783815481106115ee576115ee6143c5565b906000526020600020906009020160030160006101000a81548160ff02191690831515021790555060978281548110611629576116296143c5565b906000526020600020906009020160010160009054906101000a90046001600160a01b03166001600160a01b031682336001600160a01b03167f87c3cbb8e83984547de922e1b60d2b0e975685ec4e9aca63d4eb28317d4da56060978681548110611696576116966143c5565b9060005260206000209060090201600001609787815481106116ba576116ba6143c5565b9060005260206000209060090201600201546040516116da9291906144c6565b60405180910390a45050565b6117107fef17b1f3c5a412f9c8e887e3abd186802afec7dc657fd3b7002bf87b128dd0b1336104d5565b8061172157506117216000336104d5565b61176d5760405162461bcd60e51b815260206004820152601960248201527f47616d65206d616e6167657220726f6c65206d697373696e67000000000000006044820152606401610709565b6097548390811080156117a757506097818154811061178e5761178e6143c5565b600091825260209091206003600990920201015460ff16155b6117e55760405162461bcd60e51b815260206004820152600f60248201526e47616d65206e6f742061637469766560881b6044820152606401610709565b6117f08484846132fa565b50505050565b609754600090829081106118415760405162461bcd60e51b8152602060048201526012602482015271092dcecc2d8d2c840cec2daca40d2dcc8caf60731b6044820152606401610709565b60978381548110611854576118546143c5565b600091825260209091206009909102016003015460ff169392505050565b609754600090839081106118bd5760405162461bcd60e51b8152602060048201526012602482015271092dcecc2d8d2c840cec2daca40d2dcc8caf60731b6044820152606401610709565b8383609782815481106118d2576118d26143c5565b906000526020600020906009020160070154811061192d5760405162461bcd60e51b8152602060048201526018602482015277092dcecc2d8d2c840e8deeae4dcc2dacadce840d2dcc8caf60431b6044820152606401610709565b60978681548110611940576119406143c5565b9060005260206000209060090201600601600086815260200190815260200160002060030154935050505092915050565b600061199d7fef17b1f3c5a412f9c8e887e3abd186802afec7dc657fd3b7002bf87b128dd0b1336104d5565b806119ae57506119ae6000336104d5565b6119fa5760405162461bcd60e51b815260206004820152601960248201527f47616d65206d616e6167657220726f6c65206d697373696e67000000000000006044820152606401610709565b83611a475760405162461bcd60e51b815260206004820152600f60248201527f456d7074792067616d65206e616d6500000000000000000000000000000000006044820152606401610709565b6001600160a01b038316611a9d5760405162461bcd60e51b815260206004820152601960248201527f5a65726f2067616d652063726561746f722061646472657373000000000000006044820152606401610709565b6103e882609a54611aae919061440e565b1115611afc5760405162461bcd60e51b815260206004820152601e60248201527f457863656564656420626173652067616d652063726561746f722066656500006044820152606401610709565b50609780546001810180835560008390529091869186919084908110611b2457611b246143c5565b60009182526020909120611b3e9360099092020191613bf5565b508260978281548110611b5357611b536143c5565b906000526020600020906009020160010160006101000a8154816001600160a01b0302191690836001600160a01b031602179055508160978281548110611b9c57611b9c6143c5565b906000526020600020906009020160020181905550826001600160a01b031681336001600160a01b03167f871f6ba5dcb0133e30d68dd1c00225621e34ea9882970c2578c9136a4113d04f888887604051611bf9939291906144e8565b60405180910390a4949350505050565b60975460009083908110611c545760405162461bcd60e51b8152602060048201526012602482015271092dcecc2d8d2c840cec2daca40d2dcc8caf60731b6044820152606401610709565b60978481548110611c6757611c676143c5565b600091825260208083206001600160a01b03871684526008600990930201919091019052604090205460ff1691505092915050565b6000611cc87fa8c4d79ed8c483e024438d9d6fcb433eca78b35312f8be0ff85ea66aab126e4d336104d5565b80611cd95750611cd96000336104d5565b611d255760405162461bcd60e51b815260206004820152601f60248201527f546f75726e616d656e74206d616e6167657220726f6c65206d697373696e67006044820152606401610709565b609754869081108015611d5f575060978181548110611d4657611d466143c5565b600091825260209091206003600990920201015460ff16155b611d9d5760405162461bcd60e51b815260206004820152600f60248201526e47616d65206e6f742061637469766560881b6044820152606401610709565b611de18787878080601f016020809104026020016040519081016040528093929190818152602001838380828437600092019190915250899250889150612c759050565b979650505050505050565b611df76000336104d5565b611e435760405162461bcd60e51b815260206004820152601260248201527f41646d696e20726f6c65206d697373696e6700000000000000000000000000006044820152606401610709565b6001600160a01b038216611ea45760405162461bcd60e51b815260206004820152602260248201527f5a65726f20746f75726e616d656e74206372656174696f6e2066656520746f6b60448201526132b760f11b6064820152608401610709565b60008111611ef45760405162461bcd60e51b815260206004820152601c60248201527f5a65726f20746f75726e616d656e74206372656174696f6e20666565000000006044820152606401610709565b609b54609c5460408051918252602082018490526001600160a01b0385811693169133917f45bc4d0779d14a1aad1c23a7c7276ca222ceb0f53ce9ec76d88470974674a58f910160405180910390a4609b80546001600160a01b0319166001600160a01b039390931692909217909155609c55565b60975460009082908110611fb45760405162461bcd60e51b8152602060048201526012602482015271092dcecc2d8d2c840cec2daca40d2dcc8caf60731b6044820152606401610709565b60978381548110611fc757611fc76143c5565b60009182526020909120600990910201600101546001600160a01b03169392505050565b60008281526065602052604090206001015461200681612b43565b610a3d8383612bf2565b6097546000908c908110801561204d575060978181548110612034576120346143c5565b600091825260209091206003600990920201015460ff16155b61208b5760405162461bcd60e51b815260206004820152600f60248201526e47616d65206e6f742061637469766560881b6044820152606401610709565b609954609c54609b546120af926001600160a01b0391821692339290911690613657565b6120f38d8d8d8080601f0160208091040260200160405190810160405280939291908181526020018383808284376000920191909152508f92508e9150612c759050565b91506121118d8361210760208c018c6143db565b8b60200135612f61565b60978d81548110612124576121246143c5565b9060005260206000209060090201600801600089600001602081019061214a91906143db565b6001600160a01b0316815260208101919091526040016000205460ff16158015612178575060008860200135115b15612195576121958d61218e60208b018b6143db565b60016132fa565b60978d815481106121a8576121a86143c5565b906000526020600020906009020160080160008860000160208101906121ce91906143db565b6001600160a01b0316815260208101919091526040016000205460ff161580156121fc575060008760200135115b15612212576122128d61218e60208a018a6143db565b60208701351561232d57609860009054906101000a90046001600160a01b03166001600160a01b0316638d374f256040518163ffffffff1660e01b8152600401602060405180830381865afa15801561226f573d6000803e3d6000fd5b505050506040513d601f19601f820116820180604052508101906122939190614521565b6001600160a01b0316631de6ba17338f856122b160208d018d6143db565b60405160e086901b6001600160e01b03191681526001600160a01b03948516600482015260248101939093526044830191909152909116606482015260208a0135608482015260a401600060405180830381600087803b15801561231457600080fd5b505af1158015612328573d6000803e3d6000fd5b505050505b846102d1148061233e575084610483145b156124825760978d81548110612356576123566143c5565b600091825260208083206001600160a01b038a1684526008600990930201919091019052604090205460ff16158015612390575060008351115b156123a1576123a18d8760016132fa565b609860009054906101000a90046001600160a01b03166001600160a01b0316638d374f256040518163ffffffff1660e01b8152600401602060405180830381865afa1580156123f4573d6000803e3d6000fd5b505050506040513d601f19601f820116820180604052508101906124189190614521565b6001600160a01b031663b3a833b8338f858a8a8a8a6040518863ffffffff1660e01b815260040161244f9796959493929190614579565b600060405180830381600087803b15801561246957600080fd5b505af115801561247d573d6000803e3d6000fd5b505050505b509b9a5050505050505050505050565b609754600090829081106124dd5760405162461bcd60e51b8152602060048201526012602482015271092dcecc2d8d2c840cec2daca40d2dcc8caf60731b6044820152606401610709565b609783815481106124f0576124f06143c5565b906000526020600020906009020160020154915050919050565b609754606090829081106125555760405162461bcd60e51b8152602060048201526012602482015271092dcecc2d8d2c840cec2daca40d2dcc8caf60731b6044820152606401610709565b60978381548110612568576125686143c5565b9060005260206000209060090201600001805461258490614390565b80601f01602080910402602001604051908101604052809291908181526020018280546125b090614390565b80156125fd5780601f106125d2576101008083540402835291602001916125fd565b820191906000526020600020905b8154815290600101906020018083116125e057829003601f168201915b5050505050915050919050565b609754600090839081106126555760405162461bcd60e51b8152602060048201526012602482015271092dcecc2d8d2c840cec2daca40d2dcc8caf60731b6044820152606401610709565b83836097828154811061266a5761266a6143c5565b90600052602060002090600902016007015481106126c55760405162461bcd60e51b8152602060048201526018602482015277092dcecc2d8d2c840e8deeae4dcc2dacadce840d2dcc8caf60431b6044820152606401610709565b609786815481106126d8576126d86143c5565b60009182526020808320888452600660099093020191909101905260409020600101546001600160a01b0316935050505092915050565b606060978281548110612724576127246143c5565b906000526020600020906009020160050180548060200260200160405190810160405280929190818152602001828054801561278957602002820191906000526020600020905b81546001600160a01b0316815260019091019060200180831161276b575b50505050509050919050565b600054610100900460ff16158080156127b55750600054600160ff909116105b806127cf5750303b1580156127cf575060005460ff166001145b6128415760405162461bcd60e51b815260206004820152602e60248201527f496e697469616c697a61626c653a20636f6e747261637420697320616c72656160448201527f647920696e697469616c697a65640000000000000000000000000000000000006064820152608401610709565b6000805460ff191660011790558015612864576000805461ff0019166101001790555b61286c6136c6565b612877600033612b50565b6128a17fef17b1f3c5a412f9c8e887e3abd186802afec7dc657fd3b7002bf87b128dd0b133612b50565b6128cb7fa8c4d79ed8c483e024438d9d6fcb433eca78b35312f8be0ff85ea66aab126e4d33612b50565b6001600160a01b0386166129215760405162461bcd60e51b815260206004820152601560248201527f5a65726f206164647265737320726567697374727900000000000000000000006044820152606401610709565b6001600160a01b0383166129775760405162461bcd60e51b815260206004820152601960248201527f5a65726f20746f75726e616d656e742066656520746f6b656e000000000000006044820152606401610709565b6001600160a01b03851615158061298c575083155b6129d85760405162461bcd60e51b815260206004820152601560248201527f46656520726563697069656e74206e6f742073657400000000000000000000006044820152606401610709565b6103e8841115612a2a5760405162461bcd60e51b815260206004820152601560248201527f506c6174666f726d2066656520657863656564656400000000000000000000006044820152606401610709565b609880546001600160a01b038089166001600160a01b03199283161790925560998054888416908316179055609a869055609b805492861692909116919091179055609c8290558015612ab7576000805461ff0019169055604051600181527f7f26b83ff96e1f2b6a682f133852f6798a09c465da95921460cefb38474024989060200160405180910390a15b505050505050565b606060978281548110612ad457612ad46143c5565b9060005260206000209060090201600401805480602002602001604051908101604052809291908181526020018280548015612789576020028201919060005260206000209081546001600160a01b0316815260019091019060200180831161276b5750505050509050919050565b612b4d8133613745565b50565b60008281526065602090815260408083206001600160a01b038516845290915290205460ff16610bd95760008281526065602090815260408083206001600160a01b03851684529091529020805460ff19166001179055612bae3390565b6001600160a01b0316816001600160a01b0316837f2f8788117e7eff1d82e926ec794901d17c78024a50270940304540a733656f0d60405160405180910390a45050565b60008281526065602090815260408083206001600160a01b038516845290915290205460ff1615610bd95760008281526065602090815260408083206001600160a01b0385168085529252808320805460ff1916905551339285917ff6391f5c32d9c69d2a47ea670b442974b53935d1edc7fd64eb21e047a839171b9190a45050565b60008083612ca95760978681548110612c9057612c906143c5565b9060005260206000209060090201600201549050612cac565b50825b8060978781548110612cc057612cc06143c5565b9060005260206000209060090201600201541115612d205760405162461bcd60e51b815260206004820152601d60248201527f4c6f772067616d652063726561746f72206665652070726f706f7365640000006044820152606401610709565b6103e88382609a54612d32919061440e565b612d3c919061440e565b1115612d8a5760405162461bcd60e51b815260206004820152600d60248201527f45786365656465642066656573000000000000000000000000000000000000006044820152606401610709565b60978681548110612d9d57612d9d6143c5565b9060005260206000209060090201600701549150600160978781548110612dc657612dc66143c5565b90600052602060002090600902016007016000828254612de6919061440e565b925050819055508460978781548110612e0157612e016143c5565b906000526020600020906009020160060160008481526020019081526020016000206000019080519060200190612e39929190613c79565b503360978781548110612e4e57612e4e6143c5565b9060005260206000209060090201600601600084815260200190815260200160002060010160006101000a8154816001600160a01b0302191690836001600160a01b031602179055508060978781548110612eab57612eab6143c5565b90600052602060002090600902016006016000848152602001908152602001600020600301819055508260978781548110612ee857612ee86143c5565b90600052602060002090600902016006016000848152602001908152602001600020600201819055508186336001600160a01b03167f5b1600316d8d2966d4cad163e656448a5622202016ec8b306efe11d70fa58d51888588604051612f50939291906145d7565b60405180910390a450949350505050565b8284336001600160a01b03167fa5c159e7b999109ecb53422b7b9c90ccbadb6ed8896d2e239257d284ce6d57aa60978881548110612fa157612fa16143c5565b906000526020600020906009020160060160008881526020019081526020016000206000018660978a81548110612fda57612fda6143c5565b600091825260208083208c8452600660099093020191909101815260408083206001600160a01b038c168452600401909152908190205490516130219392919089906145fc565b60405180910390a480156130d15760978481548110613042576130426143c5565b60009182526020808320868452600660099093020191909101815260408083206001600160a01b03861684526004019091529020546130cc576097848154811061308e5761308e6143c5565b60009182526020808320600992909202909101600501805460018101825590835291200180546001600160a01b0319166001600160a01b0384161790555b6132a9565b60005b609785815481106130e7576130e76143c5565b9060005260206000209060090201600501805490508110156132a75760978581548110613116576131166143c5565b90600052602060002090600902016005018181548110613138576131386143c5565b6000918252602090912001546001600160a01b0384811691161415613295576097858154811061316a5761316a6143c5565b9060005260206000209060090201600501600160978781548110613190576131906143c5565b9060005260206000209060090201600501805490506131af9190614634565b815481106131bf576131bf6143c5565b600091825260209091200154609780546001600160a01b0390921691879081106131eb576131eb6143c5565b9060005260206000209060090201600501828154811061320d5761320d6143c5565b9060005260206000200160006101000a8154816001600160a01b0302191690836001600160a01b031602179055506097858154811061324e5761324e6143c5565b906000526020600020906009020160050180548061326e5761326e61464b565b600082815260209020810160001990810180546001600160a01b03191690550190556132a7565b8061329f81614661565b9150506130d4565b505b80609785815481106132bd576132bd6143c5565b600091825260208083209683526006600990920290960101855260408082206001600160a01b039095168252600490940190945291909220555050565b816001600160a01b031683336001600160a01b03167f55c3f1ffae9780d4a4ce8073352d34fea806bb40540f99c3e32abaac63de3b1b60978781548110613343576133436143c5565b600091825260208083206001600160a01b038a168452600992909202909101600801815260409182902054825160ff90911615158152871515918101919091520160405180910390a4801561342b57609783815481106133a5576133a56143c5565b600091825260208083206001600160a01b03861684526008600990930201919091019052604090205460ff1661342657609783815481106133e8576133e86143c5565b60009182526020808320600992909202909101600401805460018101825590835291200180546001600160a01b0319166001600160a01b0384161790555b613603565b60005b60978481548110613441576134416143c5565b9060005260206000209060090201600401805490508110156136015760978481548110613470576134706143c5565b90600052602060002090600902016004018181548110613492576134926143c5565b6000918252602090912001546001600160a01b03848116911614156135ef57609784815481106134c4576134c46143c5565b90600052602060002090600902016004016001609786815481106134ea576134ea6143c5565b9060005260206000209060090201600401805490506135099190614634565b81548110613519576135196143c5565b600091825260209091200154609780546001600160a01b039092169186908110613545576135456143c5565b90600052602060002090600902016004018281548110613567576135676143c5565b9060005260206000200160006101000a8154816001600160a01b0302191690836001600160a01b03160217905550609784815481106135a8576135a86143c5565b90600052602060002090600902016004018054806135c8576135c861464b565b600082815260209020810160001990810180546001600160a01b0319169055019055613601565b806135f981614661565b91505061342e565b505b8060978481548110613617576136176143c5565b600091825260208083206001600160a01b03909616835260086009909202909501019093526040909220805492151560ff19909316929092179091555050565b604080516001600160a01b0385811660248301528416604482015260648082018490528251808303909101815260849091019091526020810180517bffffffffffffffffffffffffffffffffffffffffffffffffffffffff166323b872dd60e01b1790526117f09085906137ba565b600054610100900460ff166137435760405162461bcd60e51b815260206004820152602b60248201527f496e697469616c697a61626c653a20636f6e7472616374206973206e6f74206960448201527f6e697469616c697a696e670000000000000000000000000000000000000000006064820152608401610709565b565b60008281526065602090815260408083206001600160a01b038516845290915290205460ff16610bd9576137788161389f565b6137838360206138b1565b60405160200161379492919061467c565b60408051601f198184030181529082905262461bcd60e51b825261070991600401613eb9565b600061380f826040518060400160405280602081526020017f5361666545524332303a206c6f772d6c6576656c2063616c6c206661696c6564815250856001600160a01b0316613a619092919063ffffffff16565b805190915015610a3d578080602001905181019061382d91906146fd565b610a3d5760405162461bcd60e51b815260206004820152602a60248201527f5361666545524332303a204552433230206f7065726174696f6e20646964206e60448201527f6f742073756363656564000000000000000000000000000000000000000000006064820152608401610709565b60606106b06001600160a01b03831660145b606060006138c083600261471a565b6138cb90600261440e565b67ffffffffffffffff8111156138e3576138e3613ecc565b6040519080825280601f01601f19166020018201604052801561390d576020820181803683370190505b509050600360fc1b81600081518110613928576139286143c5565b60200101906001600160f81b031916908160001a905350600f60fb1b81600181518110613957576139576143c5565b60200101906001600160f81b031916908160001a905350600061397b84600261471a565b61398690600161440e565b90505b6001811115613a0b577f303132333435363738396162636465660000000000000000000000000000000085600f16601081106139c7576139c76143c5565b1a60f81b8282815181106139dd576139dd6143c5565b60200101906001600160f81b031916908160001a90535060049490941c93613a0481614739565b9050613989565b508315613a5a5760405162461bcd60e51b815260206004820181905260248201527f537472696e67733a20686578206c656e67746820696e73756666696369656e746044820152606401610709565b9392505050565b6060613a708484600085613a78565b949350505050565b606082471015613af05760405162461bcd60e51b815260206004820152602660248201527f416464726573733a20696e73756666696369656e742062616c616e636520666f60448201527f722063616c6c00000000000000000000000000000000000000000000000000006064820152608401610709565b600080866001600160a01b03168587604051613b0c9190614750565b60006040518083038185875af1925050503d8060008114613b49576040519150601f19603f3d011682016040523d82523d6000602084013e613b4e565b606091505b5091509150611de18783838760608315613bc6578251613bbf576001600160a01b0385163b613bbf5760405162461bcd60e51b815260206004820152601d60248201527f416464726573733a2063616c6c20746f206e6f6e2d636f6e74726163740000006044820152606401610709565b5081613a70565b613a708383815115613bdb5781518083602001fd5b8060405162461bcd60e51b81526004016107099190613eb9565b828054613c0190614390565b90600052602060002090601f016020900481019282613c235760008555613c69565b82601f10613c3c5782800160ff19823516178555613c69565b82800160010185558215613c69579182015b82811115613c69578235825591602001919060010190613c4e565b50613c75929150613ced565b5090565b828054613c8590614390565b90600052602060002090601f016020900481019282613ca75760008555613c69565b82601f10613cc057805160ff1916838001178555613c69565b82800160010185558215613c69579182015b82811115613c69578251825591602001919060010190613cd2565b5b80821115613c755760008155600101613cee565b600060208284031215613d1457600080fd5b81356001600160e01b031981168114613a5a57600080fd5b6001600160a01b0381168114612b4d57600080fd5b8035613d4c81613d2c565b919050565b60008060408385031215613d6457600080fd5b8235613d6f81613d2c565b946020939093013593505050565b600060208284031215613d8f57600080fd5b5035919050565b60005b83811015613db1578181015183820152602001613d99565b838111156117f05750506000910152565b60008151808452613dda816020860160208601613d96565b601f01601f19169290920160200192915050565b60a081526000613e0160a0830188613dc2565b6001600160a01b039690961660208301525060408101939093529015156060830152608090910152919050565b60008060408385031215613e4157600080fd5b50508035926020909101359150565b60008060408385031215613e6357600080fd5b823591506020830135613e7581613d2c565b809150509250929050565b600080600060608486031215613e9557600080fd5b83359250602084013591506040840135613eae81613d2c565b809150509250925092565b602081526000613a5a6020830184613dc2565b634e487b7160e01b600052604160045260246000fd5b604051601f8201601f1916810167ffffffffffffffff81118282101715613f0b57613f0b613ecc565b604052919050565b600060408284031215610e5557600080fd5b60008060008060008060e08789031215613f3e57600080fd5b8635955060208088013567ffffffffffffffff80821115613f5e57600080fd5b818a0191508a601f830112613f7257600080fd5b813581811115613f8457613f84613ecc565b613f96601f8201601f19168501613ee2565b91508082528b84828501011115613fac57600080fd5b80848401858401376000848284010152508097505050506040870135935060608701359250613fde8860808901613f13565b9150613fec60c08801613d41565b90509295509295509295565b6000806000806080858703121561400e57600080fd5b8435935060208501359250604085013561402781613d2c565b9396929550929360600135925050565b8015158114612b4d57600080fd5b60008060006060848603121561405a57600080fd5b83359250602084013561406c81613d2c565b91506040840135613eae81614037565b60008083601f84011261408e57600080fd5b50813567ffffffffffffffff8111156140a657600080fd5b6020830191508360208285010111156140be57600080fd5b9250929050565b600080600080606085870312156140db57600080fd5b843567ffffffffffffffff8111156140f257600080fd5b6140fe8782880161407c565b909550935050602085013561411281613d2c565b9396929550929360400135925050565b60008060008060006080868803121561413a57600080fd5b85359450602086013567ffffffffffffffff81111561415857600080fd5b6141648882890161407c565b9699909850959660408101359660609091013595509350505050565b600082601f83011261419157600080fd5b8135602067ffffffffffffffff8211156141ad576141ad613ecc565b8160051b6141bc828201613ee2565b92835284810182019282810190878511156141d657600080fd5b83870192505b84831015611de1578235825291830191908301906141dc565b60008060008060008060008060008060006101808c8e03121561421757600080fd5b8b359a5067ffffffffffffffff8060208e0135111561423557600080fd5b6142458e60208f01358f0161407c565b909b50995060408d0135985060608d013597506142658e60808f01613f13565b96506142748e60c08f01613f13565b95506142836101008e01613d41565b94506101208d01359350806101408e0135111561429f57600080fd5b6142b08e6101408f01358f01614180565b9250806101608e013511156142c457600080fd5b506142d68d6101608e01358e01614180565b90509295989b509295989b9093969950565b6020808252825182820181905260009190848201906040850190845b818110156143295783516001600160a01b031683529284019291840191600101614304565b50909695505050505050565b600080600080600060a0868803121561434d57600080fd5b853561435881613d2c565b9450602086013561436881613d2c565b935060408601359250606086013561437f81613d2c565b949793965091946080013592915050565b600181811c908216806143a457607f821691505b60208210811415610e5557634e487b7160e01b600052602260045260246000fd5b634e487b7160e01b600052603260045260246000fd5b6000602082840312156143ed57600080fd5b8135613a5a81613d2c565b634e487b7160e01b600052601160045260246000fd5b60008219821115614421576144216143f8565b500190565b8054600090600181811c908083168061444057607f831692505b602080841082141561446257634e487b7160e01b600052602260045260246000fd5b8388526020880182801561447d576001811461448e576144b9565b60ff198716825282820197506144b9565b60008981526020902060005b878110156144b35781548482015290860190840161449a565b83019850505b5050505050505092915050565b6040815260006144d96040830185614426565b90508260208301529392505050565b604081528260408201528284606083013760006060848301015260006060601f19601f8601168301019050826020830152949350505050565b60006020828403121561453357600080fd5b8151613a5a81613d2c565b600081518084526020808501945080840160005b8381101561456e57815187529582019590820190600101614552565b509495945050505050565b60006001600160a01b03808a16835288602084015287604084015280871660608401525084608083015260e060a08301526145b760e083018561453e565b82810360c08401526145c9818561453e565b9a9950505050505050505050565b6060815260006145ea6060830186613dc2565b60208301949094525060400152919050565b60808152600061460f6080830187614426565b6001600160a01b03959095166020830152506040810192909252606090910152919050565b600082821015614646576146466143f8565b500390565b634e487b7160e01b600052603160045260246000fd5b6000600019821415614675576146756143f8565b5060010190565b7f416363657373436f6e74726f6c3a206163636f756e74200000000000000000008152600083516146b4816017850160208801613d96565b7f206973206d697373696e6720726f6c652000000000000000000000000000000060179184019182015283516146f1816028840160208801613d96565b01602801949350505050565b60006020828403121561470f57600080fd5b8151613a5a81614037565b6000816000190483118215151615614734576147346143f8565b500290565b600081614748576147486143f8565b506000190190565b60008251614762818460208701613d96565b919091019291505056fea26469706673582212208c04bf86ecc25c8e28a333ffc547d6baa48ebe6c703c723fe9cb8ac9d628203764736f6c634300080b0033",
  "devdoc": {
    "author": "David Lee",
    "kind": "dev",
    "methods": {
      "addGame(string,address,uint256)": {
        "details": "Base game creator fee is the minimum fee vaule that the game creator should be rewarded from the tournamnet of the gameWhen creating the tournament of the game, the game creator fee can be proposed by the tournament creatorbut the proposed value can't be less than the base oneIf the proposed game creator fee is 0, the base game creator fee will be applied",
        "params": {
          "_baseGameCreatorFee": "Base game creator fee",
          "_gameCreator": "Game creator address",
          "_gameName": "Game name to add"
        }
      },
      "createTournamentByDAO(uint256,string,uint256,uint256)": {
        "details": "Only ownerIf the proposed game creaetor fee is 0, the base game creator fee is appliedThe prize pool for the tournament that the owner created is initialized on Oparcade contract",
        "params": {
          "_gid": "Game ID",
          "_proposedGameCreatorFee": "Proposed game creator fee",
          "_tournamentCreatorFee": "Tournament creator fee"
        },
        "returns": {
          "tid": "Tournament ID created"
        }
      },
      "createTournamentByDAOWithTokens(uint256,string,uint256,uint256,(address,uint256),address)": {
        "details": "Only ownerIf the proposed game creaetor fee is 0, the base game creator fee is appliedThe prize pool for the tournament that the owner created is initialized on Oparcade contract",
        "params": {
          "_depositToken": "Token to allow/disallow the deposit",
          "_distributionTokenAddress": "Distribution token address to be set to active",
          "_gid": "Game ID",
          "_proposedGameCreatorFee": "Proposed game creator fee",
          "_tournamentCreatorFee": "Tournament creator fee"
        },
        "returns": {
          "tid": "Tournament ID created"
        }
      },
      "createTournamentByUser(uint256,string,uint256,uint256,(address,uint256),(address,uint256),address,uint256,uint256[],uint256[])": {
        "details": "Anyone can create the tournament and initialize the prize pool with tokens and NFTsTournament creator should set all params necessary for the tournament in 1 tx andthe params set is immutable. It will be prevent the fraud tournament is createdTournament creator should pay fees to create the tournamentand the fee token address and fee token amount are set by the ownerIf the proposed game creaetor fee is 0, the base game creator fee is appliedNFT type to initialize the prize pool should be either 721 or 1155",
        "params": {
          "_amountsToAddPrizePool": "NFT token amount list to initialize the prize pool",
          "_depositToken": "Deposit token (address and amount) for playing the tournament",
          "_gid": "Game ID",
          "_nftAddressToAddPrizePool": "NFT address to initialize the prize pool",
          "_nftTypeToAddPrizePool": "NFT type to initialize the prize pool",
          "_proposedGameCreatorFee": "Proposed game creator fee",
          "_tokenIdsToAddPrizePool": "NFT token Id list to initialize the prize pool",
          "_tokenToAddPrizePool": "Token (address and amount) to initialize the prize pool",
          "_tournamentCreatorFee": "Tournament creator fee"
        },
        "returns": {
          "tid": "Tournament ID created"
        }
      },
      "gameCount()": {
        "returns": {
          "_0": "(uint256) Amount of games created"
        }
      },
      "getAppliedGameCreatorFee(uint256,uint256)": {
        "params": {
          "_gid": "Game ID",
          "_tid": "Tournament ID"
        },
        "returns": {
          "_0": "(string) Game applied game creator fee of a tournament"
        }
      },
      "getDepositTokenAmount(uint256,uint256,address)": {
        "params": {
          "_gid": "Game ID",
          "_tid": "Tournament ID",
          "_tokenAddress": "token address"
        },
        "returns": {
          "_0": "(uint256) Tournament deposit token amount"
        }
      },
      "getDepositTokenList(uint256)": {
        "params": {
          "": "(address[]) Deposit token list of the game",
          "_gid": "Game ID"
        }
      },
      "getDistributableTokenList(uint256)": {
        "params": {
          "": "(address[]) Distributable token list of the game",
          "_gid": "Game ID"
        }
      },
      "getGameBaseCreatorFee(uint256)": {
        "params": {
          "_gid": "Game ID"
        },
        "returns": {
          "_0": "(uint256) Game creator fee"
        }
      },
      "getGameCreatorAddress(uint256)": {
        "params": {
          "_gid": "Game ID"
        },
        "returns": {
          "_0": "(string) Game creator address"
        }
      },
      "getGameName(uint256)": {
        "params": {
          "_gid": "Game ID"
        },
        "returns": {
          "_0": "(string) Game name"
        }
      },
      "getRoleAdmin(bytes32)": {
        "details": "Returns the admin role that controls `role`. See {grantRole} and {revokeRole}. To change a role's admin, use {_setRoleAdmin}."
      },
      "getTournamentCount(uint256)": {
        "params": {
          "_gid": "Game ID"
        },
        "returns": {
          "_0": "(uint256) Number of the tournament"
        }
      },
      "getTournamentCreator(uint256,uint256)": {
        "params": {
          "_gid": "Game ID",
          "_tid": "Tournament ID"
        },
        "returns": {
          "_0": "(address) Tournament creator address"
        }
      },
      "getTournamentCreatorFee(uint256,uint256)": {
        "params": {
          "_gid": "Game ID",
          "_tid": "Tournament ID"
        },
        "returns": {
          "_0": "(uint256) Tournament creator fee"
        }
      },
      "getTournamentName(uint256,uint256)": {
        "params": {
          "_gid": "Game ID",
          "_tid": "Tournament ID"
        },
        "returns": {
          "_0": "(string) Tournament name"
        }
      },
      "grantRole(bytes32,address)": {
        "details": "Grants `role` to `account`. If `account` had not been already granted `role`, emits a {RoleGranted} event. Requirements: - the caller must have ``role``'s admin role. May emit a {RoleGranted} event."
      },
      "hasRole(bytes32,address)": {
        "details": "Returns `true` if `account` has been granted `role`."
      },
      "isDistributable(uint256,address)": {
        "params": {
          "_gid": "Game ID",
          "_tokenAddress": "token address"
        },
        "returns": {
          "_0": "(uint256) Is token distributable"
        }
      },
      "isGameDeprecated(uint256)": {
        "params": {
          "_gid": "Game ID"
        },
        "returns": {
          "_0": "(bool) Is deprecated"
        }
      },
      "removeGame(uint256)": {
        "details": "Game is not removed from the games array, just set it deprecated",
        "params": {
          "_gid": "Game ID"
        }
      },
      "renounceRole(bytes32,address)": {
        "details": "Revokes `role` from the calling account. Roles are often managed via {grantRole} and {revokeRole}: this function's purpose is to provide a mechanism for accounts to lose their privileges if they are compromised (such as when a trusted device is misplaced). If the calling account had been revoked `role`, emits a {RoleRevoked} event. Requirements: - the caller must be `account`. May emit a {RoleRevoked} event."
      },
      "revokeRole(bytes32,address)": {
        "details": "Revokes `role` from `account`. If `account` had been granted `role`, emits a {RoleRevoked} event. Requirements: - the caller must have ``role``'s admin role. May emit a {RoleRevoked} event."
      },
      "supportsInterface(bytes4)": {
        "details": "See {IERC165-supportsInterface}."
      },
      "updateBaseGameCreatorFee(uint256,uint256)": {
        "details": "Tournament creator fee is the royality that will be transferred to the tournament creator addressTournament creator can propose the game creator fee when creating the tournamentbut it can't be less than the base game creator fee",
        "params": {
          "_baseGameCreatorFee": "Base game creator fee",
          "_gid": "Game ID"
        }
      },
      "updateDepositTokenAmount(uint256,uint256,address,uint256)": {
        "details": "Only ownerOnly tokens with an amount greater than zero is valid for the deposit",
        "params": {
          "_amount": "Token amount",
          "_gid": "Game ID",
          "_tid": "Tournament ID",
          "_token": "Token address to allow/disallow the deposit"
        }
      },
      "updateDistributableTokenAddress(uint256,address,bool)": {
        "details": "Only owner",
        "params": {
          "_gid": "Game ID",
          "_isDistributable": "true: distributable false: not distributable",
          "_token": "Token address to allow/disallow the deposit"
        }
      },
      "updateGameCreator(uint256,address)": {
        "params": {
          "_gameCreator": "Game creator address",
          "_gid": "Game ID"
        }
      },
      "updatePlatformFee(address,uint256)": {
        "details": "Only ownerAllow zero recipient address only of fee is also zero",
        "params": {
          "_feeRecipient": "Platform fee recipient address",
          "_platformFee": "platform fee"
        }
      },
      "updateTournamentCreationFee(address,uint256)": {
        "details": "Only ownerTournament creator should pay this fee when creating the tournament",
        "params": {
          "_tournamentCreationFeeAmount": "Fee token amount",
          "_tournamentCreationFeeToken": "Fee token address"
        }
      }
    },
    "stateVariables": {
      "MAX_PERMILLAGE": {
        "details": "Max fee constant in permillage (percentage * 10)"
      },
      "addressRegistry": {
        "details": "AddressRegistry"
      },
      "feeRecipient": {
        "details": "Platform fee recipient"
      },
      "games": {
        "details": "Game name array"
      },
      "platformFee": {
        "details": "Platform fee"
      },
      "tournamentCreationFeeAmount": {
        "details": "Tournament creation fee token amount"
      },
      "tournamentCreationFeeToken": {
        "details": "Tournament creation fee token address"
      }
    },
    "title": "GameRegistry",
    "version": 1
  },
  "userdoc": {
    "kind": "user",
    "methods": {
      "addGame(string,address,uint256)": {
        "notice": "Add the new game"
      },
      "createTournamentByDAO(uint256,string,uint256,uint256)": {
        "notice": "Create the tournament"
      },
      "createTournamentByDAOWithTokens(uint256,string,uint256,uint256,(address,uint256),address)": {
        "notice": "Create the tournament and set tokens"
      },
      "createTournamentByUser(uint256,string,uint256,uint256,(address,uint256),(address,uint256),address,uint256,uint256[],uint256[])": {
        "notice": "Create the tournament"
      },
      "gameCount()": {
        "notice": "Returns the number of games created"
      },
      "getAppliedGameCreatorFee(uint256,uint256)": {
        "notice": "Returns the applied game creator fee of the specific tournament"
      },
      "getDepositTokenAmount(uint256,uint256,address)": {
        "notice": "Returns the deposit token amount of the specific tournament"
      },
      "getDepositTokenList(uint256)": {
        "notice": "Returns the deposit token list of the game"
      },
      "getDistributableTokenList(uint256)": {
        "notice": "Returns the distributable token list of the game"
      },
      "getGameBaseCreatorFee(uint256)": {
        "notice": "Returns the game creator fee"
      },
      "getGameCreatorAddress(uint256)": {
        "notice": "Returns the game creator address"
      },
      "getGameName(uint256)": {
        "notice": "Returns the game name"
      },
      "getTournamentCount(uint256)": {
        "notice": "Returns the number of the tournaments of the specific game"
      },
      "getTournamentCreator(uint256,uint256)": {
        "notice": "Returns the tournament creator address of the specific tournament"
      },
      "getTournamentCreatorFee(uint256,uint256)": {
        "notice": "Returns the tournament creator fee of the specific tournament"
      },
      "getTournamentName(uint256,uint256)": {
        "notice": "Returns the tournament name of the specific tournament"
      },
      "isDistributable(uint256,address)": {
        "notice": "Returns true if the token of a specific game is distributable, false otherwise"
      },
      "isGameDeprecated(uint256)": {
        "notice": "Returns a boolean indicating if a specific game is deprecated"
      },
      "removeGame(uint256)": {
        "notice": "Remove the exising game"
      },
      "updateBaseGameCreatorFee(uint256,uint256)": {
        "notice": "Update the base game creator fee"
      },
      "updateDepositTokenAmount(uint256,uint256,address,uint256)": {
        "notice": "Update deposit token amount"
      },
      "updateDistributableTokenAddress(uint256,address,bool)": {
        "notice": "Update distributable token address"
      },
      "updateGameCreator(uint256,address)": {
        "notice": "Update the game creator"
      },
      "updatePlatformFee(address,uint256)": {
        "notice": "Update the platform fee"
      },
      "updateTournamentCreationFee(address,uint256)": {
        "notice": "Update the tournament creation fee"
      }
    },
    "notice": "This contract stores all info related to the game and tournament creation",
    "version": 1
  },
  "storageLayout": {
    "storage": [
      {
        "astId": 547,
        "contract": "contracts/GameRegistry.sol:GameRegistry",
        "label": "_initialized",
        "offset": 0,
        "slot": "0",
        "type": "t_uint8"
      },
      {
        "astId": 550,
        "contract": "contracts/GameRegistry.sol:GameRegistry",
        "label": "_initializing",
        "offset": 1,
        "slot": "0",
        "type": "t_bool"
      },
      {
        "astId": 2098,
        "contract": "contracts/GameRegistry.sol:GameRegistry",
        "label": "__gap",
        "offset": 0,
        "slot": "1",
        "type": "t_array(t_uint256)50_storage"
      },
      {
        "astId": 2317,
        "contract": "contracts/GameRegistry.sol:GameRegistry",
        "label": "__gap",
        "offset": 0,
        "slot": "51",
        "type": "t_array(t_uint256)50_storage"
      },
      {
        "astId": 39,
        "contract": "contracts/GameRegistry.sol:GameRegistry",
        "label": "_roles",
        "offset": 0,
        "slot": "101",
        "type": "t_mapping(t_bytes32,t_struct(RoleData)34_storage)"
      },
      {
        "astId": 334,
        "contract": "contracts/GameRegistry.sol:GameRegistry",
        "label": "__gap",
        "offset": 0,
        "slot": "102",
        "type": "t_array(t_uint256)49_storage"
      },
      {
        "astId": 9472,
        "contract": "contracts/GameRegistry.sol:GameRegistry",
        "label": "games",
        "offset": 0,
        "slot": "151",
        "type": "t_array(t_struct(Game)9467_storage)dyn_storage"
      },
      {
        "astId": 9476,
        "contract": "contracts/GameRegistry.sol:GameRegistry",
        "label": "addressRegistry",
        "offset": 0,
        "slot": "152",
        "type": "t_contract(IAddressRegistry)12677"
      },
      {
        "astId": 9479,
        "contract": "contracts/GameRegistry.sol:GameRegistry",
        "label": "feeRecipient",
        "offset": 0,
        "slot": "153",
        "type": "t_address"
      },
      {
        "astId": 9482,
        "contract": "contracts/GameRegistry.sol:GameRegistry",
        "label": "platformFee",
        "offset": 0,
        "slot": "154",
        "type": "t_uint256"
      },
      {
        "astId": 9485,
        "contract": "contracts/GameRegistry.sol:GameRegistry",
        "label": "tournamentCreationFeeToken",
        "offset": 0,
        "slot": "155",
        "type": "t_address"
      },
      {
        "astId": 9488,
        "contract": "contracts/GameRegistry.sol:GameRegistry",
        "label": "tournamentCreationFeeAmount",
        "offset": 0,
        "slot": "156",
        "type": "t_uint256"
      }
    ],
    "types": {
      "t_address": {
        "encoding": "inplace",
        "label": "address",
        "numberOfBytes": "20"
      },
      "t_array(t_address)dyn_storage": {
        "base": "t_address",
        "encoding": "dynamic_array",
        "label": "address[]",
        "numberOfBytes": "32"
      },
      "t_array(t_struct(Game)9467_storage)dyn_storage": {
        "base": "t_struct(Game)9467_storage",
        "encoding": "dynamic_array",
        "label": "struct GameRegistry.Game[]",
        "numberOfBytes": "32"
      },
      "t_array(t_uint256)49_storage": {
        "base": "t_uint256",
        "encoding": "inplace",
        "label": "uint256[49]",
        "numberOfBytes": "1568"
      },
      "t_array(t_uint256)50_storage": {
        "base": "t_uint256",
        "encoding": "inplace",
        "label": "uint256[50]",
        "numberOfBytes": "1600"
      },
      "t_bool": {
        "encoding": "inplace",
        "label": "bool",
        "numberOfBytes": "1"
      },
      "t_bytes32": {
        "encoding": "inplace",
        "label": "bytes32",
        "numberOfBytes": "32"
      },
      "t_contract(IAddressRegistry)12677": {
        "encoding": "inplace",
        "label": "contract IAddressRegistry",
        "numberOfBytes": "20"
      },
      "t_mapping(t_address,t_bool)": {
        "encoding": "mapping",
        "key": "t_address",
        "label": "mapping(address => bool)",
        "numberOfBytes": "32",
        "value": "t_bool"
      },
      "t_mapping(t_address,t_uint256)": {
        "encoding": "mapping",
        "key": "t_address",
        "label": "mapping(address => uint256)",
        "numberOfBytes": "32",
        "value": "t_uint256"
      },
      "t_mapping(t_bytes32,t_struct(RoleData)34_storage)": {
        "encoding": "mapping",
        "key": "t_bytes32",
        "label": "mapping(bytes32 => struct AccessControlUpgradeable.RoleData)",
        "numberOfBytes": "32",
        "value": "t_struct(RoleData)34_storage"
      },
      "t_mapping(t_uint256,t_struct(Tournament)9440_storage)": {
        "encoding": "mapping",
        "key": "t_uint256",
        "label": "mapping(uint256 => struct GameRegistry.Tournament)",
        "numberOfBytes": "32",
        "value": "t_struct(Tournament)9440_storage"
      },
      "t_string_storage": {
        "encoding": "bytes",
        "label": "string",
        "numberOfBytes": "32"
      },
      "t_struct(Game)9467_storage": {
        "encoding": "inplace",
        "label": "struct GameRegistry.Game",
        "members": [
          {
            "astId": 9442,
            "contract": "contracts/GameRegistry.sol:GameRegistry",
            "label": "name",
            "offset": 0,
            "slot": "0",
            "type": "t_string_storage"
          },
          {
            "astId": 9444,
            "contract": "contracts/GameRegistry.sol:GameRegistry",
            "label": "creatorAddress",
            "offset": 0,
            "slot": "1",
            "type": "t_address"
          },
          {
            "astId": 9446,
            "contract": "contracts/GameRegistry.sol:GameRegistry",
            "label": "baseCreatorFee",
            "offset": 0,
            "slot": "2",
            "type": "t_uint256"
          },
          {
            "astId": 9448,
            "contract": "contracts/GameRegistry.sol:GameRegistry",
            "label": "isDeprecated",
            "offset": 0,
            "slot": "3",
            "type": "t_bool"
          },
          {
            "astId": 9451,
            "contract": "contracts/GameRegistry.sol:GameRegistry",
            "label": "distributableTokenList",
            "offset": 0,
            "slot": "4",
            "type": "t_array(t_address)dyn_storage"
          },
          {
            "astId": 9454,
            "contract": "contracts/GameRegistry.sol:GameRegistry",
            "label": "depositTokenList",
            "offset": 0,
            "slot": "5",
            "type": "t_array(t_address)dyn_storage"
          },
          {
            "astId": 9459,
            "contract": "contracts/GameRegistry.sol:GameRegistry",
            "label": "tournaments",
            "offset": 0,
            "slot": "6",
            "type": "t_mapping(t_uint256,t_struct(Tournament)9440_storage)"
          },
          {
            "astId": 9461,
            "contract": "contracts/GameRegistry.sol:GameRegistry",
            "label": "tournamentsCount",
            "offset": 0,
            "slot": "7",
            "type": "t_uint256"
          },
          {
            "astId": 9466,
            "contract": "contracts/GameRegistry.sol:GameRegistry",
            "label": "distributable",
            "offset": 0,
            "slot": "8",
            "type": "t_mapping(t_address,t_bool)"
          }
        ],
        "numberOfBytes": "288"
      },
      "t_struct(RoleData)34_storage": {
        "encoding": "inplace",
        "label": "struct AccessControlUpgradeable.RoleData",
        "members": [
          {
            "astId": 31,
            "contract": "contracts/GameRegistry.sol:GameRegistry",
            "label": "members",
            "offset": 0,
            "slot": "0",
            "type": "t_mapping(t_address,t_bool)"
          },
          {
            "astId": 33,
            "contract": "contracts/GameRegistry.sol:GameRegistry",
            "label": "adminRole",
            "offset": 0,
            "slot": "1",
            "type": "t_bytes32"
          }
        ],
        "numberOfBytes": "64"
      },
      "t_struct(Tournament)9440_storage": {
        "encoding": "inplace",
        "label": "struct GameRegistry.Tournament",
        "members": [
          {
            "astId": 9428,
            "contract": "contracts/GameRegistry.sol:GameRegistry",
            "label": "name",
            "offset": 0,
            "slot": "0",
            "type": "t_string_storage"
          },
          {
            "astId": 9430,
            "contract": "contracts/GameRegistry.sol:GameRegistry",
            "label": "creatorAddress",
            "offset": 0,
            "slot": "1",
            "type": "t_address"
          },
          {
            "astId": 9432,
            "contract": "contracts/GameRegistry.sol:GameRegistry",
            "label": "creatorFee",
            "offset": 0,
            "slot": "2",
            "type": "t_uint256"
          },
          {
            "astId": 9434,
            "contract": "contracts/GameRegistry.sol:GameRegistry",
            "label": "appliedGameCreatorFee",
            "offset": 0,
            "slot": "3",
            "type": "t_uint256"
          },
          {
            "astId": 9439,
            "contract": "contracts/GameRegistry.sol:GameRegistry",
            "label": "depositTokenAmount",
            "offset": 0,
            "slot": "4",
            "type": "t_mapping(t_address,t_uint256)"
          }
        ],
        "numberOfBytes": "160"
      },
      "t_uint256": {
        "encoding": "inplace",
        "label": "uint256",
        "numberOfBytes": "32"
      },
      "t_uint8": {
        "encoding": "inplace",
        "label": "uint8",
        "numberOfBytes": "1"
      }
    }
  }
}