{
  "address": "0x9eC216AAc6b8729f4265483815F60Ab21B7fD540",
  "abi": [
    {
      "anonymous": false,
      "inputs": [
        {
          "indexed": false,
          "internalType": "uint8",
          "name": "version",
          "type": "uint8"
        }
      ],
      "name": "Initialized",
      "type": "event"
    },
    {
      "anonymous": false,
      "inputs": [
        {
          "indexed": false,
          "internalType": "address",
          "name": "by",
          "type": "address"
        },
        {
          "indexed": false,
          "internalType": "address",
          "name": "from",
          "type": "address"
        },
        {
          "indexed": true,
          "internalType": "uint256",
          "name": "gid",
          "type": "uint256"
        },
        {
          "indexed": true,
          "internalType": "uint256",
          "name": "tid",
          "type": "uint256"
        },
        {
          "indexed": true,
          "internalType": "address",
          "name": "nftAddress",
          "type": "address"
        },
        {
          "indexed": false,
          "internalType": "uint256",
          "name": "nftType",
          "type": "uint256"
        },
        {
          "indexed": false,
          "internalType": "uint256[]",
          "name": "tokenIds",
          "type": "uint256[]"
        },
        {
          "indexed": false,
          "internalType": "uint256[]",
          "name": "amounts",
          "type": "uint256[]"
        }
      ],
      "name": "NFTPrizeDeposited",
      "type": "event"
    },
    {
      "anonymous": false,
      "inputs": [
        {
          "indexed": false,
          "internalType": "address",
          "name": "by",
          "type": "address"
        },
        {
          "indexed": false,
          "internalType": "address[]",
          "name": "winners",
          "type": "address[]"
        },
        {
          "indexed": true,
          "internalType": "uint256",
          "name": "gid",
          "type": "uint256"
        },
        {
          "indexed": true,
          "internalType": "uint256",
          "name": "tid",
          "type": "uint256"
        },
        {
          "indexed": true,
          "internalType": "address",
          "name": "nftAddress",
          "type": "address"
        },
        {
          "indexed": false,
          "internalType": "uint256",
          "name": "nftType",
          "type": "uint256"
        },
        {
          "indexed": false,
          "internalType": "uint256[]",
          "name": "tokenIds",
          "type": "uint256[]"
        },
        {
          "indexed": false,
          "internalType": "uint256[]",
          "name": "amounts",
          "type": "uint256[]"
        }
      ],
      "name": "NFTPrizeDistributed",
      "type": "event"
    },
    {
      "anonymous": false,
      "inputs": [
        {
          "indexed": false,
          "internalType": "address",
          "name": "by",
          "type": "address"
        },
        {
          "indexed": false,
          "internalType": "address",
          "name": "to",
          "type": "address"
        },
        {
          "indexed": true,
          "internalType": "uint256",
          "name": "gid",
          "type": "uint256"
        },
        {
          "indexed": true,
          "internalType": "uint256",
          "name": "tid",
          "type": "uint256"
        },
        {
          "indexed": true,
          "internalType": "address",
          "name": "nftAddress",
          "type": "address"
        },
        {
          "indexed": false,
          "internalType": "uint256",
          "name": "nftType",
          "type": "uint256"
        },
        {
          "indexed": false,
          "internalType": "uint256[]",
          "name": "tokenIds",
          "type": "uint256[]"
        },
        {
          "indexed": false,
          "internalType": "uint256[]",
          "name": "amounts",
          "type": "uint256[]"
        }
      ],
      "name": "NFTPrizeWithdrawn",
      "type": "event"
    },
    {
      "anonymous": false,
      "inputs": [
        {
          "indexed": true,
          "internalType": "address",
          "name": "previousOwner",
          "type": "address"
        },
        {
          "indexed": true,
          "internalType": "address",
          "name": "newOwner",
          "type": "address"
        }
      ],
      "name": "OwnershipTransferred",
      "type": "event"
    },
    {
      "anonymous": false,
      "inputs": [
        {
          "indexed": false,
          "internalType": "address",
          "name": "account",
          "type": "address"
        }
      ],
      "name": "Paused",
      "type": "event"
    },
    {
      "anonymous": false,
      "inputs": [
        {
          "indexed": false,
          "internalType": "address",
          "name": "by",
          "type": "address"
        },
        {
          "indexed": false,
          "internalType": "address",
          "name": "depositor",
          "type": "address"
        },
        {
          "indexed": true,
          "internalType": "uint256",
          "name": "gid",
          "type": "uint256"
        },
        {
          "indexed": true,
          "internalType": "uint256",
          "name": "tid",
          "type": "uint256"
        },
        {
          "indexed": true,
          "internalType": "address",
          "name": "token",
          "type": "address"
        },
        {
          "indexed": false,
          "internalType": "uint256",
          "name": "amount",
          "type": "uint256"
        }
      ],
      "name": "PrizeDeposited",
      "type": "event"
    },
    {
      "anonymous": false,
      "inputs": [
        {
          "indexed": false,
          "internalType": "address",
          "name": "by",
          "type": "address"
        },
        {
          "indexed": false,
          "internalType": "address[]",
          "name": "winners",
          "type": "address[]"
        },
        {
          "indexed": true,
          "internalType": "uint256",
          "name": "gid",
          "type": "uint256"
        },
        {
          "indexed": true,
          "internalType": "uint256",
          "name": "tid",
          "type": "uint256"
        },
        {
          "indexed": true,
          "internalType": "address",
          "name": "token",
          "type": "address"
        },
        {
          "indexed": false,
          "internalType": "uint256[]",
          "name": "amounts",
          "type": "uint256[]"
        }
      ],
      "name": "PrizeDistributed",
      "type": "event"
    },
    {
      "anonymous": false,
      "inputs": [
        {
          "indexed": false,
          "internalType": "address",
          "name": "by",
          "type": "address"
        },
        {
          "indexed": false,
          "internalType": "address",
          "name": "to",
          "type": "address"
        },
        {
          "indexed": true,
          "internalType": "uint256",
          "name": "gid",
          "type": "uint256"
        },
        {
          "indexed": true,
          "internalType": "uint256",
          "name": "tid",
          "type": "uint256"
        },
        {
          "indexed": true,
          "internalType": "address",
          "name": "token",
          "type": "address"
        },
        {
          "indexed": false,
          "internalType": "uint256",
          "name": "amount",
          "type": "uint256"
        }
      ],
      "name": "PrizeWithdrawn",
      "type": "event"
    },
    {
      "anonymous": false,
      "inputs": [
        {
          "indexed": false,
          "internalType": "address",
          "name": "account",
          "type": "address"
        }
      ],
      "name": "Unpaused",
      "type": "event"
    },
    {
      "anonymous": false,
      "inputs": [
        {
          "indexed": false,
          "internalType": "address",
          "name": "by",
          "type": "address"
        },
        {
          "indexed": true,
          "internalType": "uint256",
          "name": "gid",
          "type": "uint256"
        },
        {
          "indexed": true,
          "internalType": "uint256",
          "name": "tid",
          "type": "uint256"
        },
        {
          "indexed": true,
          "internalType": "address",
          "name": "token",
          "type": "address"
        },
        {
          "indexed": false,
          "internalType": "uint256",
          "name": "amount",
          "type": "uint256"
        }
      ],
      "name": "UserDeposited",
      "type": "event"
    },
    {
      "inputs": [],
      "name": "addressRegistry",
      "outputs": [
        {
          "internalType": "contract IAddressRegistry",
          "name": "",
          "type": "address"
        }
      ],
      "stateMutability": "view",
      "type": "function"
    },
    {
      "inputs": [
        {
          "internalType": "uint256",
          "name": "_gid",
          "type": "uint256"
        },
        {
          "internalType": "uint256",
          "name": "_tid",
          "type": "uint256"
        },
        {
          "internalType": "address",
          "name": "_token",
          "type": "address"
        }
      ],
      "name": "deposit",
      "outputs": [],
      "stateMutability": "nonpayable",
      "type": "function"
    },
    {
      "inputs": [
        {
          "internalType": "address",
          "name": "_from",
          "type": "address"
        },
        {
          "internalType": "uint256",
          "name": "_gid",
          "type": "uint256"
        },
        {
          "internalType": "uint256",
          "name": "_tid",
          "type": "uint256"
        },
        {
          "internalType": "address",
          "name": "_nftAddress",
          "type": "address"
        },
        {
          "internalType": "uint256",
          "name": "_nftType",
          "type": "uint256"
        },
        {
          "internalType": "uint256[]",
          "name": "_tokenIds",
          "type": "uint256[]"
        },
        {
          "internalType": "uint256[]",
          "name": "_amounts",
          "type": "uint256[]"
        }
      ],
      "name": "depositNFTPrize",
      "outputs": [],
      "stateMutability": "nonpayable",
      "type": "function"
    },
    {
      "inputs": [
        {
          "internalType": "address",
          "name": "_depositor",
          "type": "address"
        },
        {
          "internalType": "uint256",
          "name": "_gid",
          "type": "uint256"
        },
        {
          "internalType": "uint256",
          "name": "_tid",
          "type": "uint256"
        },
        {
          "internalType": "address",
          "name": "_token",
          "type": "address"
        },
        {
          "internalType": "uint256",
          "name": "_amount",
          "type": "uint256"
        }
      ],
      "name": "depositPrize",
      "outputs": [],
      "stateMutability": "nonpayable",
      "type": "function"
    },
    {
      "inputs": [
        {
          "internalType": "uint256",
          "name": "_gid",
          "type": "uint256"
        },
        {
          "internalType": "uint256",
          "name": "_tid",
          "type": "uint256"
        },
        {
          "internalType": "address[]",
          "name": "_winners",
          "type": "address[]"
        },
        {
          "internalType": "address",
          "name": "_nftAddress",
          "type": "address"
        },
        {
          "internalType": "uint256",
          "name": "_nftType",
          "type": "uint256"
        },
        {
          "internalType": "uint256[]",
          "name": "_tokenIds",
          "type": "uint256[]"
        },
        {
          "internalType": "uint256[]",
          "name": "_amounts",
          "type": "uint256[]"
        }
      ],
      "name": "distributeNFTPrize",
      "outputs": [],
      "stateMutability": "nonpayable",
      "type": "function"
    },
    {
      "inputs": [
        {
          "internalType": "uint256",
          "name": "_gid",
          "type": "uint256"
        },
        {
          "internalType": "uint256",
          "name": "_tid",
          "type": "uint256"
        },
        {
          "internalType": "address[]",
          "name": "_winners",
          "type": "address[]"
        },
        {
          "internalType": "address",
          "name": "_token",
          "type": "address"
        },
        {
          "internalType": "uint256[]",
          "name": "_amounts",
          "type": "uint256[]"
        }
      ],
      "name": "distributePrize",
      "outputs": [],
      "stateMutability": "nonpayable",
      "type": "function"
    },
    {
      "inputs": [
        {
          "internalType": "address",
          "name": "_addressRegistry",
          "type": "address"
        }
      ],
      "name": "initialize",
      "outputs": [],
      "stateMutability": "nonpayable",
      "type": "function"
    },
    {
      "inputs": [
        {
          "internalType": "address",
          "name": "",
          "type": "address"
        },
        {
          "internalType": "address",
          "name": "",
          "type": "address"
        },
        {
          "internalType": "uint256[]",
          "name": "",
          "type": "uint256[]"
        },
        {
          "internalType": "uint256[]",
          "name": "",
          "type": "uint256[]"
        },
        {
          "internalType": "bytes",
          "name": "",
          "type": "bytes"
        }
      ],
      "name": "onERC1155BatchReceived",
      "outputs": [
        {
          "internalType": "bytes4",
          "name": "",
          "type": "bytes4"
        }
      ],
      "stateMutability": "nonpayable",
      "type": "function"
    },
    {
      "inputs": [
        {
          "internalType": "address",
          "name": "",
          "type": "address"
        },
        {
          "internalType": "address",
          "name": "",
          "type": "address"
        },
        {
          "internalType": "uint256",
          "name": "",
          "type": "uint256"
        },
        {
          "internalType": "uint256",
          "name": "",
          "type": "uint256"
        },
        {
          "internalType": "bytes",
          "name": "",
          "type": "bytes"
        }
      ],
      "name": "onERC1155Received",
      "outputs": [
        {
          "internalType": "bytes4",
          "name": "",
          "type": "bytes4"
        }
      ],
      "stateMutability": "nonpayable",
      "type": "function"
    },
    {
      "inputs": [
        {
          "internalType": "address",
          "name": "",
          "type": "address"
        },
        {
          "internalType": "address",
          "name": "",
          "type": "address"
        },
        {
          "internalType": "uint256",
          "name": "",
          "type": "uint256"
        },
        {
          "internalType": "bytes",
          "name": "",
          "type": "bytes"
        }
      ],
      "name": "onERC721Received",
      "outputs": [
        {
          "internalType": "bytes4",
          "name": "",
          "type": "bytes4"
        }
      ],
      "stateMutability": "nonpayable",
      "type": "function"
    },
    {
      "inputs": [],
      "name": "owner",
      "outputs": [
        {
          "internalType": "address",
          "name": "",
          "type": "address"
        }
      ],
      "stateMutability": "view",
      "type": "function"
    },
    {
      "inputs": [],
      "name": "pause",
      "outputs": [],
      "stateMutability": "nonpayable",
      "type": "function"
    },
    {
      "inputs": [],
      "name": "paused",
      "outputs": [
        {
          "internalType": "bool",
          "name": "",
          "type": "bool"
        }
      ],
      "stateMutability": "view",
      "type": "function"
    },
    {
      "inputs": [],
      "name": "renounceOwnership",
      "outputs": [],
      "stateMutability": "nonpayable",
      "type": "function"
    },
    {
      "inputs": [
        {
          "internalType": "bytes4",
          "name": "interfaceId",
          "type": "bytes4"
        }
      ],
      "name": "supportsInterface",
      "outputs": [
        {
          "internalType": "bool",
          "name": "",
          "type": "bool"
        }
      ],
      "stateMutability": "view",
      "type": "function"
    },
    {
      "inputs": [
        {
          "internalType": "uint256",
          "name": "",
          "type": "uint256"
        },
        {
          "internalType": "uint256",
          "name": "",
          "type": "uint256"
        },
        {
          "internalType": "address",
          "name": "",
          "type": "address"
        }
      ],
      "name": "tournamentTokens",
      "outputs": [
        {
          "internalType": "uint256",
          "name": "totalUserDeposit",
          "type": "uint256"
        },
        {
          "internalType": "uint256",
          "name": "totalPrizeDistribution",
          "type": "uint256"
        },
        {
          "internalType": "uint256",
          "name": "totalPrizeFee",
          "type": "uint256"
        },
        {
          "internalType": "uint256",
          "name": "totalPrizeDeposit",
          "type": "uint256"
        }
      ],
      "stateMutability": "view",
      "type": "function"
    },
    {
      "inputs": [
        {
          "internalType": "address",
          "name": "newOwner",
          "type": "address"
        }
      ],
      "name": "transferOwnership",
      "outputs": [],
      "stateMutability": "nonpayable",
      "type": "function"
    },
    {
      "inputs": [],
      "name": "unpause",
      "outputs": [],
      "stateMutability": "nonpayable",
      "type": "function"
    },
    {
      "inputs": [
        {
          "internalType": "address",
          "name": "_to",
          "type": "address"
        },
        {
          "internalType": "uint256",
          "name": "_gid",
          "type": "uint256"
        },
        {
          "internalType": "uint256",
          "name": "_tid",
          "type": "uint256"
        },
        {
          "internalType": "address",
          "name": "_nftAddress",
          "type": "address"
        },
        {
          "internalType": "uint256",
          "name": "_nftType",
          "type": "uint256"
        },
        {
          "internalType": "uint256[]",
          "name": "_tokenIds",
          "type": "uint256[]"
        },
        {
          "internalType": "uint256[]",
          "name": "_amounts",
          "type": "uint256[]"
        }
      ],
      "name": "withdrawNFTPrize",
      "outputs": [],
      "stateMutability": "nonpayable",
      "type": "function"
    },
    {
      "inputs": [
        {
          "internalType": "address",
          "name": "_to",
          "type": "address"
        },
        {
          "internalType": "uint256",
          "name": "_gid",
          "type": "uint256"
        },
        {
          "internalType": "uint256",
          "name": "_tid",
          "type": "uint256"
        },
        {
          "internalType": "address",
          "name": "_token",
          "type": "address"
        },
        {
          "internalType": "uint256",
          "name": "_amount",
          "type": "uint256"
        }
      ],
      "name": "withdrawPrize",
      "outputs": [],
      "stateMutability": "nonpayable",
      "type": "function"
    }
  ],
  "transactionHash": "0x1f14e3e1a3cc0bc16e5def795711b13547956df54f6017dad6e44747a7ea9214",
  "args": [],
  "numDeployments": 1,
  "solcInputHash": "1f056055441669d784e7e6671908d28c",
  "bytecode": "0x608060405234801561001057600080fd5b506144be806100206000396000f3fe608060405234801561001057600080fd5b506004361061016c5760003560e01c80638da5cb5b116100cd578063c4d66de811610081578063f23a6e6111610066578063f23a6e611461032d578063f2fde38b1461034c578063f3ad65f41461035f57600080fd5b8063c4d66de814610307578063e3b2facc1461031a57600080fd5b80638f1a33ff116100b25780638f1a33ff1461026e578063b3a833b8146102d5578063bc197c81146102e857600080fd5b80638da5cb5b146102365780638dbdbe6d1461025b57600080fd5b80635c975abb116101245780638456cb59116101095780638456cb59146102085780638639c9a7146102105780638bd67fe81461022357600080fd5b80635c975abb146101f5578063715018a61461020057600080fd5b80631de6ba17116101555780631de6ba17146101c55780633f4ba83a146101da5780634ceba21a146101e257600080fd5b806301ffc9a714610171578063150b7a0214610199575b600080fd5b61018461017f366004613ad5565b610373565b60405190151581526020015b60405180910390f35b6101ac6101a7366004613bd2565b6103aa565b6040516001600160e01b03199091168152602001610190565b6101d86101d3366004613c3e565b6103bb565b005b6101d8610823565b6101d86101f0366004613cdc565b610835565b60975460ff16610184565b6101d8610bb5565b6101d8610bc7565b6101d861021e366004613d74565b610bd7565b6101d8610231366004613c3e565b611742565b6033546001600160a01b03165b6040516001600160a01b039091168152602001610190565b6101d8610269366004613e42565b611932565b6102b561027c366004613e42565b61019160209081526000938452604080852082529284528284209052825290208054600182015460028301546003909301549192909184565b604080519485526020850193909352918301526060820152608001610190565b6101d86102e3366004613e7b565b611b18565b6101ac6102f6366004613fa4565b63bc197c8160e01b95945050505050565b6101d8610315366004614052565b612295565b6101d8610328366004613e7b565b612455565b6101ac61033b36600461406f565b63f23a6e6160e01b95945050505050565b6101d861035a366004614052565b612b98565b61019354610243906001600160a01b031681565b60006001600160e01b03198216630271189760e51b14806103a457506301ffc9a760e01b6001600160e01b03198316145b92915050565b630a85bd0160e11b5b949350505050565b6033546001600160a01b031633148061045c575061019360009054906101000a90046001600160a01b03166001600160a01b031663da0907556040518163ffffffff1660e01b8152600401602060405180830381865afa158015610423573d6000803e3d6000fd5b505050506040513d601f19601f8201168201806040525081019061044791906140d8565b6001600160a01b0316336001600160a01b0316145b6104ad5760405162461bcd60e51b815260206004820152601a60248201527f4f6e6c79206f776e6572206f722047616d65526567697374727900000000000060448201526064015b60405180910390fd5b6001600160a01b0382166105035760405162461bcd60e51b815260206004820152601860248201527f556e657870656374656420746f6b656e2061646472657373000000000000000060448201526064016104a4565b61019360009054906101000a90046001600160a01b03166001600160a01b031663da0907556040518163ffffffff1660e01b8152600401602060405180830381865afa158015610557573d6000803e3d6000fd5b505050506040513d601f19601f8201168201806040525081019061057b91906140d8565b60405163aba869c560e01b8152600481018690526001600160a01b038481166024830152919091169063aba869c590604401602060405180830381865afa1580156105ca573d6000803e3d6000fd5b505050506040513d601f19601f820116820180604052508101906105ee91906140f5565b61063a5760405162461bcd60e51b815260206004820152601d60248201527f446973616c6c6f77656420646973747269627574696f6e20746f6b656e00000060448201526064016104a4565b6040516301ffc9a760e01b81526380ac58cd60e01b60048201526000906001600160a01b038416906301ffc9a790602401602060405180830381865afa9250505080156106a4575060408051601f3d908101601f191682019092526106a1918101906140f5565b60015b6106b057506000610723565b506040516301ffc9a760e01b81526380ac58cd60e01b60048201526001600160a01b038416906301ffc9a790602401602060405180830381865afa1580156106fc573d6000803e3d6000fd5b505050506040513d601f19601f8201168201806040525081019061072091906140f5565b90505b80156107715760405162461bcd60e51b815260206004820152601860248201527f45524337323120746f6b656e206e6f7420616c6c6f776564000000000000000060448201526064016104a4565b6107866001600160a01b038416873085612c28565b60008581526101916020908152604080832087845282528083206001600160a01b0387168452909152812060030180548492906107c490849061412d565b9091555050604080513381526001600160a01b03888116602083015291810184905290841690859087907fa555954f2adaf5a353a1db2b9a28e229f872593323659c9f5ab9cc426d0c58a29060600160405180910390a4505050505050565b61082b612cae565b610833612d08565b565b61083d612d5a565b61019360009054906101000a90046001600160a01b03166001600160a01b0316639850d32b6040518163ffffffff1660e01b8152600401602060405180830381865afa158015610891573d6000803e3d6000fd5b505050506040513d601f19601f820116820180604052508101906108b591906140d8565b6001600160a01b0316336001600160a01b0316146109075760405162461bcd60e51b815260206004820152600f60248201526e27b7363c9036b0b4b73a30b4b732b960891b60448201526064016104a4565b8381146109565760405162461bcd60e51b815260206004820152601e60248201527f4d69736d6174636865642077696e6e65727320616e6420616d6f756e7473000060448201526064016104a4565b610193546040805163da09075560e01b815290516000926001600160a01b03169163da0907559160048083019260209291908290030181865afa1580156109a1573d6000803e3d6000fd5b505050506040513d601f19601f820116820180604052508101906109c591906140d8565b60405163aba869c560e01b8152600481018a90526001600160a01b0386811660248301529192509082169063aba869c590604401602060405180830381865afa158015610a16573d6000803e3d6000fd5b505050506040513d601f19601f82011682018060405250810190610a3a91906140f5565b610a865760405162461bcd60e51b815260206004820152601d60248201527f446973616c6c6f77656420646973747269627574696f6e20746f6b656e00000060448201526064016104a4565b610a9588888888888888612dad565b6000888152610191602090815260408083208a845282528083206001600160a01b038816845290915290208054600390910154610ad2919061412d565b6000898152610191602090815260408083208b845282528083206001600160a01b038916845290915290206002810154600190910154610b12919061412d565b1115610b605760405162461bcd60e51b815260206004820152601560248201527f5072697a6520616d6f756e74206578636565646564000000000000000000000060448201526064016104a4565b836001600160a01b031687897f6b4488e823ebb77fdc3a58bb5cbc1af38a0b2e39ff4dc84c080c08540dcd1ebc338a8a8989604051610ba39594939291906141dd565b60405180910390a45050505050505050565b610bbd612cae565b6108336000613432565b610bcf612cae565b610833613491565b610bdf612d5a565b610be76134ce565b61019360009054906101000a90046001600160a01b03166001600160a01b0316639850d32b6040518163ffffffff1660e01b8152600401602060405180830381865afa158015610c3b573d6000803e3d6000fd5b505050506040513d601f19601f82011682018060405250810190610c5f91906140d8565b6001600160a01b0316336001600160a01b031614610cb15760405162461bcd60e51b815260206004820152600f60248201526e27b7363c9036b0b4b73a30b4b732b960891b60448201526064016104a4565b61019360009054906101000a90046001600160a01b03166001600160a01b031663da0907556040518163ffffffff1660e01b8152600401602060405180830381865afa158015610d05573d6000803e3d6000fd5b505050506040513d601f19601f82011682018060405250810190610d2991906140d8565b60405163aba869c560e01b8152600481018c90526001600160a01b038881166024830152919091169063aba869c590604401602060405180830381865afa158015610d78573d6000803e3d6000fd5b505050506040513d601f19601f82011682018060405250810190610d9c91906140f5565b610de85760405162461bcd60e51b815260206004820152601d60248201527f446973616c6c6f77656420646973747269627574696f6e20746f6b656e00000060448201526064016104a4565b846102d11480610df9575084610483145b610e3b5760405162461bcd60e51b8152602060048201526013602482015272556e6578706563746564204e4654207479706560681b60448201526064016104a4565b8683148015610e4957508281145b610e955760405162461bcd60e51b815260206004820181905260248201527f4d69736d617463686564204e465420646973747269627574696f6e206461746160448201526064016104a4565b6000856102d1141561128d576040516301ffc9a760e01b81526380ac58cd60e01b60048201526001600160a01b038816906301ffc9a790602401602060405180830381865afa158015610eec573d6000803e3d6000fd5b505050506040513d601f19601f82011682018060405250810190610f1091906140f5565b610f555760405162461bcd60e51b8152602060048201526016602482015275556e6578706563746564204e4654206164647265737360501b60448201526064016104a4565b60005b888110156112415760008c8152610192602090815260408083208e845282528083206001600160a01b038c168452909152812090878784818110610f9e57610f9e61421f565b90506020020135815260200190815260200160002060010154600114801561101c575060008c8152610192602090815260408083208e845282528083206001600160a01b038c168452909152812090878784818110610fff57610fff61421f565b905060200201358152602001908152602001600020600001546000145b6110775760405162461bcd60e51b815260206004820152602660248201527f4e4654207072697a6520646973747269627574696f6e20616d6f756e7420657860448201526518d95959195960d21b60648201526084016104a4565b60008c8152610192602090815260408083208e845282528083206001600160a01b038c16845290915281206001918888858181106110b7576110b761421f565b905060200201358152602001908152602001600020600001819055508383828181106110e5576110e561421f565b90506020020135826110f7919061412d565b9150876001600160a01b03166342842e0e308c8c8581811061111b5761111b61421f565b90506020020160208101906111309190614052565b8989868181106111425761114261421f565b6040516001600160e01b031960e088901b1681526001600160a01b03958616600482015294909316602485015250602090910201356044820152606401600060405180830381600087803b15801561119957600080fd5b505af19250505080156111aa575060015b61122f5760008c8152610192602090815260408083208e845282528083206001600160a01b038c1684529091528120818888858181106111ec576111ec61421f565b9050602002013581526020019081526020016000206000018190555083838281811061121a5761121a61421f565b905060200201358261122c9190614235565b91505b806112398161424c565b915050610f58565b508088146112885760405162461bcd60e51b8152602060048201526014602482015273496e76616c696420616d6f756e742076616c756560601b60448201526064016104a4565b6116da565b6040516301ffc9a760e01b8152636cdb3d1360e11b60048201526001600160a01b038816906301ffc9a790602401602060405180830381865afa1580156112d8573d6000803e3d6000fd5b505050506040513d601f19601f820116820180604052508101906112fc91906140f5565b6113415760405162461bcd60e51b8152602060048201526016602482015275556e6578706563746564204e4654206164647265737360501b60448201526064016104a4565b60005b888110156116d85783838281811061135e5761135e61421f565b9050602002013561019260008e815260200190815260200160002060008d815260200190815260200160002060008a6001600160a01b03166001600160a01b0316815260200190815260200160002060008888858181106113c1576113c161421f565b9050602002013581526020019081526020016000206000015461019260008f815260200190815260200160002060008e815260200190815260200160002060008b6001600160a01b03166001600160a01b0316815260200190815260200160002060008989868181106114365761143661421f565b905060200201358152602001908152602001600020600101546114599190614235565b10156114b65760405162461bcd60e51b815260206004820152602660248201527f4e4654207072697a6520646973747269627574696f6e20616d6f756e7420657860448201526518d95959195960d21b60648201526084016104a4565b8383828181106114c8576114c861421f565b9050602002013561019260008e815260200190815260200160002060008d815260200190815260200160002060008a6001600160a01b03166001600160a01b03168152602001908152602001600020600088888581811061152b5761152b61421f565b9050602002013581526020019081526020016000206000016000828254611552919061412d565b90915550506001600160a01b03881663f242432a308c8c858181106115795761157961421f565b905060200201602081019061158e9190614052565b8989868181106115a0576115a061421f565b905060200201358888878181106115b9576115b961421f565b90506020020135604051806020016040528060008152506040518663ffffffff1660e01b81526004016115f09594939291906142bf565b600060405180830381600087803b15801561160a57600080fd5b505af192505050801561161b575060015b6116c6578383828181106116315761163161421f565b9050602002013561019260008e815260200190815260200160002060008d815260200190815260200160002060008a6001600160a01b03166001600160a01b0316815260200190815260200160002060008888858181106116945761169461421f565b90506020020135815260200190815260200160002060000160008282546116bb9190614235565b909155506116c69050565b806116d08161424c565b915050611344565b505b866001600160a01b03168a8c7fa825c8731f1dfe5c99472b7e94c839c9e6489ed55d0277366e867d8d88a306cf338d8d8c8c8c8c8c6040516117239897969594939291906142f7565b60405180910390a4506117366001606555565b50505050505050505050565b61019360009054906101000a90046001600160a01b03166001600160a01b031663d33219b46040518163ffffffff1660e01b8152600401602060405180830381865afa158015611796573d6000803e3d6000fd5b505050506040513d601f19601f820116820180604052508101906117ba91906140d8565b6001600160a01b0316336001600160a01b03161461181a5760405162461bcd60e51b815260206004820152600d60248201527f4f6e6c792074696d656c6f636b0000000000000000000000000000000000000060448201526064016104a4565b60008481526101916020908152604080832086845282528083206001600160a01b03861684529091529020600301548111156118985760405162461bcd60e51b815260206004820152601260248201527f496e73756666696369656e74207072697a65000000000000000000000000000060448201526064016104a4565b60008481526101916020908152604080832086845282528083206001600160a01b0386168085529252909120600301805483900390556118d990868361352f565b604080513381526001600160a01b03878116602083015291810183905290831690849086907fe64a3a357c20289b8fff53d7fabedc1fec8b86c76f070a66dd167c055e43e38d9060600160405180910390a45050505050565b61193a612d5a565b610193546040805163da09075560e01b815290516000926001600160a01b03169163da0907559160048083019260209291908290030181865afa158015611985573d6000803e3d6000fd5b505050506040513d601f19601f820116820180604052508101906119a991906140d8565b604051633586597160e01b815260048101869052602481018590526001600160a01b0384811660448301529190911690633586597190606401602060405180830381865afa1580156119ff573d6000803e3d6000fd5b505050506040513d601f19601f82011682018060405250810190611a239190614357565b905060008111611a755760405162461bcd60e51b815260206004820152601560248201527f496e76616c6964206465706f73697420746f6b656e000000000000000000000060448201526064016104a4565b611a8a6001600160a01b038316333084612c28565b60008481526101916020908152604080832086845282528083206001600160a01b038616845290915281208054839290611ac590849061412d565b909155505060408051338152602081018390526001600160a01b03841691859187917f3360a6f28beae2ecd8c3c807e274aaae13fd8264155337e6d0535a44468f0942910160405180910390a450505050565b6033546001600160a01b0316331480611bb9575061019360009054906101000a90046001600160a01b03166001600160a01b031663da0907556040518163ffffffff1660e01b8152600401602060405180830381865afa158015611b80573d6000803e3d6000fd5b505050506040513d601f19601f82011682018060405250810190611ba491906140d8565b6001600160a01b0316336001600160a01b0316145b611c055760405162461bcd60e51b815260206004820152601a60248201527f4f6e6c79206f776e6572206f722047616d65526567697374727900000000000060448201526064016104a4565b61019360009054906101000a90046001600160a01b03166001600160a01b031663da0907556040518163ffffffff1660e01b8152600401602060405180830381865afa158015611c59573d6000803e3d6000fd5b505050506040513d601f19601f82011682018060405250810190611c7d91906140d8565b60405163aba869c560e01b8152600481018a90526001600160a01b038881166024830152919091169063aba869c590604401602060405180830381865afa158015611ccc573d6000803e3d6000fd5b505050506040513d601f19601f82011682018060405250810190611cf091906140f5565b611d3c5760405162461bcd60e51b815260206004820152601d60248201527f446973616c6c6f77656420646973747269627574696f6e20746f6b656e00000060448201526064016104a4565b6001600160a01b038616611d8b5760405162461bcd60e51b8152602060048201526016602482015275556e6578706563746564204e4654206164647265737360501b60448201526064016104a4565b846102d11480611d9c575084610483145b611dde5760405162461bcd60e51b8152602060048201526013602482015272556e6578706563746564204e4654207479706560681b60448201526064016104a4565b828114611e2d5760405162461bcd60e51b815260206004820152601760248201527f4d69736d617463686564206465706f736974206461746100000000000000000060448201526064016104a4565b6000856102d1141561206b576040516301ffc9a760e01b81526380ac58cd60e01b60048201526001600160a01b038816906301ffc9a790602401602060405180830381865afa158015611e84573d6000803e3d6000fd5b505050506040513d601f19601f82011682018060405250810190611ea891906140f5565b611eed5760405162461bcd60e51b8152602060048201526016602482015275556e6578706563746564204e4654206164647265737360501b60448201526064016104a4565b60005b8481101561201f57876001600160a01b03166342842e0e8c30898986818110611f1b57611f1b61421f565b6040516001600160e01b031960e088901b1681526001600160a01b03958616600482015294909316602485015250602090910201356044820152606401600060405180830381600087803b158015611f7257600080fd5b505af1158015611f86573d6000803e3d6000fd5b50505060008b8152610192602090815260408083208d845282528083206001600160a01b038d16845290915281206001925090888885818110611fcb57611fcb61421f565b90506020020135815260200190815260200160002060010181905550838382818110611ff957611ff961421f565b905060200201358261200b919061412d565b9150806120178161424c565b915050611ef0565b508084146120665760405162461bcd60e51b8152602060048201526014602482015273496e76616c696420616d6f756e742076616c756560601b60448201526064016104a4565b61223a565b6040516301ffc9a760e01b8152636cdb3d1360e11b60048201526001600160a01b038816906301ffc9a790602401602060405180830381865afa1580156120b6573d6000803e3d6000fd5b505050506040513d601f19601f820116820180604052508101906120da91906140f5565b61211f5760405162461bcd60e51b8152602060048201526016602482015275556e6578706563746564204e4654206164647265737360501b60448201526064016104a4565b60408051602081018252600081529051631759616b60e11b81526001600160a01b03891691632eb2c2d691612163918e9130918b918b918b918b9190600401614370565b600060405180830381600087803b15801561217d57600080fd5b505af1158015612191573d6000803e3d6000fd5b5050505060005b84811015612238578383828181106121b2576121b261421f565b60008d8152610192602090815260408083208f845282528083206001600160a01b038f1684528252822092029390930135929091508888858181106121f9576121f961421f565b9050602002013581526020019081526020016000206001016000828254612220919061412d565b909155508190506122308161424c565b915050612198565b505b866001600160a01b0316888a7f8aa5f867116bd0007022fe5e2205d78c5a5922c47331762e9e69ce2c9a8f6a95338e8b8b8b8b8b60405161228197969594939291906143d2565b60405180910390a450505050505050505050565b600054610100900460ff16158080156122b55750600054600160ff909116105b806122cf5750303b1580156122cf575060005460ff166001145b6123415760405162461bcd60e51b815260206004820152602e60248201527f496e697469616c697a61626c653a20636f6e747261637420697320616c72656160448201527f647920696e697469616c697a656400000000000000000000000000000000000060648201526084016104a4565b6000805460ff191660011790558015612364576000805461ff0019166101001790555b61236c613564565b6123746135d7565b61237c61364a565b6123846136bd565b61238c6136bd565b6001600160a01b0382166123e25760405162461bcd60e51b815260206004820152601760248201527f496e76616c69642041646472657373526567697374727900000000000000000060448201526064016104a4565b610193805473ffffffffffffffffffffffffffffffffffffffff19166001600160a01b0384161790558015612451576000805461ff0019169055604051600181527f7f26b83ff96e1f2b6a682f133852f6798a09c465da95921460cefb38474024989060200160405180910390a15b5050565b61245d6134ce565b612465612cae565b846102d11480612476575084610483145b6124b85760405162461bcd60e51b8152602060048201526013602482015272556e6578706563746564204e4654207479706560681b60448201526064016104a4565b8281146125075760405162461bcd60e51b815260206004820152601760248201527f4d69736d617463686564206465706f736974206461746100000000000000000060448201526064016104a4565b6000856102d1141561284a576040516301ffc9a760e01b81526380ac58cd60e01b60048201526001600160a01b038816906301ffc9a790602401602060405180830381865afa15801561255e573d6000803e3d6000fd5b505050506040513d601f19601f8201168201806040525081019061258291906140f5565b6125c75760405162461bcd60e51b8152602060048201526016602482015275556e6578706563746564204e4654206164647265737360501b60448201526064016104a4565b60005b848110156127fe5760008a8152610192602090815260408083208c845282528083206001600160a01b038c1684529091528120908787848181106126105761261061421f565b602090810292909201358352508181019290925260409081016000908120548d825261019284528282208d835284528282206001600160a01b038d168352909352908120908888858181106126675761266761421f565b9050602002013581526020019081526020016000206001015461268a9190614235565b6001146126d95760405162461bcd60e51b815260206004820152601660248201527f496e73756666696369656e74204e4654207072697a650000000000000000000060448201526064016104a4565b60008a8152610192602090815260408083208c845282528083206001600160a01b038c1684529091528120818888858181106127175761271761421f565b905060200201358152602001908152602001600020600101819055508383828181106127455761274561421f565b9050602002013582612757919061412d565b9150876001600160a01b03166342842e0e308d89898681811061277c5761277c61421f565b6040516001600160e01b031960e088901b1681526001600160a01b03958616600482015294909316602485015250602090910201356044820152606401600060405180830381600087803b1580156127d357600080fd5b505af11580156127e7573d6000803e3d6000fd5b5050505080806127f69061424c565b9150506125ca565b508084146128455760405162461bcd60e51b8152602060048201526014602482015273496e76616c696420616d6f756e742076616c756560601b60448201526064016104a4565b612b33565b6040516301ffc9a760e01b8152636cdb3d1360e11b60048201526001600160a01b038816906301ffc9a790602401602060405180830381865afa158015612895573d6000803e3d6000fd5b505050506040513d601f19601f820116820180604052508101906128b991906140f5565b6128fe5760405162461bcd60e51b8152602060048201526016602482015275556e6578706563746564204e4654206164647265737360501b60448201526064016104a4565b60005b84811015612abb5783838281811061291b5761291b61421f565b60008d8152610192602090815260408083208f845282528083206001600160a01b038f1684528252822092029390930135929091508888858181106129625761296261421f565b602090810292909201358352508181019290925260409081016000908120548e825261019284528282208e835284528282206001600160a01b038e168352909352908120908989868181106129b9576129b961421f565b905060200201358152602001908152602001600020600101546129dc9190614235565b1015612a2a5760405162461bcd60e51b815260206004820152601660248201527f496e73756666696369656e74204e4654207072697a650000000000000000000060448201526064016104a4565b838382818110612a3c57612a3c61421f565b60008d8152610192602090815260408083208f845282528083206001600160a01b038f168452825282209202939093013592909150888885818110612a8357612a8361421f565b905060200201358152602001908152602001600020600101600082825403925050819055508080612ab39061424c565b915050612901565b5060408051602081018252600081529051631759616b60e11b81526001600160a01b03891691632eb2c2d691612b009130918f918b918b918b918b9190600401614370565b600060405180830381600087803b158015612b1a57600080fd5b505af1158015612b2e573d6000803e3d6000fd5b505050505b866001600160a01b0316888a7f5a8dca5c67110aaf25dc3f613084907009569128e7e31216a0802dce0db9c784338e8b8b8b8b8b604051612b7a97969594939291906143d2565b60405180910390a450612b8d6001606555565b505050505050505050565b612ba0612cae565b6001600160a01b038116612c1c5760405162461bcd60e51b815260206004820152602660248201527f4f776e61626c653a206e6577206f776e657220697320746865207a65726f206160448201527f646472657373000000000000000000000000000000000000000000000000000060648201526084016104a4565b612c2581613432565b50565b6040516001600160a01b0380851660248301528316604482015260648101829052612ca89085906323b872dd60e01b906084015b60408051601f198184030181529190526020810180517bffffffffffffffffffffffffffffffffffffffffffffffffffffffff166001600160e01b031990931692909217909152613728565b50505050565b6033546001600160a01b031633146108335760405162461bcd60e51b815260206004820181905260248201527f4f776e61626c653a2063616c6c6572206973206e6f7420746865206f776e657260448201526064016104a4565b612d1061380d565b6097805460ff191690557f5db9ee0a495bf2e6ff9c91a7834c1ba4fdd244a5e8aa4e537bd38aeae4b073aa335b6040516001600160a01b03909116815260200160405180910390a1565b60975460ff16156108335760405162461bcd60e51b815260206004820152601060248201527f5061757361626c653a207061757365640000000000000000000000000000000060448201526064016104a4565b610193546040805163da09075560e01b815290516000926001600160a01b03169163da0907559160048083019260209291908290030181865afa158015612df8573d6000803e3d6000fd5b505050506040513d601f19601f82011682018060405250810190612e1c91906140d8565b90506000806000805b8881101561324f5760008a8a83818110612e4157612e4161421f565b9050602002016020810190612e569190614052565b6001600160a01b03161415612ead5760405162461bcd60e51b815260206004820181905260248201527f57696e6e657220616464726573732073686f756c6420626520646566696e656460448201526064016104a4565b868682818110612ebf57612ebf61421f565b9050602002013560001415612f3c5760405162461bcd60e51b815260206004820152602960248201527f57696e6e657220616d6f756e742073686f756c6420626520677265617465722060448201527f7468616e207a65726f000000000000000000000000000000000000000000000060648201526084016104a4565b6000878783818110612f5057612f5061421f565b90506020020135905060006103e8876001600160a01b03166326232a2e6040518163ffffffff1660e01b81526004016020604051808303816000875af1158015612f9e573d6000803e3d6000fd5b505050506040513d601f19601f82011682018060405250810190612fc29190614357565b8a8a86818110612fd457612fd461421f565b90506020020135612fe59190614418565b612fef9190614437565b9050612ffb818761412d565b95506130078183614235565b9150506000866001600160a01b031663a7ab05498f8f6040518363ffffffff1660e01b8152600401613043929190918252602082015260400190565b602060405180830381865afa158015613060573d6000803e3d6000fd5b505050506040513d601f19601f820116820180604052508101906130849190614357565b905060006103e8828b8b8781811061309e5761309e61421f565b905060200201356130af9190614418565b6130b99190614437565b90506130c5818761412d565b95506130d18184614235565b925050506000866001600160a01b03166322871dcd8f8f6040518363ffffffff1660e01b815260040161310e929190918252602082015260400190565b602060405180830381865afa15801561312b573d6000803e3d6000fd5b505050506040513d601f19601f8201168201806040525081019061314f9190614357565b905060006103e8828b8b878181106131695761316961421f565b9050602002013561317a9190614418565b6131849190614437565b9050613190818661412d565b945061319c8184614235565b925050508061019160008f815260200190815260200160002060008e815260200190815260200160002060008b6001600160a01b03166001600160a01b0316815260200190815260200160002060010160008282546131fb919061412d565b9091555061323c90508b8b848181106132165761321661421f565b905060200201602081019061322b9190614052565b6001600160a01b038b16908361352f565b50806132478161424c565b915050612e25565b508061325b838561412d565b613265919061412d565b60008c8152610191602090815260408083208e845282528083206001600160a01b038c168452909152812060020180549091906132a390849061412d565b92505081905550613322846001600160a01b031663469048406040518163ffffffff1660e01b81526004016020604051808303816000875af11580156132ed573d6000803e3d6000fd5b505050506040513d601f19601f8201168201806040525081019061331191906140d8565b6001600160a01b038916908561352f565b6040516366f4688560e11b8152600481018c90526133a0906001600160a01b0386169063cde8d10a90602401602060405180830381865afa15801561336b573d6000803e3d6000fd5b505050506040513d601f19601f8201168201806040525081019061338f91906140d8565b6001600160a01b038916908461352f565b60405163f406c2d160e01b8152600481018c9052602481018b9052613425906001600160a01b0386169063f406c2d190604401602060405180830381865afa1580156133f0573d6000803e3d6000fd5b505050506040513d601f19601f8201168201806040525081019061341491906140d8565b6001600160a01b038916908361352f565b5050505050505050505050565b603380546001600160a01b0383811673ffffffffffffffffffffffffffffffffffffffff19831681179093556040519116919082907f8be0079c531659141344cd1fd0a4f28419497f9722a3daafe3b4186f6b6457e090600090a35050565b613499612d5a565b6097805460ff191660011790557f62e78cea01bee320cd4e420270b5ea74000d11b0c9f74754ebdbfc544b05a258612d3d3390565b600260655414156135215760405162461bcd60e51b815260206004820152601f60248201527f5265656e7472616e637947756172643a207265656e7472616e742063616c6c0060448201526064016104a4565b6002606555565b6001606555565b6040516001600160a01b03831660248201526044810182905261355f90849063a9059cbb60e01b90606401612c5c565b505050565b600054610100900460ff166135cf5760405162461bcd60e51b815260206004820152602b60248201527f496e697469616c697a61626c653a20636f6e7472616374206973206e6f74206960448201526a6e697469616c697a696e6760a81b60648201526084016104a4565b61083361385f565b600054610100900460ff166136425760405162461bcd60e51b815260206004820152602b60248201527f496e697469616c697a61626c653a20636f6e7472616374206973206e6f74206960448201526a6e697469616c697a696e6760a81b60648201526084016104a4565b6108336138d3565b600054610100900460ff166136b55760405162461bcd60e51b815260206004820152602b60248201527f496e697469616c697a61626c653a20636f6e7472616374206973206e6f74206960448201526a6e697469616c697a696e6760a81b60648201526084016104a4565b61083361393e565b600054610100900460ff166108335760405162461bcd60e51b815260206004820152602b60248201527f496e697469616c697a61626c653a20636f6e7472616374206973206e6f74206960448201526a6e697469616c697a696e6760a81b60648201526084016104a4565b600061377d826040518060400160405280602081526020017f5361666545524332303a206c6f772d6c6576656c2063616c6c206661696c6564815250856001600160a01b03166139b59092919063ffffffff16565b80519091501561355f578080602001905181019061379b91906140f5565b61355f5760405162461bcd60e51b815260206004820152602a60248201527f5361666545524332303a204552433230206f7065726174696f6e20646964206e60448201527f6f7420737563636565640000000000000000000000000000000000000000000060648201526084016104a4565b60975460ff166108335760405162461bcd60e51b815260206004820152601460248201527f5061757361626c653a206e6f742070617573656400000000000000000000000060448201526064016104a4565b600054610100900460ff166138ca5760405162461bcd60e51b815260206004820152602b60248201527f496e697469616c697a61626c653a20636f6e7472616374206973206e6f74206960448201526a6e697469616c697a696e6760a81b60648201526084016104a4565b61083333613432565b600054610100900460ff166135285760405162461bcd60e51b815260206004820152602b60248201527f496e697469616c697a61626c653a20636f6e7472616374206973206e6f74206960448201526a6e697469616c697a696e6760a81b60648201526084016104a4565b600054610100900460ff166139a95760405162461bcd60e51b815260206004820152602b60248201527f496e697469616c697a61626c653a20636f6e7472616374206973206e6f74206960448201526a6e697469616c697a696e6760a81b60648201526084016104a4565b6097805460ff19169055565b60606103b3848460008585600080866001600160a01b031685876040516139dc9190614459565b60006040518083038185875af1925050503d8060008114613a19576040519150601f19603f3d011682016040523d82523d6000602084013e613a1e565b606091505b5091509150613a2f87838387613a3a565b979650505050505050565b60608315613aa6578251613a9f576001600160a01b0385163b613a9f5760405162461bcd60e51b815260206004820152601d60248201527f416464726573733a2063616c6c20746f206e6f6e2d636f6e747261637400000060448201526064016104a4565b50816103b3565b6103b38383815115613abb5781518083602001fd5b8060405162461bcd60e51b81526004016104a49190614475565b600060208284031215613ae757600080fd5b81356001600160e01b031981168114613aff57600080fd5b9392505050565b6001600160a01b0381168114612c2557600080fd5b634e487b7160e01b600052604160045260246000fd5b604051601f8201601f1916810167ffffffffffffffff81118282101715613b5a57613b5a613b1b565b604052919050565b600082601f830112613b7357600080fd5b813567ffffffffffffffff811115613b8d57613b8d613b1b565b613ba0601f8201601f1916602001613b31565b818152846020838601011115613bb557600080fd5b816020850160208301376000918101602001919091529392505050565b60008060008060808587031215613be857600080fd5b8435613bf381613b06565b93506020850135613c0381613b06565b925060408501359150606085013567ffffffffffffffff811115613c2657600080fd5b613c3287828801613b62565b91505092959194509250565b600080600080600060a08688031215613c5657600080fd5b8535613c6181613b06565b945060208601359350604086013592506060860135613c7f81613b06565b949793965091946080013592915050565b60008083601f840112613ca257600080fd5b50813567ffffffffffffffff811115613cba57600080fd5b6020830191508360208260051b8501011115613cd557600080fd5b9250929050565b600080600080600080600060a0888a031215613cf757600080fd5b8735965060208801359550604088013567ffffffffffffffff80821115613d1d57600080fd5b613d298b838c01613c90565b909750955060608a01359150613d3e82613b06565b90935060808901359080821115613d5457600080fd5b50613d618a828b01613c90565b989b979a50959850939692959293505050565b60008060008060008060008060008060e08b8d031215613d9357600080fd5b8a35995060208b0135985060408b013567ffffffffffffffff80821115613db957600080fd5b613dc58e838f01613c90565b909a50985060608d01359150613dda82613b06565b90965060808c0135955060a08c01359080821115613df757600080fd5b613e038e838f01613c90565b909650945060c08d0135915080821115613e1c57600080fd5b50613e298d828e01613c90565b915080935050809150509295989b9194979a5092959850565b600080600060608486031215613e5757600080fd5b83359250602084013591506040840135613e7081613b06565b809150509250925092565b600080600080600080600080600060e08a8c031215613e9957600080fd5b8935613ea481613b06565b985060208a0135975060408a0135965060608a0135613ec281613b06565b955060808a0135945060a08a013567ffffffffffffffff80821115613ee657600080fd5b613ef28d838e01613c90565b909650945060c08c0135915080821115613f0b57600080fd5b50613f188c828d01613c90565b915080935050809150509295985092959850929598565b600082601f830112613f4057600080fd5b8135602067ffffffffffffffff821115613f5c57613f5c613b1b565b8160051b613f6b828201613b31565b9283528481018201928281019087851115613f8557600080fd5b83870192505b84831015613a2f57823582529183019190830190613f8b565b600080600080600060a08688031215613fbc57600080fd5b8535613fc781613b06565b94506020860135613fd781613b06565b9350604086013567ffffffffffffffff80821115613ff457600080fd5b61400089838a01613f2f565b9450606088013591508082111561401657600080fd5b61402289838a01613f2f565b9350608088013591508082111561403857600080fd5b5061404588828901613b62565b9150509295509295909350565b60006020828403121561406457600080fd5b8135613aff81613b06565b600080600080600060a0868803121561408757600080fd5b853561409281613b06565b945060208601356140a281613b06565b93506040860135925060608601359150608086013567ffffffffffffffff8111156140cc57600080fd5b61404588828901613b62565b6000602082840312156140ea57600080fd5b8151613aff81613b06565b60006020828403121561410757600080fd5b81518015158114613aff57600080fd5b634e487b7160e01b600052601160045260246000fd5b6000821982111561414057614140614117565b500190565b8183526000602080850194508260005b8581101561418357813561416881613b06565b6001600160a01b031687529582019590820190600101614155565b509495945050505050565b81835260007f07ffffffffffffffffffffffffffffffffffffffffffffffffffffffffffffff8311156141c057600080fd5b8260051b8083602087013760009401602001938452509192915050565b6001600160a01b0386168152606060208201526000614200606083018688614145565b828103604084015261421381858761418e565b98975050505050505050565b634e487b7160e01b600052603260045260246000fd5b60008282101561424757614247614117565b500390565b600060001982141561426057614260614117565b5060010190565b60005b8381101561428257818101518382015260200161426a565b83811115612ca85750506000910152565b600081518084526142ab816020860160208601614267565b601f01601f19169290920160200192915050565b60006001600160a01b03808816835280871660208401525084604083015283606083015260a06080830152613a2f60a0830184614293565b6001600160a01b038916815260a06020820152600061431a60a08301898b614145565b876040840152828103606084015261433381878961418e565b9050828103608084015261434881858761418e565b9b9a5050505050505050505050565b60006020828403121561436957600080fd5b5051919050565b60006001600160a01b03808a16835280891660208401525060a0604083015261439d60a08301878961418e565b82810360608401526143b081868861418e565b905082810360808401526143c48185614293565b9a9950505050505050505050565b60006001600160a01b03808a16835280891660208401525086604083015260a0606083015261440560a08301868861418e565b82810360808401526143c481858761418e565b600081600019048311821515161561443257614432614117565b500290565b60008261445457634e487b7160e01b600052601260045260246000fd5b500490565b6000825161446b818460208701614267565b9190910192915050565b602081526000613aff602083018461429356fea26469706673582212203e4dd33329653912df891506186b7ea1080f3d99f8e63fb1418d32cba753ac3964736f6c634300080b0033",
  "devdoc": {
    "author": "David Lee",
    "kind": "dev",
    "methods": {
      "deposit(uint256,uint256,address)": {
        "details": "Only tokens registered in GameRegistry with an amount greater than zero is valid for the deposit",
        "params": {
          "_gid": "Game ID",
          "_tid": "Tournament ID",
          "_token": "Token address to deposit"
        }
      },
      "depositNFTPrize(address,uint256,uint256,address,uint256,uint256[],uint256[])": {
        "details": "NFT type should be either 721 or 1155",
        "params": {
          "_amounts": "Token amount list",
          "_from": "NFT owner address",
          "_gid": "Game ID",
          "_nftAddress": "NFT address",
          "_nftType": "NFT type (721/1155)",
          "_tid": "Tournament ID",
          "_tokenIds": "Token Id list"
        }
      },
      "depositPrize(address,uint256,uint256,address,uint256)": {
        "details": "Only tokens which are allowed as a distributable token can be depositedPrize is transferred from _depositor address to this contract",
        "params": {
          "_amount": "Prize amount to deposit",
          "_depositor": "Depositor address",
          "_gid": "Game ID",
          "_tid": "Tournament ID",
          "_token": "Prize token address"
        }
      },
      "distributeNFTPrize(uint256,uint256,address[],address,uint256,uint256[],uint256[])": {
        "details": "Only maintainerNFT type should be either 721 or 1155",
        "params": {
          "_amounts": "Token amount list",
          "_gid": "Game ID",
          "_nftAddress": "NFT address",
          "_nftType": "NFT type (721/1155)",
          "_tid": "Tournament ID",
          "_tokenIds": "Token Id list",
          "_winners": "Winners list"
        }
      },
      "distributePrize(uint256,uint256,address[],address,uint256[])": {
        "details": "Only maintainerThe maximum distributable prize amount is the sum of the users' deposit and the prize that the owner deposited",
        "params": {
          "_amounts": "Prize list",
          "_gid": "Game ID",
          "_tid": "Tournament ID",
          "_token": "Prize token address",
          "_winners": "Winners list"
        }
      },
      "onERC721Received(address,address,uint256,bytes)": {
        "details": "See {IERC721Receiver-onERC721Received}. Always returns `IERC721Receiver.onERC721Received.selector`."
      },
      "owner()": {
        "details": "Returns the address of the current owner."
      },
      "pause()": {
        "details": "Only owner"
      },
      "paused()": {
        "details": "Returns true if the contract is paused, and false otherwise."
      },
      "renounceOwnership()": {
        "details": "Leaves the contract without owner. It will not be possible to call `onlyOwner` functions anymore. Can only be called by the current owner. NOTE: Renouncing ownership will leave the contract without an owner, thereby removing any functionality that is only available to the owner."
      },
      "supportsInterface(bytes4)": {
        "details": "See {IERC165-supportsInterface}."
      },
      "transferOwnership(address)": {
        "details": "Transfers ownership of the contract to a new account (`newOwner`). Can only be called by the current owner."
      },
      "unpause()": {
        "details": "Only owner"
      },
      "withdrawNFTPrize(address,uint256,uint256,address,uint256,uint256[],uint256[])": {
        "details": "Only ownerNFT type should be either 721 or 1155",
        "params": {
          "_amounts": "Token amount list",
          "_gid": "Game ID",
          "_nftAddress": "NFT address",
          "_nftType": "NFT type (721/1155)",
          "_tid": "Tournament ID",
          "_to": "NFT receiver address",
          "_tokenIds": "Token Id list"
        }
      },
      "withdrawPrize(address,uint256,uint256,address,uint256)": {
        "details": "Only owner",
        "params": {
          "_amount": "Prize amount to withdraw",
          "_gid": "Game ID",
          "_tid": "Tournament ID",
          "_to": "Beneficiary address",
          "_token": "Prize token address"
        }
      }
    },
    "stateVariables": {
      "addressRegistry": {
        "details": "AddressRegistry"
      },
      "tournamentNftPrizes": {
        "details": "Game ID -> Tournament ID -> NFT Address -> Token ID -> Tournament NFT prizes"
      },
      "tournamentTokens": {
        "details": "Game ID -> Tournament ID -> Token Address -> Tournament tokens"
      }
    },
    "title": "Oparcade",
    "version": 1
  },
  "userdoc": {
    "kind": "user",
    "methods": {
      "deposit(uint256,uint256,address)": {
        "notice": "Deposit ERC20 tokens from user"
      },
      "depositNFTPrize(address,uint256,uint256,address,uint256,uint256[],uint256[])": {
        "notice": "Deposit NFT prize for the specific game/tournament"
      },
      "depositPrize(address,uint256,uint256,address,uint256)": {
        "notice": "Deposit the prize tokens for the specific game/tournament"
      },
      "distributeNFTPrize(uint256,uint256,address[],address,uint256,uint256[],uint256[])": {
        "notice": "Distribute winners' NFT prizes"
      },
      "distributePrize(uint256,uint256,address[],address,uint256[])": {
        "notice": "Distribute winners their prizes"
      },
      "pause()": {
        "notice": "Pause Oparcade"
      },
      "unpause()": {
        "notice": "Resume Oparcade"
      },
      "withdrawNFTPrize(address,uint256,uint256,address,uint256,uint256[],uint256[])": {
        "notice": "Withdraw NFT prize for the specific game/tournament"
      },
      "withdrawPrize(address,uint256,uint256,address,uint256)": {
        "notice": "Withdraw the prize tokens from the specific game/tournament"
      }
    },
    "notice": "This contract manages token deposit/distribution from/to the users playing the game/tournament",
    "version": 1
  },
  "storageLayout": {
    "storage": [
      {
        "astId": 547,
        "contract": "contracts/Oparcade.sol:Oparcade",
        "label": "_initialized",
        "offset": 0,
        "slot": "0",
        "type": "t_uint8"
      },
      {
        "astId": 550,
        "contract": "contracts/Oparcade.sol:Oparcade",
        "label": "_initializing",
        "offset": 1,
        "slot": "0",
        "type": "t_bool"
      },
      {
        "astId": 2098,
        "contract": "contracts/Oparcade.sol:Oparcade",
        "label": "__gap",
        "offset": 0,
        "slot": "1",
        "type": "t_array(t_uint256)50_storage"
      },
      {
        "astId": 419,
        "contract": "contracts/Oparcade.sol:Oparcade",
        "label": "_owner",
        "offset": 0,
        "slot": "51",
        "type": "t_address"
      },
      {
        "astId": 539,
        "contract": "contracts/Oparcade.sol:Oparcade",
        "label": "__gap",
        "offset": 0,
        "slot": "52",
        "type": "t_array(t_uint256)49_storage"
      },
      {
        "astId": 850,
        "contract": "contracts/Oparcade.sol:Oparcade",
        "label": "_status",
        "offset": 0,
        "slot": "101",
        "type": "t_uint256"
      },
      {
        "astId": 908,
        "contract": "contracts/Oparcade.sol:Oparcade",
        "label": "__gap",
        "offset": 0,
        "slot": "102",
        "type": "t_array(t_uint256)49_storage"
      },
      {
        "astId": 730,
        "contract": "contracts/Oparcade.sol:Oparcade",
        "label": "_paused",
        "offset": 0,
        "slot": "151",
        "type": "t_bool"
      },
      {
        "astId": 835,
        "contract": "contracts/Oparcade.sol:Oparcade",
        "label": "__gap",
        "offset": 0,
        "slot": "152",
        "type": "t_array(t_uint256)49_storage"
      },
      {
        "astId": 1772,
        "contract": "contracts/Oparcade.sol:Oparcade",
        "label": "__gap",
        "offset": 0,
        "slot": "201",
        "type": "t_array(t_uint256)50_storage"
      },
      {
        "astId": 2317,
        "contract": "contracts/Oparcade.sol:Oparcade",
        "label": "__gap",
        "offset": 0,
        "slot": "251",
        "type": "t_array(t_uint256)50_storage"
      },
      {
        "astId": 1196,
        "contract": "contracts/Oparcade.sol:Oparcade",
        "label": "__gap",
        "offset": 0,
        "slot": "301",
        "type": "t_array(t_uint256)50_storage"
      },
      {
        "astId": 1142,
        "contract": "contracts/Oparcade.sol:Oparcade",
        "label": "__gap",
        "offset": 0,
        "slot": "351",
        "type": "t_array(t_uint256)50_storage"
      },
      {
        "astId": 11127,
        "contract": "contracts/Oparcade.sol:Oparcade",
        "label": "tournamentTokens",
        "offset": 0,
        "slot": "401",
        "type": "t_mapping(t_uint256,t_mapping(t_uint256,t_mapping(t_address,t_struct(TournamentToken)11117_storage)))"
      },
      {
        "astId": 11144,
        "contract": "contracts/Oparcade.sol:Oparcade",
        "label": "tournamentNftPrizes",
        "offset": 0,
        "slot": "402",
        "type": "t_mapping(t_uint256,t_mapping(t_uint256,t_mapping(t_address,t_mapping(t_uint256,t_struct(TournamentNftPrize)11132_storage))))"
      },
      {
        "astId": 11148,
        "contract": "contracts/Oparcade.sol:Oparcade",
        "label": "addressRegistry",
        "offset": 0,
        "slot": "403",
        "type": "t_contract(IAddressRegistry)12677"
      }
    ],
    "types": {
      "t_address": {
        "encoding": "inplace",
        "label": "address",
        "numberOfBytes": "20"
      },
      "t_array(t_uint256)49_storage": {
        "base": "t_uint256",
        "encoding": "inplace",
        "label": "uint256[49]",
        "numberOfBytes": "1568"
      },
      "t_array(t_uint256)50_storage": {
        "base": "t_uint256",
        "encoding": "inplace",
        "label": "uint256[50]",
        "numberOfBytes": "1600"
      },
      "t_bool": {
        "encoding": "inplace",
        "label": "bool",
        "numberOfBytes": "1"
      },
      "t_contract(IAddressRegistry)12677": {
        "encoding": "inplace",
        "label": "contract IAddressRegistry",
        "numberOfBytes": "20"
      },
      "t_mapping(t_address,t_mapping(t_uint256,t_struct(TournamentNftPrize)11132_storage))": {
        "encoding": "mapping",
        "key": "t_address",
        "label": "mapping(address => mapping(uint256 => struct Oparcade.TournamentNftPrize))",
        "numberOfBytes": "32",
        "value": "t_mapping(t_uint256,t_struct(TournamentNftPrize)11132_storage)"
      },
      "t_mapping(t_address,t_struct(TournamentToken)11117_storage)": {
        "encoding": "mapping",
        "key": "t_address",
        "label": "mapping(address => struct Oparcade.TournamentToken)",
        "numberOfBytes": "32",
        "value": "t_struct(TournamentToken)11117_storage"
      },
      "t_mapping(t_uint256,t_mapping(t_address,t_mapping(t_uint256,t_struct(TournamentNftPrize)11132_storage)))": {
        "encoding": "mapping",
        "key": "t_uint256",
        "label": "mapping(uint256 => mapping(address => mapping(uint256 => struct Oparcade.TournamentNftPrize)))",
        "numberOfBytes": "32",
        "value": "t_mapping(t_address,t_mapping(t_uint256,t_struct(TournamentNftPrize)11132_storage))"
      },
      "t_mapping(t_uint256,t_mapping(t_address,t_struct(TournamentToken)11117_storage))": {
        "encoding": "mapping",
        "key": "t_uint256",
        "label": "mapping(uint256 => mapping(address => struct Oparcade.TournamentToken))",
        "numberOfBytes": "32",
        "value": "t_mapping(t_address,t_struct(TournamentToken)11117_storage)"
      },
      "t_mapping(t_uint256,t_mapping(t_uint256,t_mapping(t_address,t_mapping(t_uint256,t_struct(TournamentNftPrize)11132_storage))))": {
        "encoding": "mapping",
        "key": "t_uint256",
        "label": "mapping(uint256 => mapping(uint256 => mapping(address => mapping(uint256 => struct Oparcade.TournamentNftPrize))))",
        "numberOfBytes": "32",
        "value": "t_mapping(t_uint256,t_mapping(t_address,t_mapping(t_uint256,t_struct(TournamentNftPrize)11132_storage)))"
      },
      "t_mapping(t_uint256,t_mapping(t_uint256,t_mapping(t_address,t_struct(TournamentToken)11117_storage)))": {
        "encoding": "mapping",
        "key": "t_uint256",
        "label": "mapping(uint256 => mapping(uint256 => mapping(address => struct Oparcade.TournamentToken)))",
        "numberOfBytes": "32",
        "value": "t_mapping(t_uint256,t_mapping(t_address,t_struct(TournamentToken)11117_storage))"
      },
      "t_mapping(t_uint256,t_struct(TournamentNftPrize)11132_storage)": {
        "encoding": "mapping",
        "key": "t_uint256",
        "label": "mapping(uint256 => struct Oparcade.TournamentNftPrize)",
        "numberOfBytes": "32",
        "value": "t_struct(TournamentNftPrize)11132_storage"
      },
      "t_struct(TournamentNftPrize)11132_storage": {
        "encoding": "inplace",
        "label": "struct Oparcade.TournamentNftPrize",
        "members": [
          {
            "astId": 11129,
            "contract": "contracts/Oparcade.sol:Oparcade",
            "label": "totalDistribution",
            "offset": 0,
            "slot": "0",
            "type": "t_uint256"
          },
          {
            "astId": 11131,
            "contract": "contracts/Oparcade.sol:Oparcade",
            "label": "totalDeposit",
            "offset": 0,
            "slot": "1",
            "type": "t_uint256"
          }
        ],
        "numberOfBytes": "64"
      },
      "t_struct(TournamentToken)11117_storage": {
        "encoding": "inplace",
        "label": "struct Oparcade.TournamentToken",
        "members": [
          {
            "astId": 11110,
            "contract": "contracts/Oparcade.sol:Oparcade",
            "label": "totalUserDeposit",
            "offset": 0,
            "slot": "0",
            "type": "t_uint256"
          },
          {
            "astId": 11112,
            "contract": "contracts/Oparcade.sol:Oparcade",
            "label": "totalPrizeDistribution",
            "offset": 0,
            "slot": "1",
            "type": "t_uint256"
          },
          {
            "astId": 11114,
            "contract": "contracts/Oparcade.sol:Oparcade",
            "label": "totalPrizeFee",
            "offset": 0,
            "slot": "2",
            "type": "t_uint256"
          },
          {
            "astId": 11116,
            "contract": "contracts/Oparcade.sol:Oparcade",
            "label": "totalPrizeDeposit",
            "offset": 0,
            "slot": "3",
            "type": "t_uint256"
          }
        ],
        "numberOfBytes": "128"
      },
      "t_uint256": {
        "encoding": "inplace",
        "label": "uint256",
        "numberOfBytes": "32"
      },
      "t_uint8": {
        "encoding": "inplace",
        "label": "uint8",
        "numberOfBytes": "1"
      }
    }
  }
}